:100000000C9432000C944F000C944F000C944F0051
:100010000C944F000C944F000C944F000C944F0024
:100020000C944F000C944F000C944F000C944F0014
:100030000C944F000C944F000C944F000C944F0004
:100040000C944F000C944F000C944F000C944F00F4
:100050000C944F000C944F000C944F000C944F00E4
:100060000C944F0011241FBECFEFD0E1DEBFCDBFF7
:1000700011E0A0E0B1E0E2EDF0E002C005900D92E9
:10008000A030B107D9F711E0A0E0B1E001C01D92A6
:10009000A030B107E1F70E9451000C9467000C9466
:1000A0000000279A2F9A8FE392E4AFE081509040AE
:1000B000A040E1F700C000002F988FE392E4AFE08A
:1000C00081509040A040E1F700C00000EBCFF894D1
:0200D000FFCF60
:00000001FF
