S01D0000416E616C6F672D426F6172642D4441432D546573742E73726563DE
S11300000C9432000C944F000C944F000C944F004D
S11300100C944F000C9414010C944F000C944F005A
S11300200C944F000C944F000C944F000C944F0010
S11300300C944F000C944F000C944F000C944F0000
S11300400C944F000C944F000C944F000C944F00F0
S11300500C944F000C944F000C944F000C944F00E0
S11300600C944F0011241FBECFEFD0E1DEBFCDBFF3
S113007011E0A0E0B1E0E0ECF7E002C005900D92E1
S1130080AE30B107D9F711E0AEE0B1E001C01D9286
S1130090A533B107E1F70E9484030C94DE030C94AA
S11300A0000083B3836083BB8FEF8AB997B187B9AC
S11300B0E9EDF0E080818F608083EAEDF0E08081FB
S11300C0807F808384B3836084BBA198A19AA09825
S11300D0A09A08956BB978B9A098A09A82B92DE036
S11300E02A95F1F700004091DA0021E030E08830F1
S11300F010F420E030E081E090E002C0880F991F06
S11301002A95E2F7942F982BEAEDF0E0908322E40D
S11301102A95F1F700C09081809589238083089502
S1130120CF93DF93CDB7DEB72A970FB6F894DEBF2F
S11301300FBECDBFDE011196E0E0F1E03AE00190A0
S11301400D923150E1F73FEF32B9EAEDF0E0308142
S11301503061308330813F7E308362B930813062D8
S1130160308330813F7D30836230F9F0633018F49E
S11301706130A1F50DC0643029F1683079F56AE089
S113018070E00E94CA03FE01E80FF91F218126C016
S113019064E670E00E94CA036AE070E00E94CA0349
S11301A0FE01E60FF71F218119C068EE73E00E947B
S11301B0CA0364E670E00E94CA03FE01E60FF71F5B
S11301C021810CC060E177E20E94CA0368EE73E00B
S11301D00E94CA03FE01E60FF71F2181209522B970
S11301E0EAEDF0E080818061808380818F7E80836E
S11301F02A960FB6F894DEBF0FBECDBFDF91CF9124
S11302000895EAE7F0E0808184608083ACE7B0E0A1
S11302108C9180648C93AEE7B0E08C9181608C9378
S113022080818068808308951F920F920FB60F9289
S113023011242F923F924F925F926F927F928F92EE
S11302409F92AF92BF92CF92DF92EF92FF920F9361
S11302501F932F933F934F935F936F937F938F934A
S11302609F93AF93BF93CF93DF93EF93FF938091CB
S11302701E0190911F01E0912601F0E0E65FFE4F20
S113028060810E9490008FE082B9EAEDF0E0808105
S11302908F7B808332E43A95F1F700C080818064DB
S11302A08083CC24DD24C39400E010E0CAE7D0E0CE
S11302B00F2EF8E78F2E9924F02D0F2EF9E76F2ECD
S11302C07724F02D0F2EFAEDEF2EFF24F02D0F2EB4
S11302D0FFE94F2EF8E15F2EF02D0F2EF5E02F2EC3
S11302E0FFE13F2EF02D05C00F5F1F4F0894C11C86
S11302F0D11C888180648883888186FDFDCFF401C8
S1130300808190E09093230180932201F301208166
S11303108091220190912301B22EAA248A299B293B
S11303209093230180932201F70180818F7B808346
S1130330202F02B9C8010430110529F08D30910530
S1130340A9F5A10101C0A20180912201909123018C
S1130350F2E080309F07B0F0609122017091230198
S113036060507240640F751F822F0E946A00809152
S11303702201909123018050924090932101809317
S113038020013DC0609122017091230160507240B0
S1130390640F751F822F0E946A0080912201909140
S11303A02301909321018093200129C00097D1F467
S11303B0609122017091230162957295707F762776
S11303C0607F7627802F0E946A008091220190919D
S11303D0230190931F0180931E01F70180818064A3
S11303E0808382CF6091220170912301629572957E
S11303F0707F7627607F7627802F0E946A00F7013E
S1130400808180648083F0E1CF16D1040CF46CCF3A
S1130410A198A19A80912701982F9F5F909327011B
S1130420853009F044C1109227012D9A20912C01A6
S113043060912C0180912C0170912C0150912C0120
S113044040912C0130912C019091310171706470B4
S1130450672B5071562B4072452B3074342B979573
S113046099279795932B221F2227221F220F292B8E
S113047090E0880F991F880F991F88709070822BC5
S11304808EBD0DB407FEFDCF8EB580932E018091F5
S11304902E0190912D01892780932E0180912D01A9
S11304A090912E01892780932D0180912E019091A6
S11304B02D01892380932E0180912E0182FF06C095
S11304C090912C0184E0892780932C0180912E0146
S11304D081FF06C090912C0182E0892780932C0132
S11304E080912E0180FF06C090912C0181E0892724
S11304F080932C0180912E0188232CF480912C016F
S1130500805880932C0180912E0184FF06C0909125
S11305102C0180E1892780932C0180912E0185FF95
S113052006C090912C0180E2892780932C01809150
S11305302E0186FF06C090912C0180E489278093C8
S11305402C011EBC0DB407FEFDCF0EB405FE04C085
S113055081E08093340102C0109234010EB406FE8F
S113056004C081E08093330102C0109233011EBCA9
S11305700DB407FEFDCF1EBC0DB407FEFDCF809168
S1130580340190913301979599279795880F880F97
S1130590892B8EBD0DB407FEFDCFEDEDF0E080811B
S11305A0877F80838081886080832D988FB180933A
S11305B02F0180912F0190913001892780932F0181
S11305C08091300190912F0189278093300180918F
S11305D02F0190913001892380932F0180912F0165
S11305E082FF06C09091310181E089278093310117
S11305F0EDEDF0E080818F7B808340912C01A09110
S11306002C0130912C0160912C0120912C018091BE
S11306102C0150912C0190913101B0E0B595A79532
S1130620B595A795A17070E061707070660F771F23
S11306306A2B9295907F692B90E095958795959577
S1130640879595958795959587959595879596958D
S1130650982F882797958795862B441F4427441FF6
S1130660440F440F440F842B632F70E0660F771FF1
S113067064707070682B30E0C901880F991F880F6F
S1130680991F80749070682B852F90E096958795BC
S113069080729070862B82B980818064808336E07A
S11306A03A95F1F700C080818F7B808312B88091E6
S11306B02601982F9F5F90932601833011F41092A6
S11306C02601FF91EF91DF91CF91BF91AF919F915F
S11306D08F917F916F915F914F913F912F911F91D6
S11306E00F91FF90EF90DF90CF90BF90AF909F90CD
S11306F08F907F906F905F904F903F902F900F90CE
S11307000FBE0F901F90189580E885BF85BF279A6C
S1130710819A84B1876284B9ECEDF0E080818C64C5
S1130720808385B1897D85B9EDEDF0E08081837F9B
S1130730808380E58CBD8081877F80838081877FF3
S11307408083808188608083A9EDB0E08C91806C87
S11307508C93EAEDF0E08081806C808381B18FEF2F
S113076081B992B182B98C9180638C9380818F7CA2
S1130770808382980E9401010E945100E0EBF0E026
S1130780808186608083E0E7F0E0808181608083FF
S11307907894FFCFAA1BBB1B51E107C0AA1FBB1F44
S11307A0A617B70710F0A61BB70B881F991F5A95F9
S11307B0A9F780959095BC01CD010895F894FFCFD9
S11107C0D711CD5D1B5EDE15DF5F080102045C
S9030000FC
