:100000000C9432000C944F000C944F000C944F0051
:100010000C944F000C9453010C944F000C944F001F
:100020000C944F000C944F000C944F000C944F0014
:100030000C944F000C9418010C944F000C944F003A
:100040000C944F000C944F000C944F000C944F00F4
:100050000C944F000C944F000C944F000C944F00E4
:100060000C944F0011241FBECFEFD0E1DEBFCDBFF7
:1000700011E0A0E0B1E0E6EDF8E002C005900D92DD
:10008000AE34B107D9F711E0AEE4B1E001C01D9282
:10009000A337B107E1F70E940A040C9469040C9499
:1000A000000087E28093C4001092C50088E9809325
:1000B000C100089583B3836083BB8FEF8AB997B182
:1000C00087B9E9EDF0E080818F608083EAEDF0E0B0
:1000D0008081807F808384B3836084BBA198A19A50
:1000E000A098A09A08954BB958B9A098A09A62B95F
:1000F0002DE02A95F1F70000EAEDF0E0408121E0E3
:1001000030E0B90102C0660F771F8A95E2F7CB0194
:10011000942F982B908372E47A95F1F700C0908128
:100120008095892380830895CF93DF93CDB7DEB781
:100130002A970FB6F894DEBF0FBECDBFDE01119631
:10014000E0E0F1E03AE001900D923150E1F73FEF4D
:1001500032B9EAEDF0E030813061308330813F7EAA
:10016000308362B930813062308330813F7D3083AB
:100170006230F9F0633018F46130A1F50DC06430DD
:1001800029F1683079F56AE070E00E945504FE01BB
:10019000E80FF91F218126C064E670E00E94550433
:1001A0006AE070E00E945504FE01E60FF71F21810E
:1001B00019C068EE73E00E94550464E670E00E9486
:1001C0005504FE01E60FF71F21810CC060E177E2C4
:1001D0000E94550468EE73E00E945504FE01E60F8C
:1001E000F71F2181209522B9EAEDF0E0808180613E
:1001F000808380818F7E80832A960FB6F894DEBF3D
:100200000FBECDBFDF91CF910895EAE7F0E0808186
:1002100084608083ACE7B0E08C9180648C93AEE71F
:10022000B0E08C9181608C93808180688083089598
:100230001F920F920FB60F9211242F933F938F931B
:100240009F938091C60090E090934D0180934C0164
:1002500080914C0190914D01929582958F708927E4
:100260009F70892790E09C013595279535952795B6
:10027000359527952130310531F480FF02C0899AE8
:1002800009C0899807C080914C0190914D01009759
:1002900009F489989F918F913F912F910F900FBEF4
:1002A0000F901F9018951F920F920FB60F92112466
:1002B0002F923F924F925F926F927F928F929F9276
:1002C000AF92BF92CF92DF92EF92FF920F931F9364
:1002D0002F933F934F935F936F937F938F939F934E
:1002E000AF93BF93CF93DF93EF93FF9380914C0134
:1002F00090914D01E0916401F0E0E65FFE4F608176
:100300000E949400CC24DD24C39400E010E00F2E62
:10031000FAEDEF2EFF24F02DCAE7D0E00F2EF8E71C
:100320008F2E9924F02D0F2EF9E74F2E5524F02D06
:100330000F2EFCE22F2EF1E03F2EF02D05C00F5FB7
:100340001F4F0894C11CD11CF80102B9D7018C9130
:100350008F7B8C93BDE0BA95F1F7000088818064B3
:100360008883888186FDFDCFD7018C9180648C9332
:10037000D4018C9190E09093610180936001D2014F
:100380002C918091600190916101B22EAA248A295A
:100390009B299093610180936001C8010897823086
:1003A000910508F044C0E930F10519F02FE938E172
:1003B00002C025E03FE18091600190916101B2E0CF
:1003C00080309B07D8F0EE0FFF1FE20DF31D8181F7
:1003D0006081409160015091610140505240420F54
:1003E000531F0E94730080916001909161018050C1
:1003F000924090935F0180935E012FC0EE0FFF1F2C
:10040000E20DF31D81816081409160015091610195
:1004100040505240420F531F0E9473008091600170
:100420009091610190935F0180935E0116C0EB3063
:10043000F10509F484CFEE0FFF1FE20DF31D81815A
:100440006081409160015091610142955295507FC9
:100450005427407F54270E947300E0E1CE16D10458
:100460000CF46DCF00E010E00F2EFAEDEF2EFF241C
:10047000F02DCAE7D0E00F2EF8E7CF2EDD24F02DC7
:100480000F2EF9E7AF2EBB24F02D0F2EFEE08F2E9E
:10049000F1E09F2EF02D802F8F5F82B9D7018C91D4
:1004A0008F778C93BDE0BA95F1F700008881806466
:1004B0008883888186FDFDCFF701808180688083F5
:1004C000D6018C9190E09093610180936001F501D9
:1004D00020818091600190916101722E66248629AD
:1004E00097299093610180936001F801EE0FFF1F3F
:1004F000E80DF91D81816081409160015091610199
:1005000042955295507F5427407F54270E94730094
:100510000F5F1F4F0F30110509F0BDCFA198A19AB1
:1005200080916501982F9F5F90936501853009F058
:1005300044C1109265012D9A20916A0160916A016F
:1005400080916A0170916A0150916A0140916A013B
:1005500030916A0190916F0171706470672B5071D6
:10056000562B4072452B3074342B979599279795CD
:10057000932B221F2227221F220F292B90E0880F66
:10058000991F880F991F88709070822B8EBD0DB4B3
:1005900007FEFDCF8EB580936C0180916C01909128
:1005A0006B01892780936C0180916B0190916C01A4
:1005B000892780936B0180916C0190916B01892355
:1005C00080936C0180916C0182FF06C090916A015A
:1005D00084E0892780936A0180916C0181FF06C0C5
:1005E00090916A0182E0892780936A0180916C0171
:1005F00080FF06C090916A0181E0892780936A019B
:1006000080916C0188232CF480916A01805880933A
:100610006A0180916C0184FF06C090916A0180E1BB
:10062000892780936A0180916C0185FF06C09091B3
:100630006A0180E2892780936A0180916C0186FFBC
:1006400006C090916A0180E4892780936A011EBCEC
:100650000DB407FEFDCF0EB405FE04C081E080930B
:10066000720102C0109272010EB406FE04C081E055
:100670008093710102C0109271011EBC0DB407FE7F
:10068000FDCF1EBC0DB407FEFDCF8091720190918D
:100690007101979599279795880F880F892B8EBDA3
:1006A0000DB407FEFDCFEDEDF0E08081877F808304
:1006B0008081886080832D988FB180936D018091B7
:1006C0006D0190916E01892780936D0180916E017B
:1006D00090916D01892780936E0180916D019091B9
:1006E0006E01892380936D0180916D0182FF06C0A8
:1006F00090916F0181E0892780936F01EDEDF0E02B
:1007000080818F7B808340916A01A0916A01309142
:100710006A0160916A0120916A0180916A01509199
:100720006A0190916F01B0E0B595A795B595A79531
:10073000A17070E061707070660F771F6A2B9295E0
:10074000907F692B90E095958795959587959595E0
:10075000879595958795959587959695982F882750
:1007600097958795862B441F4427441F440F440FB9
:10077000440F842B632F70E0660F771F64707070D6
:10078000682B30E0C901880F991F880F991F80746A
:100790009070682B852F90E0969587958072907069
:1007A000862B82B980818064808346E04A95F1F788
:1007B00000C080818F7B808312B880916401982F64
:1007C0009F5F90936401833011F410926401FF9154
:1007D000EF91DF91CF91BF91AF919F918F917F91D9
:1007E0006F915F914F913F912F911F910F91FF90CA
:1007F000EF90DF90CF90BF90AF909F908F907F90C1
:100800006F905F904F903F902F900F900FBE0F9082
:100810001F90189580E885BF85BF279A819A84B17B
:10082000876284B9ECEDF0E080818C65808385B1CE
:10083000897D85B9EDEDF0E08081837F808380E55F
:100840008CBD8081877F80838081877F808380814A
:100850008860808380818F7E8083A9EDB0E08C9159
:10086000806C8C93EAEDF0E08081806C808381B1B4
:100870008FEF81B992B182B98C9180638C93808122
:100880008F7C808382980E9405010E945A000E94FA
:100890005100E0EBF0E0808186608083E0E7F0E0EB
:1008A0008081816080837894FFCFAA1BBB1B51E1BC
:1008B00007C0AA1FBB1FA617B70710F0A61BB70BD0
:1008C000881F991F5A95A9F780959095BC01CD0175
:0608D0000895F894FFCF2B
:1008D600D711CD5D1B5EDE15DF5F08010204020243
:1008E60007020602030200020102050001030703D4
:1008F60000030603020304030303050306010701BD
:1009060000010000030007000200060005010400C4
:0E091600010000000301050204020401EB02CF
:00000001FF
