:100000000C9432000C944F000C944F000C944F0051
:100010000C944F000C94D8000C944F000C944F009B
:100020000C944F000C944F000C944F000C944F0014
:100030000C944F000C944F000C944F000C944F0004
:100040000C944F000C944F000C944F000C944F00F4
:100050000C944F000C944F000C944F000C944F00E4
:100060000C944F0011241FBECFEFD0E1DEBFCDBFF7
:1000700011E0A0E0B1E0ECE7F4E002C005900D92E1
:10008000AE30B107D9F711E0AEE0B1E001C01D928A
:10009000A631B107E1F70E94E5010C943C020C94F3
:1000A0000000CF93DF93CDB7DEB72A970FB6F89451
:1000B000DEBF0FBECDBFDE011196E0E0F1E03AE019
:1000C00001900D923150E1F73FEF32B9EAEDF0E0E7
:1000D00030813061308330813F7E308362B930813E
:1000E0003062308330813F7D30836230F9F063309D
:1000F00018F46130A1F50DC0643029F1683079F54C
:100100006AE070E00E942802FE01E80FF91F2181D9
:1001100026C064E670E00E9428026AE070E00E9457
:100120002802FE01E60FF71F218119C068EE73E077
:100130000E94280264E670E00E942802FE01E60F99
:10014000F71F21810CC060E177E20E94280268EE6F
:1001500073E00E942802FE01E60FF71F218120951F
:1001600022B9EAEDF0E080818061808380818F7E1A
:1001700080832A960FB6F894DEBF0FBECDBFDF9105
:10018000CF910895EAE7F0E0808187608083ACE753
:10019000B0E08C9180648C93AEE7B0E08C9181608C
:1001A0008C938081806880838081806480830895BF
:1001B0001F920F920FB60F9211242F933F934F93DC
:1001C0005F936F937F938F939F93AF93BF93EF93BF
:1001D000FF9380911201882309F087C08091130159
:1001E000882391F187E082B9EAEDF0E080818F7B8E
:1001F0008083EAE7F0E0808180648083808186FFED
:10020000FDCF80910E0190910F0190931101809389
:1002100010018091780090E090930F0180930E017F
:100220004091790020910E0130910F01942F80E0D0
:10023000822B932B90930F0180930E01EAEDF0E057
:1002400080818064808331C089E082B9EAEDF0E08A
:1002500080818F778083EAE7F0E08081806480830B
:10026000808186FFFDCF80910E0190910F019093C8
:100270001101809310018091780090E090930F011C
:1002800080930E014091790020910E0130910F0171
:10029000942F80E0822B932B90930F0180930E017B
:1002A000EAEDF0E080818068808380910E0190917A
:1002B0000F012091100130911101821B930B52F418
:1002C000809110019091110120910E0130910F0148
:1002D000821B930B8230910544F480911001909120
:1002E000110190930F0180930E0180E883B92D9A3C
:1002F00080911301880F80688EBD0DB407FEFDCF7D
:100300000EB407FE04C081E08093130102C0109276
:1003100013011EBC0DB407FEFDCF0EB405FE04C0D4
:1003200081E08093150102C0109215010EB406FE03
:1003300004C081E08093140102C0109214011EBC1D
:100340000DB407FEFDCF1EBC0DB407FEFDCF80919E
:10035000150190911401979599279795880F880F0B
:10036000892B8EBD0DB407FEFDCFEDEDF0E0808151
:10037000877F80838081886080832D9880910E01A3
:1003800090910F01E0911201F0E0E65FFE4F608175
:100390000E94510080911201982F9F5F909312014B
:1003A000833011F410921201FF91EF91BF91AF9140
:1003B0009F918F917F916F915F914F913F912F917D
:1003C0000F900FBE0F901F90189580E885BF85BFD6
:1003D000279A819A84B1876284B9ECEDF0E080813C
:1003E0008C60808385B1897D85B9EDEDF0E08081F9
:1003F000837F808380E58CBD8081877F808380813F
:10040000877F8083808188608083A9EDB0E08C91B4
:10041000806C8C93EAEDF0E080818164808381B10F
:100420008FEF81B992B182B98C9180638C93808176
:100430008F7C80830E94C200E0EBF0E080818660C8
:100440008083E0E7F0E08081816080837894FFCF53
:10045000AA1BBB1B51E107C0AA1FBB1FA617B707EA
:1004600010F0A61BB70B881F991F5A95A9F7809506
:0C0470009095BC01CD010895F894FFCFD9
:0E047C00D711CD5D1B5EDE15DF5F08010204A7
:00000001FF
