S01A00006D6F6E61706F6C6C6F2D6669726D776172652E73726563AF
S11300000C9432000C944F000C944F000C944F004D
S11300100C944F000C9447010C944F000C944F0027
S11300200C944F000C944F000C944F000C944F0010
S11300300C944F000C9415010C944F000C944F0039
S11300400C944F000C944F000C944F000C944F00F0
S11300500C944F000C944F000C944F000C944F00E0
S11300600C944F0011241FBECFEFD0E1DEBFCDBFF3
S113007011E0A0E0B1E0E2EEF8E002C005900D92DC
S1130080AE34B107D9F711E0AEE4B1E001C01D927E
S1130090A337B107E1F70E94BE020C946F040C94DD
S11300A0000083B3836083BB8FEF8AB997B187B9AC
S11300B0E9EDF0E080818F608083EAEDF0E08081FB
S11300C0807F808384B3836084BBA198A19AA09825
S11300D0A09A08954BB958B9A098A09A62B900C0E3
S11300E0EAEDF0E0408121E030E0B90102C0660FA2
S11300F0771F8A95E2F7CB01942F982B908373E0B6
S11301007A95F1F700009081809589238083089582
S1130110CF93DF93CDB7DEB72A970FB6F894DEBF3F
S11301200FBECDBFDE011196E0E0F1E03AE00190B0
S11301300D923150E1F73FEF32B9EAEDF0E0308152
S11301403061308330813F7E308362B930813062E8
S1130150308330813F7D30836230F9F0633018F4AE
S11301606130A1F50DC0643029F1683079F56AE099
S113017070E00E945B04FE01E80FF91F218126C094
S113018064E670E00E945B046AE070E00E945B0435
S1130190FE01E60FF71F218119C068EE73E00E948B
S11301A05B0464E670E00E945B04FE01E60FF71F47
S11301B021810CC060E177E20E945B0468EE73E089
S11301C00E945B04FE01E60FF71F2181209522B9EE
S11301D0EAEDF0E080818061808380818F7E80837E
S11301E02A960FB6F894DEBF0FBECDBFDF91CF9134
S11301F0089587E28093C4001092C50088E9809333
S1130200C1000895EAE7F0E0808184608083ACE770
S1130210B0E08C9180648C93AEE7B0E08C91816007
S11302208C9380818068808308951F920F920FB60B
S11302300F9211248F939F938091C60090E0909326
S11302404D0180934C0180914C0190914D01929508
S113025082958F7089279F708927982F96959695F8
S11302609695913031F480FF02C0899A09C089982B
S113027007C080914C0190914D01009709F4899831
S11302809F918F910F900FBE0F901F9018951F9202
S11302900F920FB60F9211242F923F924F925F92BA
S11302A06F927F928F929F92AF92BF92CF92DF9282
S11302B0EF92FF920F931F932F933F934F935F936C
S11302C06F937F938F939F93AF93BF93CF93DF935A
S11302D0EF93FF9380914C0190914D012091640123
S11302E0EAE0F1E0E20FF11D60810E948800CC2475
S11302F0DD24C39400E010E00F2EFAEDEF2EFF246E
S1130300F02DCAE7D0E00F2EF8E78F2E9924F02DB8
S11303100F2EF9E74F2E5524F02D0F2EFCE22F2E31
S1130320F1E03F2EF02D05C00F5F1F4F0894C11C54
S1130330D11CF80102B9D7018C918F7B8C93BDE05D
S1130340BA95F1F70000888180648883888186FDEE
S1130350FDCFD7018C9180648C93D4018C9190E073
S11303609093610180936001D2012C91809160018E
S113037090916101B22EAA248A299B29909361014C
S113038080936001C80108978230910508F044C049
S1130390E930F10519F02FE938E102C025E03FE129
S11303A08091600190916101B2E080309B07D8F0A8
S11303B0EE0FFF1FE20DF31D81816081409160010A
S11303C05091610140505240420F531F0E946A00F5
S11303D080916001909161018050924090935F01FF
S11303E080935E012FC0EE0FFF1FE20DF31D81818C
S11303F06081409160015091610140505240420F30
S1130400531F0E946A008091600190916101909352
S11304105F0180935E0116C0EB30F10509F484CFCF
S1130420EE0FFF1FE20DF31D818160814091600199
S11304305091610142955295507F5427407F542733
S11304400E946A00E0E1CE16D1040CF46DCF00E006
S113045010E00F2EFAEDEF2EFF24F02DCAE7D0E0C6
S11304600F2EF8E7CF2EDD24F02D0F2EF9E7AF2E57
S1130470BB24F02D0F2EFEE08F2EF1E09F2EF02DE9
S1130480802F8F5F82B9D7018C918F778C93BDE0D9
S1130490BA95F1F70000888180648883888186FD9D
S11304A0FDCFF701808180688083D6018C9190E034
S11304B09093610180936001F50120818091600136
S11304C090916101722E6624862997299093610187
S11304D080936001F801EE0FFF1FE80DF91D818183
S11304E06081409160015091610142955295507F25
S11304F05427407F54270E946A000F5F1F4F0F301C
S1130500110509F0BDCFA198A19A80916501982F9A
S11305109F5F90936501853021F4109265010E94DC
S11305200C0380916401982F9F5F90936401833042
S113053011F410926401FF91EF91DF91CF91BF917B
S1130540AF919F918F917F916F915F914F913F9167
S11305502F911F910F91FF90EF90DF90CF90BF905C
S1130560AF909F908F907F906F905F904F903F904F
S11305702F900F900FBE0F901F90189580E885BFA5
S113058085BF279A819A0E94ED02A9EDB0E08C9173
S1130590806C8C93EAEDF0E08081806C808381B183
S11305A08FEF81B992B182B98C9180638C938081F1
S11305B08F7C808382980E9402010E9451000E94D5
S11305C0F900E0EBF0E0808186608083E0E7F0E012
S11305D08081816080837894FFCF84B1876284B9FD
S11305E0ECEDF0E080818C65808385B1897D85B9EF
S11305F0EDEDF0E08081837F808380E58CBD808198
S1130600877F80838081877F8083808188608083E7
S113061080818F7E808308950F931F93CF93DF9300
S11306202D9AC0916A0140916A0100916A018091FA
S11306306A01A0916A0160916A0120916A01909116
S11306406F019795992797958170982BCC1FCC278C
S1130650CC1FCC0FC92B4695469550E04170507085
S1130660CA01880F991F880F991F8C2B069510E0DB
S113067001701070E801CC0FDD1FCC0FDD1FCC0F13
S1130680DD1FC82BA295AF70B0E0A170B070FD0162
S1130690E295F295F07FFE27E07FFE27EC2B629532
S11306A06695677070E061707070AB01440F551F00
S11306B042955295507F5427407F54274E2B2295C4
S11306C026952695237030E021703070C9010024EE
S11306D0969587950794969587950794982F802DDE
S11306E0842B8EBD0DB407FEFDCF8EB580936C01B7
S11306F080916C0190916B01892780936C018091AA
S11307006B0190916C01892780936B0180916C013E
S113071090916B01892380936C0180916A0190917F
S11307206C01892780936A011EBC0DB407FEFDCFBE
S11307308EB582958695877080FF04C081E0809392
S1130740720102C0109272018EB5829586958695CB
S1130750837080FF04C081E08093710102C0109215
S113076071011EBC0DB407FEFDCF1EBC0DB407FE07
S1130770FDCF80917201909171019795992797957A
S1130780880F880F892B8EBD0DB407FEFDCFEDEDCC
S1130790F0E08081877F80838081886080832D98CA
S11307A08FB180936D0180916D0190916E018927C5
S11307B080936D0180916E0190916D0189278093E2
S11307C06E0180916D0190916E01892380936D017A
S11307D080916D0182FF06C090916F0181E08927AD
S11307E080936F01EDEDF0E080818F7B80834091F9
S11307F06A0130916A01C0916A0100916A016091B5
S11308006A01A0916A0120916A0180916F01829529
S1130810807F369536953170382B10E0017010705A
S1130820C801880F991F832BA295A695A770A79539
S1130830AA27A7958A2B441F4427441F440F440F1B
S1130840440F482BC695D0E0C170D070DE01AA0FCA
S1130850BB1FAA0FBB1FA42B62956F7070E0617061
S11308607070AB01002456954795079456954795AB
S11308700794542F402D4A2B2295269526952370B4
S113088030E021703070C901880F991F82959295CC
S1130890907F9827807F9827842B82B980818064F9
S11308A08083000080818F7B808312B8DF91CF9199
S11308B01F910F910895AA1BBB1B51E107C0AA1FEA
S11308C0BB1FA617B70710F0A61BB70B881F991FED
S11308D05A95A9F780959095BC01CD010895F89497
S10508E0FFCF44
S11308E2D711CD5D1B5EDE15DF5F08010204020233
S11308F207020602030200020102050001030703C4
S113090200030603020304030303050306010701AC
S113091200010000030007000200060005010400B4
S1110922010000000301050204020401EB02BF
S9030000FC
