:100000000C9432000C944F000C944F000C944F0051
:100010000C944F000C940B020C944F000C944F0066
:100020000C944F000C94B1010C9467010C944F0098
:100030000C944F000C94D6010C944F000C944F007C
:100040000C944F000C944F000C944F000C944F00F4
:100050000C944F000C944F000C944F000C944F00E4
:100060000C944F0011241FBECFEFD0E1DEBFCDBFF7
:1000700011E0A0E0B1E0ECEDF0E202C005900D92DD
:10008000A03BB107D9F714E0A0EBB1E001C01D928D
:10009000A33CB107E1F70E9415020C946C100C947C
:1000A0000000EAE7F0E0808184608083ACE7B0E0A4
:1000B0008C9180648C93AEE7B0E08C9181608C93DE
:1000C000808180688083089562B9EAEDF0E0408124
:1000D00021E030E0B90102C0660F771F8A95E2F790
:1000E000CB01262F2095422340837DE07A95F1F7BE
:1000F0000000EAE7F0E0208120642083208126FDD3
:10010000FDCFEAEDF0E09081892B8083809178002B
:1001100090E040917900342F20E0822B932B0895BA
:10012000DC016BB978B9A098A09A8C9182B98DE066
:100130008A95F1F70000EAEDF0E0408121E030E03F
:10014000C90111960C90119702C0880F991F0A944B
:10015000E2F7842B808382E48A95F1F700C08081E6
:1001600011960C90119702C0220F331F0A94E2F7E8
:10017000209528232083089583B3836083BB8FEF6A
:100180008AB997B187B9E9EDF0E080818F6080830B
:10019000EAEDF0E08081807F808384B3836084BB5C
:1001A000A198A19AA098A09A08954BB958B9A0987F
:1001B000A09A62B92DE02A95F1F70000EAEDF0E08F
:1001C000408121E030E0B90102C0660F771F8A95B7
:1001D000E2F7CB01942F982B908372E47A95F1F794
:1001E00000C090818095892380830895CF93DF9309
:1001F000CDB7DEB72A970FB6F894DEBF0FBECDBFDE
:10020000DE011196EEE3F1E03AE001900D923150FB
:10021000E1F73FEF32B9EAEDF0E030813061308351
:1002200030813F7E308362B93081306230833081EB
:100230003F7D30836230F9F0633018F46130A1F50E
:100240000DC0643029F1683079F56AE070E00E94F1
:100250003C10FE01E80FF91F218126C064E670E022
:100260000E943C106AE070E00E943C10FE01E60F24
:10027000F71F218119C068EE73E00E943C1064E60C
:1002800070E00E943C10FE01E60FF71F21810CC0B8
:1002900060E177E20E943C1068EE73E00E943C103F
:1002A000FE01E60FF71F2181209522B9EAEDF0E06B
:1002B00080818061808380818F7E80832A960FB6C3
:1002C000F894DEBF0FBECDBFDF91CF9108951F928E
:1002D0000F920FB60F9211248F939F93EF93FF937A
:1002E0008091D403815087BD85B1805885B98091B4
:1002F000D5038823A1F41092D20381E08093AE014C
:100300008093D503E1E8F0E080819091D303892BBD
:100310008083EFE6F0E080818160808319C0E4E8AB
:10032000F0E0808191819093D1038093D0038091FC
:10033000D0039091D10390934D0180934C01109282
:10034000810081E08093D2031092D5031182108244
:10035000FF91EF919F918F910F900FBE0F901F9083
:1003600018951F920F920FB60F9211241092AE01A2
:100370000F900FBE0F901F901895842F90E09093D0
:100380004D0180934C014093B601222311F48998CA
:100390000895899A08958998089587E28093C40002
:1003A0001092C50088E98093C10008951F920F92B2
:1003B0000FB60F9211242F933F934F935F936F9338
:1003C0007F938F939F93AF93BF93EF93FF93CF93BD
:1003D000DF930F92CDB7DEB78091C600898386ED9B
:1003E00093E061E0AE014F5F5F4F0E94380C0F90C9
:1003F000DF91CF91FF91EF91BF91AF919F918F913D
:100400007F916F915F914F913F912F910F900FBE10
:100410000F901F9018951F920F920FB60F921124F4
:100420000F900FBE0F901F90189580E885BF85BF75
:10043000279A819A9A9AA29A0E945E03A9EDB0E047
:100440008C91806C8C93EAEDF0E08081806C8083ED
:1004500081B18FEF81B992B182B98C9180638C9315
:1004600080818F7C808382980E9451000E94BC0012
:10047000C6EDD3E0CE010E94070CCE016DEB71E01A
:100480000E94CF0BCE016BEC71E00E94D30B0E9457
:10049000CD010E947D03789480E00E94E704909350
:1004A000CF038093CE0381E00E94E7049093CD03B5
:1004B0008093CC038091CE039091CF0390934D0114
:1004C00080934C0181E00E947F0682E00E947F06BB
:1004D00083E00E947F0684E00E947F0685E00E9400
:1004E0007F0686E00E947F0687E00E947F068E01DD
:1004F000C8E4D1E0C8010E94620E80914C01909145
:100500004D012091B401FE01E20FF11D60810E94B6
:10051000F6000E94A2028091B501982F9F5F9093F0
:10052000B501853021F41092B5010E947D038091C0
:10053000B401982F9F5F9093B4018330D9F6109245
:10054000B401D8CFEF92FF920F931F93CF93DF9315
:100550000CE611E0EE24FF24E394C0E0D0E006C0F6
:1005600021960894E11CF11C0E5F1F4F86E06C2F52
:100570000E9464009093BA018093B901CE0108975C
:100580008230910508F041C02091CC033091CD0319
:10059000C930D10521F42091CE033091CF03809151
:1005A000B9019091BA0142E080309407C0F06091A7
:1005B000B9017091BA0160507240620F731FF80167
:1005C000808191810E9490008091B9019091BA013F
:1005D000805092409093B8018093B70129C06091F8
:1005E000B9017091BA0160507240620F731FF80137
:1005F000808191810E9490008091B9019091BA010F
:100600009093B8018093B70113C0CB30D10509F4A2
:10061000A7CF6091B9017091BA0162957295707F10
:100620007627607F7627F801808191810E94900073
:10063000F0E1EF16F1040CF493CF0EE411E0C1E009
:1006400087E06C2F0E9464009093BA018093B901F7
:100650006091B9017091BA0162957295707F7627A9
:10066000607F7627F801819191918F010E9490001F
:10067000CF5FC03129F7E091B601F0E0EE0FFF1F28
:10068000E453FD4F608171818CE391E00E94900002
:10069000E091B601F0E0EE0FFF1FE453FE4F6081E2
:1006A00071818AE391E00E949000A198A19ADF9164
:1006B000CF911F910F91FF90EF90089584B18762C1
:1006C00084B9ECEDF0E080818C65808385B1897D13
:1006D00085B9EDEDF0E08081837F808380E58CBD7E
:1006E0008081877F80838081877F8083808188600D
:1006F000808380818F7E808308950F931F93CF9393
:10070000DF932D9AC091C1014091C1010091C101B7
:100710008091C101A091C1016091C1012091C101ED
:100720009091C6019795992797958170982BCC1F2A
:10073000CC27CC1FCC0FC92B4695469550E0417075
:100740005070CA01880F991F880F991F8C2B06952E
:1007500010E001701070E801CC0FDD1FCC0FDD1F21
:10076000CC0FDD1FC82BA295AF70B0E0A170B070A8
:10077000FD01E295F295F07FFE27E07FFE27EC2B4E
:1007800062956695677070E061707070AB01440FA0
:10079000551F42955295507F5427407F54274E2B2A
:1007A000229526952695237030E021703070C9017E
:1007B0000024969587950794969587950794982F8A
:1007C000802D842B8EBD0DB407FEFDCF8EB580939A
:1007D000C3018091C3019091C20189278093C30115
:1007E0008091C2019091C30189278093C2018091B9
:1007F000C3019091C20189238093C3018091C101FB
:100800009091C30189278093C1011EBC0DB407FEDE
:10081000FDCF8EB58093C0018091C00182958695F1
:10082000877081708093C9018091C00182958695FF
:100830008695837081708093C8011EBC0DB407FE3D
:10084000FDCF1EBC0DB407FEFDCF2091C9018091E4
:10085000CA019091CB01220F220F87958827879597
:10086000822B892B8EBD0DB407FEFDCFEDEDF0E0A0
:100870008081877F80838081886080832D988FB17D
:100880008093C4018091C4019091C5018927809310
:10089000C4018091C5019091C40189278093C5014D
:1008A0008091C4019091C50189238093C4018091F6
:1008B000C40182FF06C09091C60181E08927809320
:1008C000C6018091C40184FF06C09091CA0181E0F5
:1008D00089278093CA018091C40183FF06C090914B
:1008E000CB0181E089278093CB01EDEDF0E08081A1
:1008F0008F7B80834091C1013091C101C091C101C2
:100900000091C1016091C101A091C1012091C1017B
:100910008091C6018295807F369536953170382B4F
:1009200010E001701070C801880F991F832BA295E9
:10093000A695A770A795AA27A7958A2B441F442799
:10094000441F440F440F440F482BC695D0E0C1709C
:10095000D070DE01AA0FBB1FAA0FBB1FA42B62958C
:100960006F7070E061707070AB0100245695479510
:100970000794569547950794542F402D4A2B22955E
:1009800026952695237030E021703070C901880FBC
:10099000991F82959295907F9827807F9827842B26
:1009A00082B9808180648083000080818F7B808316
:1009B00012B890818091CB0120818195822780712E
:1009C00089278083DF91CF911F910F9108952F92F6
:1009D0003F924F925F926F927F928F929F92AF92CF
:1009E000BF92CF92DF92EF92FF920F931F93CF931C
:1009F000DF9300D000D000D0CDB7DEB7082F282F6E
:100A000030E0C901019668E00E94F6008091D303AE
:100A100083608093D30380E291E060E070E00E9405
:100A2000900082E391E060E070E00E94900084E337
:100A300091E060E070E00E94900082EB91E060E065
:100A400070E00E94900084E291E060E070E00E941B
:100A500090008EE291E060E070E00E94900080E300
:100A600091E060E070E00E94900082E191E060E03F
:100A700070E00E9490008CE191E060E070E00E94E4
:100A8000900084E191E060E070E00E94900086E1D7
:100A900091E060E070E00E94900088E191E06FEFEB
:100AA0007FE30E9490008AE191E060E070E00E94A4
:100AB000900082E291E060E070E00E9490008CE0A3
:100AC00091E060E070E00E94900088E091E060E0DA
:100AD00070E00E94900084E091E06FEF7FE30E945D
:100AE000900080E091E060E070E00E94900080E182
:100AF00091E060E070E00E9490001092D203002329
:100B0000B1F40F2EFCE36F2EF1E07F2EF02D0F2EAF
:100B1000FCE24F2EF1E05F2EF02D0F2EF6E32F2E8C
:100B2000F1E03F2EF02D08E211E082E015C00F2E1B
:100B3000FAE36F2EF1E07F2EF02D0F2EFEE14F2E07
:100B4000F1E05F2EF02D0F2EF8E32F2EF1E03F2E77
:100B5000F02D0AE211E080E282B9EDEDF0E0808153
:100B60008064808380818F7B808312B8899A84B56A
:100B70008F6084BD81E087BDEEE6F0E090819260F9
:100B800090838093D4032DE030E03A8329831E8242
:100B90001D820F2EF0E2EF2EF1E0FF2EF02D0F2E32
:100BA000F8E1CF2EF1E0DF2EF02D0F2EF4E0AF2E86
:100BB000F1E0BF2EF02D0F2EF6E08F2EF1E09F2EEC
:100BC000F02D81E090E0098002C0880F991F0A94FF
:100BD000E2F79C838B83ED81FE81E82BF92BFE836A
:100BE000ED83C801BF010E9490001092D2031092C1
:100BF000D5038091D203882361F5C8016D817E8180
:100C00000E949000C2016FEF7FE30E949000C70135
:100C100060E070E00E949000C6016FEF7FE30E94E9
:100C20009000C5016FEF7FE30E949000C4016FEF59
:100C30007FE30E949000C1016FEF7FE30E9490006C
:100C4000C30160E070E00E9490008091D20388238D
:100C5000A1F28091D0039091D103FAE4873A9F07E3
:100C600020F48091AE01882351F48B819C81809582
:100C700090952D813E81282339233E832D8331E0B9
:100C80003093AE0189819A8101979A838983EFEF2E
:100C90008F3F9E0709F095CF80E091E060E070E023
:100CA0000E94900082E091E060E070E00E9490007D
:100CB00088E191E060E070E00E9490008998EEE6A3
:100CC000F0E080818D7F80838D819E8126960FB696
:100CD000F894DEBF0FBECDBFDF91CF911F910F9172
:100CE000FF90EF90DF90CF90BF90AF909F908F904C
:100CF0007F906F905F904F903F902F9008952F922C
:100D00003F924F925F926F927F928F929F92AF929B
:100D1000BF92CF92DF92EF92FF920F931F93CF93E8
:100D2000DF93CDB7DEB7E2970FB6F894DEBF0FBE04
:100D3000CDBFE82E90E068E00E94F600DE0111963B
:100D4000ECE8F1E088E101900D928150E1F7DE01DD
:100D50005996E4EAF1E08AE001900D928150E1F7C2
:100D60000E2D10E0FE01E00FF11F818D8093D40362
:100D700080E291E060E070E00E94900082E391E008
:100D800060E070E00E94900084E391E060E070E039
:100D90000E94900082EB91E060E070E00E94900081
:100DA00084E291E060E070E00E9490008EE291E0C9
:100DB00060E070E00E94900080E391E060E070E00D
:100DC0000E94900082E191E060E070E00E9490005B
:100DD0008CE191E060E070E00E94900084E191E09D
:100DE00060E070E00E94900086E191E060E070E0D9
:100DF0000E94900088E191E06FEF7FE30E949000F5
:100E00008AE191E060E070E00E94900082E291E06F
:100E100060E070E00E9490008CE091E060E070E0A3
:100E20000E94900088E091E060E070E00E949000F5
:100E300084E091E06FEF7FE30E94900080E091E01A
:100E400060E070E00E94900080E191E060E070E07E
:100E50000E94900022E02E1520F083E08093D303BF
:100E600003C082E08093D3036091CE037091CF03DF
:100E700088E291E00E94900082E082B9EDEDF0E01E
:100E800080818064808380818F7B808312B8899A7F
:100E900084B58F6084BD81E087BDEEE6F0E080819F
:100EA00082608083C801880F991F080F191FC8012D
:100EB000880F991F880F991F9AAB89ABFE01319655
:100EC000FEA7EDA7880F991F9C0124533D4F38AB17
:100ED0002FA7CE0149969CA38BA3FCA7EBA70F2EAF
:100EE000FCE3CF2EF1E0DF2EF02D0F2EF8E26F2E77
:100EF000F1E07F2EF02D0F2EFCE24F2EF1E05F2E61
:100F0000F02D0F2EF0E22F2EF1E03F2EF02DEBA56D
:100F1000FCA521913191FCA7EBA73AA729A78DE069
:100F200090E09EA38DA3EE24FF240F2EF4E0AF2EBD
:100F3000F1E0BF2EF02D0F2EF6E08F2EF1E09F2E68
:100F4000F02D81E090E0FC010DA002C0EE0FFF1F2C
:100F50000A94E2F7F8A7EFA3EE2AFF2AC601B70129
:100F60000E9490001092D2031092D5038091D20378
:100F7000882381F506E311E0C601B7010E949000C5
:100F80006091CE037091CF03C3010E949000C20113
:100F90006FEF7FE30E949000C10160E070E00E946B
:100FA000900088E191E06FEF7FE30E949000C5011F
:100FB0006FEF7FE30E949000C4016FEF7FE30E9418
:100FC0009000C8016FEF7FE30E9490008091D203F0
:100FD000882391F28091D0039091D10329A53AA55D
:100FE0002817390750F08091AE01813031F48FA17C
:100FF00098A580959095E822F92281E08093AE0132
:101000008DA19EA101979EA38DA3EFEF8F3F9E0719
:1010100009F097CFEFA5F8A9E192F192F8ABEFA70D
:101020002BA53CA58BA19CA12817390709F06FCFF0
:101030000EE610E0F80180818D7F808380E291E0F0
:1010400060E070E00E94900082E391E060E070E078
:101050000E94900084E391E060E070E00E949000C4
:1010600082EB91E060E070E00E94900084E291E009
:1010700060E070E00E9490008EE291E060E070E03D
:101080000E94900080E391E060E070E00E94900098
:1010900082E191E060E070E00E9490008CE191E0DC
:1010A00060E070E00E94900084E191E060E070E018
:1010B0000E94900086E191E060E070E00E94900064
:1010C00088E191E06FEF7FE30E9490008AE191E078
:1010D00060E070E00E94900082E291E060E070E0E9
:1010E0000E9490008CE091E060E070E00E9490002F
:1010F00088E091E060E070E00E94900084E091E080
:101100006FEF7FE30E94900080E091E060E070E08C
:101110000E94900080E191E060E070E00E94900009
:1011200086E391E060E070E00E9490006091CC0363
:101130007091CD038AE291E00E94900080E282B932
:10114000EDEDF0E080818064808380818F7B8083FF
:1011500012B8899A81E087BDF8018081826080831E
:1011600089A99AA9880F991F9C0124533E4F3CA737
:101170002BA70F2EFAE3CF2EF1E0DF2EF02D0F2E4E
:10118000FAE26F2EF1E07F2EF02D0F2EFEE14F2EB2
:10119000F1E05F2EF02D0F2EF0E22F2EF1E03F2E2A
:1011A000F02DEDA5FEA521913191FEA7EDA73AA75F
:1011B00029A78DE090E09EA38DA3EE24FF240F2E9F
:1011C000F4E0AF2EF1E0BF2EF02D0F2EF6E08F2EC3
:1011D000F1E09F2EF02D81E090E0FC010DA002C017
:1011E000EE0FFF1F0A94E2F7F8A7EFA3EE2AFF2AFB
:1011F000C601B7010E9490001092D2031092D5034D
:101200008091D203882381F508E311E0C601B7017C
:101210000E9490006091CC037091CD03C3010E94A5
:101220009000C2016FEF7FE30E949000C10160E077
:1012300070E00E94900088E191E06FEF7FE30E94F0
:101240009000C5016FEF7FE30E949000C4016FEF33
:101250007FE30E949000C8016FEF7FE30E9490003F
:101260008091D203882391F28091D0039091D10391
:1012700029A53AA52817390750F08091AE01813091
:1012800031F48FA198A580959095E822F92281E00C
:101290008093AE018DA19EA101979EA38DA3EFEF38
:1012A0008F3F9E0709F097CFEBA5FCA5E192F19245
:1012B000FCA7EBA72BA13CA18DA59EA5281739075C
:1012C00009F06FCF8998EEE6F0E080818D7F808312
:1012D000E2960FB6F894DEBF0FBECDBFDF91CF917F
:1012E0001F910F91FF90EF90DF90CF90BF90AF9044
:1012F0009F908F907F906F905F904F903F902F9036
:101300000895FC01428374836383118210820895DF
:101310001F93CF93DF93EC01162F0E94F709282F1C
:101320003981832F90E001966A8170E00E9450100D
:10133000488150E08417950729F4822F0E94FA090A
:1013400080E011C0EB81FC81E30FF11D10838981E6
:1013500090E001966A8170E00E9450108983822F8C
:101360000E94FA0981E0DF91CF911F910895CF93F8
:10137000DF93EC010E94F70929819881291718F061
:10138000C22FC91B03C0CA81C20FC91B0E94FA0920
:101390008C2FDF91CF910895FC012081862F90E062
:1013A000820F911D628170E00E9450100380F481D1
:1013B000E02DE80FF91F808108951F93CF93DF93ED
:1013C000EC01162F0E94F709482F8881212F30E069
:1013D000280F311D6A81C90170E00E945010888376
:1013E000842F0E94FA09DF91CF911F9108958FB742
:1013F000F89408958FBF0895881F8827881F08953F
:1014000091E0883F08F490E0892F0895282F30E07C
:10141000207F3070203C3105E9F1213C31058CF40E
:1014200020393105E1F02139310524F42038310526
:1014300079F515C0203A310591F0203B310541F591
:101440000EC0203E310559F0213E310524F4203DE7
:101450003105F1F41FC0203F3105D1F402C083E013
:101460000895863F79F0873F38F4823FA9F0833FA3
:1014700059F0813F59F408C0883F40F08D3F10F08B
:101480008E3F20F081E0089582E0089580E0089585
:1014900080E0089582E0089583E008950F93342F4B
:1014A000022F462F4F70406B232F2F770F77DC01D1
:1014B000ED91FC9163E070E009950F9108950F9311
:1014C000342F022F462F4F704069232F2F770F772D
:1014D000DC01ED91FC9163E070E009950F910895B6
:1014E0000F93342F022F462F4F704068232F2F77F2
:1014F0000F77DC01ED91FC9163E070E009950F91AD
:1015000008950F93342F022F462F4F70406A232FD8
:101510002F770F77DC01ED91FC9163E070E0099586
:101520000F9108950F931F9320E24030520744F427
:10153000A0EE40305A073CF08A010050104E05C022
:101540000FEF1FE302C000E010E0462F4F70406E27
:10155000202F2F77000F012F001F110B11950F77F0
:10156000DC01ED91FC9163E070E009951F910F9112
:1015700008950F93242F462F4F70406C2F77DC0176
:10158000ED91FC9162E070E000E009950F91089503
:101590000F93242F462F4F70406D2F77DC01ED9174
:1015A000FC9162E070E000E009950F9108950F93BF
:1015B000DC01ED91FC9161E070E048EF20E000E09B
:1015C00009950F9108950F93DC01ED91FC9161E075
:1015D00070E049EF20E000E009950F9108950F9326
:1015E000DC01ED91FC9161E070E04AEF20E000E069
:1015F00009950F9108950F93DC01ED91FC9161E045
:1016000070E04BEF20E000E009950F9108950F93F3
:10161000DC01ED91FC9161E070E04CEF20E000E036
:1016200009950F9108950F93DC01ED91FC9161E014
:1016300070E04EEF20E000E009950F9108950F93C0
:10164000DC01ED91FC9161E070E04FEF20E000E003
:1016500009950F9108950F93262F2F77DC01ED91B7
:10166000FC9162E070E041EF00E009950F91089570
:101670000F931F93262F2F778B01000F012F001F31
:10168000110B11950F77DC01ED91FC9163E070E097
:1016900042EF09951F910F9108950F93262F2F77F1
:1016A000DC01ED91FC9162E070E043EF00E0099510
:1016B0000F9108950F93DC01ED91FC9161E070E0D2
:1016C00046EF20E000E009950F9108950F93462F13
:1016D000DC01ED91FC9161E070E020E000E0099513
:1016E0000F9108950F93DC01ED91FC9109950F91F5
:1016F00008956F927F928F929F92AF92BF92CF92F6
:10170000DF92EF92FF920F931F93CF93DF9300D05E
:101710000F92CDB7DEB74C016B015A01611571050F
:1017200041F1EE24FF240F2EF3E06F2E7724F02DED
:1017300019821A821B8286010E191F0904301105B5
:1017400008F08301B5016E0D7F1DCE010196402F7B
:10175000512F0E946310C401B80149812A810B8175
:101760000E94720B83E090E0E80EF91EEC14FD0479
:10177000F8F20F900F900F90DF91CF911F910F9182
:10178000FF90EF90DF90CF90BF90AF909F908F90A1
:101790007F906F900895FC01738362830895FC012C
:1017A000758364830895FC01778366830895FC0143
:1017B000718760870895FC01738762870895FC0133
:1017C000758764870895FC01778766870895FC0113
:1017D000718B608B0895FC01738B628B0895FC0103
:1017E000758B648B0895FC01778B668B0895FC01E3
:1017F000718F608F0895FC01738F628F0895FC01D3
:10180000758F648F0895FC01778F668F0895CF934D
:10181000DF93EC011DA21FA21EA2BC01685D7F4FD9
:1018200088519F4F40EC0E9481091B821A821D82C1
:101830001C821F821E82198618861B861A861D86A8
:101840001C861F861E86198A188A1B8A1A8A1D8A78
:101850001C8A1F8A1E8A198E188E1B8E1A8E1D8E48
:101860001C8E1F8E1E8E19A218A2DF91CF91089593
:10187000EF92FF920F931F93CF93DF93D62F6623A0
:1018800099F0042F152FC0E00F2EF8EEEF2EFF2455
:10189000F02DE80EF91EF80161918F01C7010E9439
:1018A0008809CF5FCD17B9F7DF91CF911F910F91C5
:1018B000FF90EF900895FC01718360830895FC010F
:1018C00071A360A30895AF92BF92CF92DF92EF927F
:1018D000FF920F931F93CF93DF9300D00F92CDB75A
:1018E000DEB76C015B01F42EE22E102FDC01959621
:1018F0008C9195978430E9F45A96ED91FC915B9721
:10190000309709F4EEC0CB01019763E070E00E94CC
:101910003C10CB01880F991F680F791F49832A83D8
:101920000B834A2D461BC6019E012F5F3F4F099531
:10193000C8C06230710509F45FC06330710529F0D9
:101940006130710509F0B3C099C0842F90E0807FA9
:101950009070803A910529F1813A91053CF48038E4
:101960009105C9F08039910591F50FC0803E910530
:10197000F1F0803F910509F1803B910541F5D601D9
:101980001296ED91FC91139724C0D6011496ED9117
:10199000FC9115971EC0D6011696ED91FC911797F4
:1019A00018C0D6011896ED91FC91199712C0D60176
:1019B0001A96ED91FC911B970CC0B2EF4B1709F0F2
:1019C00090C0D6011C96ED91FC911D9702C0E0E0FD
:1019D000F0E0309709F485C0B2EFFB1631F4C60190
:1019E00062EF4E2D212F09956CC06F2D6F70C601CF
:1019F0004E2D212F099565C0842F90E0807F907037
:101A0000803D910561F0803F910579F0803C910522
:101A1000F9F4D6011E96ED91FC911F971BC0D601DB
:101A20005096ED91FC91519715C0B3EF4B1731F4DF
:101A3000D6015296ED91FC9153970CC0B1EF4B1724
:101A400009F04FC0D6015496ED91FC91559702C014
:101A5000E0E0F0E0309709F444C0B3EFFB1619F072
:101A600081EFF81629F4C6016F2D4E2D099529C076
:101A70006F2D6F70C6014E2D099523C0842F0E94D3
:101A8000000A882331F0D6015696ED91FC915797C4
:101A900008C0B6EFFB1629F5D6015896ED91FC91DA
:101AA00059973097F1F0C6016F2D09950AC064303F
:101AB0007105A8F416C0C601B5014F2D2E2D012FBA
:101AC0000995D6015E96ED91FC915F97309789F06C
:101AD000C601B5014F2D2E2D012F09950AC0AA244C
:101AE000BB24D6015C96ED91FC915D97309719F778
:101AF000E8CF0F900F900F90DF91CF911F910F9132
:101B0000FF90EF90DF90CF90BF90AF900895EF924D
:101B1000FF920F93CF93DF937C01C62F862F0E94F5
:101B2000000A882391F0D7019596DC91959781E082
:101B300095968C93C70161E070E04C2F20E000E0A7
:101B40000E94630CF701D5A3B7C08C2F0E94FC093B
:101B5000882309F473C0D70195968C9195978430AA
:101B600049F09296CC93929781E090E097969C935F
:101B70008E9396978C2F0E94060A813041F0813017
:101B800000F18230A1F0833009F04FC014C081E031
:101B9000F70185A3C70161E070E04C2F20E000E071
:101BA0000E94630CD70195961C92959785C082E0A0
:101BB000F70185A381C083E0D70195968C93959713
:101BC0007BC0C03F19F0C73F59F50AC084E0F70158
:101BD00085A380EF82A381E090E097A386A36CC0E9
:101BE000D70196962D913C919797C90163E070E0DB
:101BF0000E943C10F701E80FF91F87EF82A3B9019B
:101C00006F5F7F4FF70177A366A3C70142A123A1AE
:101C100004A10E94630CD70195961C9295974CC025
:101C2000F70115A217A216A247C0D70195961C92DC
:101C3000959797961C921E9296973EC0F70125A104
:101C40002223D1F106A0F7A1E02DCF0163E070E0DF
:101C50000E943C10AC018E0D9F1DDC019296CC932E
:101C60009297BF016F5F7F4FF70177A366A3413063
:101C7000510591F042305105F9F4C70142A123A169
:101C800004A10E94630CF70185A18430A9F081E0D2
:101C900090E097A386A310C0223071F4C70142A13F
:101CA00023A100E00E94630CF70185A1843021F09C
:101CB00081E090E097A386A3DF91CF910F91FF90F1
:101CC000EF900895CF92DF92EF92FF920F931F93C0
:101CD000CF93DF936C01DC019096ED91FC9191978D
:101CE000309709F009950F2EF8EEEF2EFF24F02D16
:101CF000EC0CFD1CC7010E94B709C82FD0E020974B
:101D000099F000E010E0C70160E00E94CC09682F64
:101D1000C6010E94870DC70161E00E94DD090F5FC7
:101D20001F4F0C171D0778F3DF91CF911F910F9173
:101D3000FF90EF90DF90CF9008959C0167E070E0F6
:101D40000E943C10482F882381F0C90167E070E0B1
:101D50000E943C10CB01880F991F880F991F880F94
:101D6000991F0196840F911D0895C90167E070E0E5
:101D70000E943C10CB01880F991F880F991F880F74
:101D8000991F0895482F4770A1F09C01369527951B
:101D90003695279536952795C901880F991F880F85
:101DA000991F880F991F821B930B0197840F911D18
:101DB00008959C0136952795369527953695279554
:101DC000C901880F991F880F991F880F991F821BBF
:101DD000930B08952F923F924F925F926F927F9252
:101DE0008F929F92AF92BF92CF92DF92EF92FF922B
:101DF0000F931F93CF93DF9300D000D000D0CDB7C7
:101E0000DEB71C017A8369833A01CA0167E070E09A
:101E10000E943C102B015B0161157105B1F181013C
:101E2000E980FA80CC24DD24882499241E830D8344
:101E3000F8011192FC82EB82A401AB81BC812D914F
:101E4000BC83AB834F5F5F4F822F90E080789070B0
:101E5000BC01042E02C0759567950A94E2F7AD8126
:101E6000BE818C91862B8C932F772193473051051F
:101E700021F70894C11CD11C085F1F4FE7E0F0E078
:101E8000EE0EFF1ECA14DB0489F6C30167E070E0A2
:101E90000E943C108823D9F18201000F111F000F0E
:101EA000111F000F111F7801E418F508D101A00FD0
:101EB000B11F1C92682F70E06115710519F1E9815D
:101EC000FA81EE0EFF1EC8010196280E391E20E091
:101ED00030E0F70141917F012F5F3F4F842F90E069
:101EE00080789070022E02C0959587950A94E2F74B
:101EF0009C91892B8C934F77F10141931F012617F9
:101F0000370738F3C8010196860F971F07C0C20133
:101F1000880F991F880F991F880F991F26960FB653
:101F2000F894DEBF0FBECDBFDF91CF911F910F910F
:101F3000FF90EF90DF90CF90BF90AF909F908F90E9
:101F40007F906F905F904F903F902F9008956F9289
:101F50007F928F929F92AF92BF92CF92DF92EF9239
:101F6000FF920F931F93CF93DF933C014B015A01D4
:101F70004230510508F46FC07A01F694E794F69464
:101F8000E794F694E794E114F10429F1EB01B3012D
:101F900000E010E0CC24DD24DE011196FB01A60157
:101FA0002D912F7720834F5F5F4F888190E0042E23
:101FB00002C0880F991F0A94E2F78078282B21939A
:101FC0004730510569F70F5F1F4F2896695F7F4FB4
:101FD0000E151F0509F75A2D577099F1E701CC0F1F
:101FE000DD1FCC0FDD1FCC0FDD1F8E010E191F0969
:101FF000652F70E061507040F9F0CE010196D40178
:10200000A80FB91FF301E00FF11F20E030E0C80D69
:10201000D91D4D914F7740832F5F3F4F888190E0CE
:10202000022E02C0880F991F0A94E2F78078482B8D
:1020300041932617370768F3C8010197850F911D53
:102040000CC0C701880F991F880F991F880F991F0F
:102050008E199F0902C080E090E0DF91CF911F911F
:102060000F91FF90EF90DF90CF90BF90AF909F9037
:102070008F907F906F900895AA1BBB1B51E107C002
:10208000AA1FBB1FA617B70710F0A61BB70B881F08
:10209000991F5A95A9F780959095BC01CD01089597
:1020A00097FB092E07260AD077FD04D0E5DF06D07E
:1020B00000201AF4709561957F4F0895F6F790957A
:1020C00081959F4F0895FB01DC0102C001900D92A4
:0C20D00041505040D8F70895F894FFCF1D
:1020DC0005030303040302030603000307030103C0
:1020EC0005000102000203020602070202020401BB
:1020FC0004020502030101000400050106000200B0
:10210C000700030000010701060101010201D711BC
:10211C00CD5D1B5EDE15DF5F080102044F001C0164
:10212C001A01180116011401120110010E010C0103
:10213C000A010801060104010201000138013601FF
:10214C003401B201320130012E012C012A01280187
:10215C002601B0012401220120011E014F95ED8CB6
:10216C0004858D7D8176DB6F9369A7630F5EC758FD
:10217C00CC53184F01020401020408102020010066
:00000001FF
