S01A00006D6F6E61706F6C6C6F2D6669726D776172652E73726563AF
S11300000C9432000C944F000C944F000C944F004D
S11300100C944F000C944F000C944F000C944F0020
S11300200C944F000C9436020C94E8010C944F008D
S11300300C944F000C9475020C944F000C944F00D8
S11300400C944F000C944F000C944F000C944F00F0
S11300500C944F000C944F000C944F000C944F00E0
S11300600C944F0011241FBECFEFD0E1DEBFCDBFF3
S113007011E0A0E0B1E0E8E4F5E202C005900D92E1
S1130080AC3EB107D9F713E0ACEEB1E001C01D926C
S1130090A138B107E1F70E94AA020C94A2120C94B1
S11300A00000EAE7F0E0808184608083ACE7B0E0A0
S11300B08C9180648C93AEE7B0E08C9181608C93DA
S11300C0808180688083089562B9EAEDF0E0408120
S11300D021E030E0B90102C0660F771F8A95E2F78C
S11300E0CB01262F2095422340837DE07A95F1F7BA
S11300F00000EAE7F0E0208120642083208126FDCF
S1130100FDCFEAEDF0E09081892B80838091780027
S113011090E040917900342F20E0822B932B0895B6
S11301208091EC0108950F931F93CF93DF93182FC1
S1130130062F82E091E0EC012297BE014EE050E0F0
S11301400E949012188309831093EC01DF91CF91E0
S11301501F910F910895CF93C0910001C81741F0EA
S1130160E2E0F1E041E050E09081981759F402C0D8
S113017040E050E0FA01EE0FFF1FE050FF4F8FEF19
S1130180808307C04F5F5F4F32964830510561F757
S113019040E050E0CA01880F991FBC016E5F7E4F9A
S11301A040955095485F5F4F440F551F80509F4FB7
S11301B00E9490128FEF80930E01809100018F3F77
S11301C019F4C093EC0102C08093EC01CF9108951F
S11301D0DC016BB978B9A098A09A8C9182B98DE0B2
S11301E08A95F1F70000EAEDF0E0408121E030E08B
S11301F0C90111960C90119702C0880F991F0A9497
S1130200E2F7842B808382E48A95F1F700C0808131
S113021011960C90119702C0220F331F0A94E2F733
S1130220209528232083089583B3836083BB8FEFB5
S11302308AB997B187B9E9EDF0E080818F60808356
S1130240EAEDF0E08081807F808384B3836084BBA7
S1130250A198A19AA098A09A08954BB958B9A098CA
S1130260A09A62B92DE02A95F1F70000EAEDF0E0DA
S1130270408121E030E0B90102C0660F771F8A9502
S1130280E2F7CB01942F982B908372E47A95F1F7DF
S113029000C090818095892380830895CF93DF9354
S11302A0CDB7DEB72A970FB6F894DEBF0FBECDBF29
S11302B0DE011196EEE4F1E03AE001900D92315046
S11302C0E1F73FEF32B9EAEDF0E03081306130839D
S11302D030813F7E308362B9308130623083308137
S11302E03F7D30836230F9F0633018F46130A1F55A
S11302F00DC0643029F1683079F56AE070E00E943D
S11303006012FE01E80FF91F218126C064E670E047
S11303100E9460126AE070E00E946012FE01E60F23
S1130320F71F218119C068EE73E00E94601264E631
S113033070E00E946012FE01E60FF71F21810CC0DD
S113034060E177E20E94601268EE73E00E9460123E
S1130350FE01E60FF71F2181209522B9EAEDF0E0B6
S113036080818061808380818F7E80832A960FB60E
S1130370F894DEBF0FBECDBFDF91CF9108951F93D8
S1130380CF93DF9300D000D0CDB7DEB728E0298328
S113039021E02A8322E02B8324E02C83662381F44A
S11303A01091F101FE01E10FF11D61810E944E01E6
S11303B0812F8F5F8093F101133011F41092F101BA
S11303C00F900F900F900F90DF91CF911F91089590
S11303D01F920F920FB60F9211248F939F93EF9356
S11303E0FF9380918C028F5F80938C0280919102A5
S11303F0815087BD85B1805885B980919202882348
S1130400A1F410928F0281E08093EA01809392021A
S1130410E1E8F0E0808190919002892B8083EFE6FF
S1130420F0E080818160808318C0E4E8F0E080819E
S1130430918190938E0280938D0280918C0290E042
S113044090939701809396011092810081E08093AC
S11304508F021092920211821082FF91EF919F916C
S11304608F910F900FBE0F901F9018951F920F92AF
S11304700FB60F9211241092EA010F900FBE0F9045
S11304801F901895842F90E00E94AB008091F30197
S113049081508093F301882309F489980895842F67
S11304A040933202222361F490E00E94AB008091D9
S11304B0F30181508093F301882369F489980895A6
S11304C090E0622F70E00E9493008091F3018F5FAF
S11304D08093F301899A089587E28093C40010926F
S11304E0C50088E98093C10008951F920F920FB64A
S11304F00F9211242F933F934F935F936F937F93A6
S11305008F939F93AF93BF93EF93FF93CF93DF9317
S11305100F92CDB7DEB78091C600898384E992E05B
S113052061E0AE014F5F5F4F0E945C0E0F90DF9160
S1130530CF91FF91EF91BF91AF919F918F917F9157
S11305406F915F914F913F912F910F900FBE0F903C
S11305501F90189580E885BF85BF279A819A9A9A3B
S1130560A29A0E946204A9EDB0E08C91806C8C93F5
S1130570EAEDF0E08081806C808381B18FEF81B9F6
S113058092B182B98C9180638C9380818F7C8083BB
S113059082980E9451000E941401C4E9D2E0CE0165
S11305A00E942B0ECE016FE472E00E94F30DCE0187
S11305B062E472E00E94F70D0E946C020E948704BC
S11305C0789480E06FE07EE50E94610590938B0251
S11305D080938A0281E06FE07EE50E94610590933A
S11305E089028093880280918C0290E09093970115
S11305F080939601CE010E9486108091960190917D
S1130600970160E00E94BF010E9413038091F201F0
S1130610982F9F5F9093F201853061F71092F20159
S11306200E948704E7CF4F925F926F927F928F92DE
S11306309F92AF92BF92CF92DF92EF92FF920F936D
S11306401F93CF93DF9302E112E00F2EF6E7CF2E34
S1130650F1E0DF2EF02DEE24FF24E394C0E0D0E09F
S11306600F2EFAE38F2EF1E09F2EF02DAA24BB2447
S11306706894B1F80F2EF8E36F2EF1E07F2EF02D81
S11306800F2EF2E44F2EF1E05F2EF02D08C02196DC
S11306900894E11CF11C82E090E0C80ED91E86E0AB
S11306A06C2F0E94640090933802809337028091EB
S11306B0370290913802D8016D917C911197861B75
S11306C0970B95958795959587959C01260F371FD0
S11306D0F801219331938F01C830D10571F0C930ED
S11306E0D10524F4C430D105B1F52AC0C930D105EF
S11306F0B1F0CB30D10579F53AC0609188027091A0
S1130700890260507E4F8091330290913402680FC9
S1130710791F621B730BC4010E94E800B8CFB501B6
S1130720621B730B709334026093330280918A02CC
S113073090918B02680F791FC3010E94E800A7CF34
S1130740B901660F771F660F771F660F771FC20107
S11307500E94E8009CCFB90162957295707F76275C
S1130760607F7627D6018D919C910E94E800B0E1CC
S1130770EB16F1040CF48BCF04EF11E00F2EF8E527
S1130780EF2EF1E0FF2EF02DC1E087E06C2F0E94E8
S1130790640090933802809337026091370270911D
S11307A03802F80180819181681B790B75956795F2
S11307B075956795680F791FD8016D937D938D01A9
S11307C062957295707F7627607F7627F701819115
S11307D091917F010E94E800CF5FC031B1F60E9481
S11307E09000883008F488E0282F30E03093970197
S11307F020939601982F969596959695292F30E0FB
S1130800E901219746E652E0CC0FDD1FFA01EC0F17
S1130810FD1F0190F081E02D990F990F990F891B0D
S1130820E82EFF248901000F111F400F511FDA0128
S11308308D919C918E1B9F0B8E9DB0018F9D700D91
S11308409E9D700D1124769567957695679576959E
S113085067956E0F7F1F8CE491E00E94E80084E4AA
S113086092E0C80FD91F48815981800F911FFC0164
S113087080819181841B950B8E9DB0018F9D700D9D
S11308809E9D700D1124769567957695679576955E
S11308906795640F751F8AE491E00E94E800A198AF
S11308A0A19ADF91CF911F910F91FF90EF90DF906C
S11308B0CF90BF90AF909F908F907F906F905F90FC
S11308C04F90089584B1876284B9ECEDF0E08081A3
S11308D08C65808385B1897D85B9EDEDF0E08081FB
S11308E0837F808380E58CBD8081877F8083808146
S11308F0877F808380818860808380818F7E8083EE
S113090008958EBD0DB407FEFDCF8EB50895CF9327
S11309102D9AC0913B0290913C0297959927979507
S11309202C2F2170922B8C2F881F8827881F880FCB
S1130930892BEC2FE695E695F0E0E170F070BF01AD
S1130940660F771F660F771F862B6C2F669570E0F6
S113095061707070AB01440F551F440F551F440F55
S1130960551F682F642B4C2F42954F7050E04170F7
S113097050709A0122953295307F3227207F32279A
S1130980462F422B2C2F22952695277030E021707C
S11309903070C901880F991F82959295907F98278E
S11309A0807F9827842B2C2F2295269526952370BB
S11309B030E02170307000243695279507943695E1
S11309C027950794322F202D822B0E948104909129
S11309D03E028927982790933E02982390933D02E4
S11309E09C2790933B0282E20E94810480933F0201
S11309F0C82FC295C695C770C170C0934002829536
S1130A0086958695837081708093410280E00E9470
S1130A10810480E00E9481048091420287958827A6
S1130A20879590914302892BCC0FCC0F8C2B0E947D
S1130A308104EDEDF0E08081877F80838081886090
S1130A4080832D980E94340B82FF06C030913C02B3
S1130A5021E0232720933C0284FF06C03091420208
S1130A6021E023272093420283FF06C09091430292
S1130A7081E089278093430290913B0280913C025C
S1130A8081958927887089270E943D0BEDEDF0E060
S1130A9090812081809143028195822780718927EA
S1130AA0808380914202882351F091E089278093CA
S1130AB0420280E00E94330981E00E943309CF9111
S1130AC008952F923F924F925F926F927F928F92EE
S1130AD09F92AF92BF92CF92DF92EF92FF920F93C9
S1130AE01F93CF93DF93CDB7DEB72A970FB6F89451
S1130AF0DEBF0FBECDBF082F78876F838091900231
S1130B0083608093900280E391E060E070E00E9453
S1130B10E80082E491E060E070E00E94E80084E490
S1130B2091E060E070E00E94E8008FEE91E060E008
S1130B3070E00E94E80084E391E060E070E00E94CD
S1130B40E8008EE391E060E070E00E94E80080E459
S1130B5091E060E070E00E94E80082E291E060E0F1
S1130B6070E00E94E8008CE291E060E070E00E9496
S1130B70E80084E291E060E070E00E94E80086E230
S1130B8091E060E070E00E94E80088E291E06FEF9D
S1130B907FE30E94E8008AE291E060E070E00E9456
S1130BA0E80082E391E060E070E00E94E8008CE1FC
S1130BB091E060E070E00E94E80088E191E060E08C
S1130BC070E00E94E80084E191E06FEF7FE30E940F
S1130BD0E80080E191E060E070E00E94E80080E2DB
S1130BE091E060E070E00E94E80010928F02002320
S1130BF0C1F40F2EFCE44F2EF1E05F2EF02D0F2EEA
S1130C00FCE32F2EF1E03F2EF02D26E431E03A8371
S1130C1029830F2EF8E38F2EF1E09F2EF02D81E033
S1130C2017C00F2EFAE44F2EF1E05F2EF02D0F2E99
S1130C30FEE22F2EF1E03F2EF02D88E491E09A831E
S1130C4089830F2EFAE38F2EF1E09F2EF02D80E49E
S1130C5082B9EDEDF0E080818064808380818F7BB8
S1130C60808312B8899A84B58F6084BD81E087BD82
S1130C70EEE6F0E090819260908380939102EDE043
S1130C80F0E0FC83EB83802F90E08C010F5F1F4F1B
S1130C900F2EF0E3EF2EF1E0FF2EF02D0F2EF8E2F1
S1130CA0CF2EF1E0DF2EF02D0F2EF4E1AF2EF1E088
S1130CB0BF2EF02D0F2EF6E16F2EF1E07F2EF02DDA
S1130CC020E030E03A87298781E090E00B8002C081
S1130CD0880F991F0A94E2F79E838D83E985FA852C
S1130CE0E82BF92BFA87E987C401BF010E94E800C9
S1130CF010928F021092920280918F02882389F5BC
S1130D00C80160E00E94BF01C40169857A850E9420
S1130D10E800C1016FEF7FE30E94E800C70160E0D3
S1130D2070E00E94E800C6016FEF7FE30E94E800D4
S1130D30C5016FEF7FE30E94E800C3016FEF7FE31B
S1130D400E94E80089819A816FEF7FE30E94E800A6
S1130D50C20160E070E00E94E80080918F02882365
S1130D6079F280918D0290918E02EF81F885E817D7
S1130D70F90720F08091EA01882351F48D819E8146
S1130D808095909529853A85282339233A872987A0
S1130D9081E08093EA018B819C8101979C838B8302
S1130DA0EFEF8F3F9E0709F08FCF29853A853E8369
S1130DB02D8380E191E060E070E00E94E80082E130
S1130DC091E060E070E00E94E80088E291E060E079
S1130DD070E00E94E80080E391E060E070E00E942F
S1130DE0E8008998EEE6F0E080818D7F80838D8134
S1130DF09E812A960FB6F894DEBF0FBECDBFDF9159
S1130E00CF911F910F91FF90EF90DF90CF90BF9003
S1130E10AF909F908F907F906F905F904F903F9096
S1130E202F9008952F923F924F925F926F927F92EC
S1130E308F929F92AF92BF92CF92DF92EF92FF92E6
S1130E400F931F93CF93DF93CDB7DEB7E6970FB61B
S1130E50F894DEBF0FBECDBFF82E062FDE0111962B
S1130E60E8E9F1E088E101900D928150E1F7DE01BB
S1130E705996E0EBF1E08AE001900D928150E1F7A0
S1130E80AF2CBB24FE01EA0DFB1D818D80939102E2
S1130E9080E391E060E070E00E94E80082E491E089
S1130EA060E070E00E94E80084E491E060E070E0BB
S1130EB00E94E8008FEE91E060E070E00E94E8009C
S1130EC084E391E060E070E00E94E8008EE391E04A
S1130ED060E070E00E94E80080E491E060E070E08F
S1130EE00E94E80082E291E060E070E00E94E80085
S1130EF08CE291E060E070E00E94E80084E291E01E
S1130F0060E070E00E94E80086E291E060E070E05A
S1130F100E94E80088E291E06FEF7FE30E94E8001E
S1130F208AE291E060E070E00E94E80082E391E0F0
S1130F3060E070E00E94E8008CE191E060E070E025
S1130F400E94E80088E191E060E070E00E94E8001F
S1130F5084E191E06FEF7FE30E94E80080E191E09B
S1130F6060E070E00E94E80080E291E060E070E000
S1130F700E94E800002309F520918A0230918B0237
S1130F803EA32DA30F2EFCE42F2EF1E03F2EF02DD7
S1130F908CE391E09CA78BA7E6E4F1E0FAA7E9A72C
S1130FA028E331E038A72FA306E612E00F2EFAE07B
S1130FB0CF2EF02DEE24E39421C0809188029091ED
S1130FC089029EA38DA30F2EFAE42F2EF1E03F2E6B
S1130FD0F02DEEE2F1E0FCA7EBA728E431E03AA71C
S1130FE029A78AE391E098A78FA304E412E00F2EC7
S1130FF0F4E1CF2EF02DEE246894E6F892E09F15EC
S113100020F083E08093900203C082E080939002FA
S11310108FA198A56DA17EA10E94E800E2B8EDED34
S1131020F0E080818064808380818F7B808312B82C
S1131030899A84B58F6084BD81E087BDEEE6F0E0D7
S113104080818260808310928C02FE013196FCAB19
S1131050EBABC501880F991F8A0D9B1D880F991F43
S1131060880F991F880F991F02979801280F391F1D
S11310703EAB2DABCE0149969CA38BA3AC0CB11C0B
S11310800F2EF0E38F2EF1E09F2EF02D0F2EF8E2BD
S11310906F2EF1E07F2EF02D0F2EF4E14F2EF1E0B4
S11310A05F2EF02DEBA9FCA921913191FCABEBABA8
S11310B038AB2FA7EDA9FEA981919191FEABEDABC1
S11310C08C0108571F4F26E030E03EA72DA70F2EB6
S11310D0F4E6CF2EDD24F02D86E191E0F82EE92E02
S11310E0C8010DA402C0969587950A94E2F78C0175
S11310F00DA402C0000F111F0A94E2F781E090E0F2
S1131100FC010DA402C0EE0FFF1F0A94E2F7FAAB34
S1131110E9AB0E2B1F2BC101B8010E94E80010920D
S11311208F021092920280918F02882309F042C0AC
S113113080918C0282958F70282F30E02C9DC00105
S11311402D9D900D3C9D900D11248A0D9B1D60E0FA
S11311500E94BF01C101B8010E94E8008FA198A5B7
S11311606DA17EA10E94E8008BA59CA56FEF7FE393
S11311700E94E800C40160E070E00E94E800C3013E
S11311806FEF7FE30E94E800C2016FEF7FE30E94EC
S1131190E8008F2D9E2D6FEF7FE30E94E80089A564
S11311A09AA56FEF7FE30E94E80080918F02882365
S11311B009F4BECF80918D0290918E022FA538A99B
S11311C02817390750F08091EA01813031F489A958
S11311D09AA9809590950823192380918D02909166
S11311E08E02EFA5F8A98E179F0721F48091EA01DA
S11311F0813071F081E08093EA012DA53EA5215054
S113120030403EA72DA78FEF2F3F380709F068CF56
S1131210EDA9FEA9118300832BA93CA98BA19CA154
S11312202817390709F03ECF8998EEE6F0E080816F
S11312308D7F8083E6960FB6F894DEBF0FBECDBFD8
S1131240DF91CF911F910F91FF90EF90DF90CF909E
S1131250BF90AF909F908F907F906F905F904F90D2
S11312603F902F9008952F923F924F925F926F92EA
S11312707F928F929F92AF92BF92CF92DF92EF9222
S1131280FF920F931F93CF93DF93CDB7DEB7C25472
S1131290D0400FB6F894DEBF0FBECDBF082FDE01DD
S11312A01196EAEBF1E080E301900D928150E1F7B1
S11312B080E391E060E070E00E94E80082E491E065
S11312C060E070E00E94E80084E491E060E070E097
S11312D00E94E8008FEE91E060E070E00E94E80078
S11312E084E391E060E070E00E94E8008EE391E026
S11312F060E070E00E94E80080E491E060E070E06B
S11313000E94E80082E291E060E070E00E94E80060
S11313108CE291E060E070E00E94E80084E291E0F9
S113132060E070E00E94E80086E291E060E070E036
S11313300E94E80088E291E06FEF7FE30E94E800FA
S11313408AE291E060E070E00E94E80082E391E0CC
S113135060E070E00E94E8008CE191E060E070E001
S11313600E94E80088E191E060E070E00E94E800FB
S113137084E191E06FEF7FE30E94E80080E191E077
S113138060E070E00E94E80080E291E060E070E0DC
S11313900E94E800002309F520908A0230908B0215
S11313A00F2EFCE46F2EF1E07F2EF02D2CE331E0C4
S11313B03CAB2BAB46E451E05AAB49AB0F2EF8E300
S11313C04F2EF1E05F2EF02D06E612E00F2EFAE02C
S11313D0CF2EF02DEE24E39421C02090880230908B
S11313E089020F2EFAE46F2EF1E07F2EF02D8EE2AB
S11313F091E09CAB8BABA8E4B1E0BAABA9AB0F2EE8
S1131400FAE34F2EF1E05F2EF02D04E412E00F2EEC
S1131410F4E1CF2EF02DEE246894E6F8C201B10178
S11314200E94E800E2B8EDEDF0E080818064808302
S113143080818F7B808312B8899A84B58F6084BD44
S113144081E087BDEEE6F0E08081826080831092C7
S11314508C028C2D90E024E630E0829FF001839F83
S1131460F00D929FF00D1124FEABEDAB9E012F5FAA
S11314703F4F3EAF2DAFA8014E5F5F4F23965FAF46
S11314804EAF239721961FAE1EAE21970F2EF0E389
S1131490EF2EF1E0FF2EF02D0F2EF8E2CF2EF1E02B
S11314A0DF2EF02D0F2EF4E1AF2EF1E0BF2EF02D44
S11314B00F2EF6E18F2EF1E09F2EF02DEDADFEAD57
S11314C080818093910221968EAD9FAD21978330C8
S11314D0910524F483E08093900203C092E09093FA
S11314E09002A181B281BCAFABAFEDE0F0E0F8AF08
S11314F0EFAB00E010E021E030E00FA802C0220FC3
S1131500331F0A94E2F73AAF29AF022B132BC3011E
S1131510B8010E94E80010928F021092920280910A
S11315208F028823B1F5809191024DA95EA9480FDD
S1131530511DCA0160E00E94BF01C301B8010E94AD
S1131540E800C201B1010E94E8008BA99CA96FEFD9
S11315507FE30E94E800C70160E070E00E94E800B9
S1131560C6016FEF7FE30E94E800C5016FEF7FE3E0
S11315700E94E800C4016FEF7FE30E94E80089A99C
S11315809AA96FEF7FE30E94E80080918F0288237D
S113159051F280918D0290918E02ABADBCADA81733
S11315A0B90750F08091EA01813031F489AD9AADE8
S11315B0809590950823192380918D0290918E0235
S11315C0EBADFCAD8E179F0721F48091EA018130C9
S11315D071F0F1E0F093EA012FA938AD21503040C9
S11315E038AF2FAB4FEF2F3F340709F084CF23964A
S11315F0AEADBFAD23970D931D932396BFAFAEAF92
S113160023972196EEADFFAD219731962196FFAF3A
S1131610EEAF21972DAD3EAD2D5F3F4F3EAF2DAFC9
S1131620E031F10509F04ACF8998EEE6F0E08081D7
S11316308D7F8083CE5BDF4F0FB6F894DEBF0FBE85
S1131640CDBFDF91CF911F910F91FF90EF90DF906D
S1131650CF90BF90AF909F908F907F906F905F904E
S11316604F903F902F9008959FB1809193029827B7
S113167089278093930289230895EDEDF0E090810A
S11316809F7B9083282F30E021703070220F331F0E
S1131690682F629566956770679566276795262B10
S11316A0982F969596959170292B682F661F66271B
S11316B0661F660F660F660F262BA82FA695B0E04F
S11316C0A170B070BD01660F771F660F771F262BC0
S11316D0682F62956F7070E061707070AB010024C8
S11316E0569547950794569547950794542F402D42
S11316F0622F642B482F429546954695437050E0DF
S1131700417050709A01220F331F22953295307F19
S11317103227207F3227462F422B86958695869541
S1131720282F30E021703070C90182959295907F06
S11317309827807F9827842B82B980818064808356
S113174080818F7B808312B80895FC014283748367
S113175063831182108208951F93CF93DF93EC016A
S1131760162F0E941B0C282F3981832F90E001969D
S11317706A8170E00E947412488150E084179507D2
S113178029F4822F0E941E0C80E011C0EB81FC81A1
S1131790E30FF11D1083898190E001966A8170E066
S11317A00E9474128983822F0E941E0C81E0DF91B3
S11317B0CF911F910895CF93DF93EC010E941B0CEE
S11317C029819881291718F0C22FC91B03C0CA8127
S11317D0C20FC91B0E941E0C8C2FDF91CF9108955C
S11317E0FC012081862F90E0820F911D628170E0C0
S11317F00E9474120380F481E02DE80FF91F8081A8
S113180008951F93CF93DF93EC01162F0E941B0CB6
S1131810482F8881212F30E0280F311D6A81C901AA
S113182070E00E9474128883842F0E941E0CDF9142
S1131830CF911F9108958FB7F89408958FBF08959D
S1131840881F8827881F089591E0883F08F490E056
S1131850892F0895282F30E0207F3070203C3105F7
S1131860E9F1213C31058CF420393105E1F02139CD
S1131870310524F42038310579F515C0203A3105B5
S113188091F0203B310541F50EC0203E310559F061
S1131890213E310524F4203D3105F1F41FC0203FE1
S11318A03105D1F402C083E00895863F79F0873F83
S11318B038F4823FA9F0833F59F0813F59F408C0BE
S11318C0883F40F08D3F10F08E3F20F081E0089576
S11318D082E0089580E0089580E0089582E008950C
S11318E083E008950F93342F022F462F4F70406BDF
S11318F0232F2F770F77DC01ED91FC9163E070E0EB
S113190009950F9108950F93342F022F462F4F708E
S11319104069232F2F770F77DC01ED91FC9163E071
S113192070E009950F9108950F93342F022F462FDD
S11319304F704068232F2F770F77DC01ED91FC91D6
S113194063E070E009950F9108950F93342F022FEF
S1131950462F4F70406A232F2F770F77DC01ED91CC
S1131960FC9163E070E009950F9108950F931F9324
S113197020E24030520744F4A0EE40305A073CF0D5
S11319808A010050104E05C00FEF1FE302C000E0B3
S113199010E0462F4F70406E202F2F77000F012F3D
S11319A0001F110B11950F77DC01ED91FC9163E0A1
S11319B070E009951F910F9108950F93242F462FDE
S11319C04F70406C2F77DC01ED91FC9162E070E088
S11319D000E009950F9108950F93242F462F4F701F
S11319E0406D2F77DC01ED91FC9162E070E000E046
S11319F009950F9108950F93DC01ED91FC9161E03D
S1131A0070E048EF20E000E009950F9108950F93EE
S1131A10DC01ED91FC9161E070E049EF20E000E031
S1131A2009950F9108950F93DC01ED91FC9161E00C
S1131A3070E04AEF20E000E009950F9108950F93BC
S1131A40DC01ED91FC9161E070E04BEF20E000E0FF
S1131A5009950F9108950F93DC01ED91FC9161E0DC
S1131A6070E04CEF20E000E009950F9108950F938A
S1131A70DC01ED91FC9161E070E04EEF20E000E0CC
S1131A8009950F9108950F93DC01ED91FC9161E0AC
S1131A9070E04FEF20E000E009950F9108950F9357
S1131AA0262F2F77DC01ED91FC9162E070E041EF8D
S1131AB000E009950F9108950F931F93262F2F7718
S1131AC08B01000F012F001F110B11950F77DC0103
S1131AD0ED91FC9163E070E042EF09951F910F9145
S1131AE008950F93262F2F77DC01ED91FC9162E08E
S1131AF070E043EF00E009950F9108950F93DC0126
S1131B00ED91FC9161E070E046EF20E000E0099582
S1131B100F9108950F93462FDC01ED91FC9161E044
S1131B2070E020E000E009950F9108950F93DC0127
S1131B30ED91FC9109950F9108956F927F928F9288
S1131B409F92AF92BF92CF92DF92EF92FF920F9348
S1131B501F93CF93DF9300D00F92CDB7DEB74C0124
S1131B606B015A016115710541F1EE24FF240F2E1A
S1131B70F3E06F2E7724F02D19821A821B828601DE
S1131B800E191F090430110508F08301B5016E0D0B
S1131B907F1DCE010196402F512F0E948712C40150
S1131BA0B80149812A810B810E94960D83E090E05F
S1131BB0E80EF91EEC14FD04F8F20F900F900F904C
S1131BC0DF91CF911F910F91FF90EF90DF90CF9015
S1131BD0BF90AF909F908F907F906F900895FC017D
S1131BE0738362830895FC01758364830895FC0103
S1131BF0778366830895FC01718760870895FC01EB
S1131C00738762870895FC01758764870895FC01D2
S1131C10778766870895FC01718B608B0895FC01BA
S1131C20738B628B0895FC01758B648B0895FC01A2
S1131C30778B668B0895FC01718F608F0895FC018A
S1131C40738F628F0895FC01758F648F0895FC0172
S1131C50778F668F0895CF93DF93EC011DA21FA2A7
S1131C601EA2BC01685D7F4F88519F4F40EC0E94CB
S1131C70A50B1B821A821D821C821F821E8219865A
S1131C8018861B861A861D861C861F861E86198A40
S1131C90188A1B8A1A8A1D8A1C8A1F8A1E8A198E10
S1131CA0188E1B8E1A8E1D8E1C8E1F8E1E8E19A2D0
S1131CB018A2DF91CF910895EF92FF920F931F9393
S1131CC0CF93DF93D62F662399F0042F152FC0E00E
S1131CD00F2EF8EEEF2EFF24F02DE80EF91EF8017A
S1131CE061918F01C7010E94AC0BCF5FCD17B9F78B
S1131CF0DF91CF911F910F91FF90EF900895FC0118
S1131D00718360830895FC0171A360A30895AF9269
S1131D10BF92CF92DF92EF92FF920F931F93CF93D4
S1131D20DF9300D00F92CDB7DEB76C015B01F42EC8
S1131D30E22E102FDC0195968C9195978430E9F46E
S1131D405A96ED91FC915B97309709F4EEC0CB0164
S1131D50019763E070E00E946012CB01880F991F25
S1131D60680F791F49832A830B834A2D461BC601BA
S1131D709E012F5F3F4F0995C8C06230710509F479
S1131D805FC06330710529F06130710509F0B3C09B
S1131D9099C0842F90E0807F9070803A910529F15A
S1131DA0813A91053CF480389105C9F08039910558
S1131DB091F50FC0803E9105F1F0803F910509F146
S1131DC0803B910541F5D6011296ED91FC91139754
S1131DD024C0D6011496ED91FC9115971EC0D6012E
S1131DE01696ED91FC91179718C0D6011896ED91AF
S1131DF0FC91199712C0D6011A96ED91FC911B978C
S1131E000CC0B2EF4B1709F090C0D6011C96ED91AF
S1131E10FC911D9702C0E0E0F0E0309709F485C022
S1131E20B2EFFB1631F4C60162EF4E2D212F099556
S1131E306CC06F2D6F70C6014E2D212F099565C0A2
S1131E40842F90E0807F9070803D910561F0803F09
S1131E50910579F0803C9105F9F4D6011E96ED9137
S1131E60FC911F971BC0D6015096ED91FC915197A0
S1131E7015C0B3EF4B1731F4D6015296ED91FC9196
S1131E8053970CC0B1EF4B1709F04FC0D6015496CD
S1131E90ED91FC91559702C0E0E0F0E0309709F431
S1131EA044C0B3EFFB1619F081EFF81629F4C6010C
S1131EB06F2D4E2D099529C06F2D6F70C6014E2DC3
S1131EC0099523C0842F0E94240C882331F0D60165
S1131ED05696ED91FC91579708C0B6EFFB1629F57D
S1131EE0D6015896ED91FC9159973097F1F0C601BF
S1131EF06F2D09950AC064307105A8F416C0C60197
S1131F00B5014F2D2E2D012F0995D6015E96ED9129
S1131F10FC915F97309789F0C601B5014F2D2E2DA6
S1131F20012F09950AC0AA24BB24D6015C96ED9121
S1131F30FC915D97309719F7E8CF0F900F900F90B1
S1131F40DF91CF911F910F91FF90EF90DF90CF9091
S1131F50BF90AF900895EF92FF920F93CF93DF93CA
S1131F607C01C62F862F0E94240C882391F0D70170
S1131F709596DC91959781E095968C93C70161E0E5
S1131F8070E04C2F20E000E00E94870EF701D5A3FB
S1131F90B7C08C2F0E94200C882309F473C0D7018A
S1131FA095968C919597843049F09296CC9392971C
S1131FB081E090E097969C938E9396978C2F0E9445
S1131FC02A0C813041F0813000F18230A1F083305D
S1131FD009F04FC014C081E0F70185A3C70161E097
S1131FE070E04C2F20E000E00E94870ED701959608
S1131FF01C92959785C082E0F70185A381C083E098
S1132000D70195968C9395977BC0C03F19F0C73F35
S113201059F50AC084E0F70185A380EF82A381E02B
S113202090E097A386A36CC0D70196962D913C911E
S11320309797C90163E070E00E946012F701E80F0E
S1132040F91F87EF82A3B9016F5F7F4FF70177A371
S113205066A3C70142A123A104A10E94870ED70150
S113206095961C9295974CC0F70115A217A216A23B
S113207047C0D70195961C92959797961C921E92ED
S113208096973EC0F70125A12223D1F106A0F7A11E
S1132090E02DCF0163E070E00E946012AC018E0D70
S11320A09F1DDC019296CC939297BF016F5F7F4F87
S11320B0F70177A366A34130510591F042305105F1
S11320C0F9F4C70142A123A104A10E94870EF701DC
S11320D085A18430A9F081E090E097A386A310C085
S11320E0223071F4C70142A123A100E00E94870EAF
S11320F0F70185A1843021F081E090E097A386A3C5
S1132100DF91CF910F91FF90EF900895CF92DF92DE
S1132110EF92FF920F931F93CF93DF936C01DC0137
S11321209096ED91FC919197309709F009950F2EB7
S1132130F8EEEF2EFF24F02DEC0CFD1CC7010E94DD
S1132140DB0BC82FD0E0209799F000E010E0C70126
S113215060E00E94F00B682FC6010E94AB0FC7011C
S113216061E00E94010C0F5F1F4F0C171D0778F3ED
S1132170DF91CF911F910F91FF90EF90DF90CF905F
S113218008959C0167E070E00E946012482F882344
S113219081F0C90167E070E00E946012CB01880FF2
S11321A0991F880F991F880F991F0196840F911DFD
S11321B00895C90167E070E00E946012CB01880FA6
S11321C0991F880F991F880F991F0895482F4770EA
S11321D0A1F09C0136952795369527953695279538
S11321E0C901880F991F880F991F880F991F821B97
S11321F0930B0197840F911D08959C0136952795A3
S11322003695279536952795C901880F991F880F0C
S1132210991F880F991F821B930B08952F923F9249
S11322204F925F926F927F928F929F92AF92BF92E2
S1132230CF92DF92EF92FF920F931F93CF93DF938E
S113224000D000D000D0CDB7DEB71C017A836983FB
S11322503A01CA0167E070E00E9460122B015B0141
S113226061157105B1F18101E980FA80CC24DD2486
S1132270882499241E830D83F8011192FC82EB8239
S1132280A401AB81BC812D91BC83AB834F5F5F4FB5
S1132290822F90E080789070BC01042E02C0759566
S11322A067950A94E2F7AD81BE818C91862B8C935D
S11322B02F7721934730510521F70894C11CD11C75
S11322C0085F1F4FE7E0F0E0EE0EFF1ECA14DB04C8
S11322D089F6C30167E070E00E9460128823D9F197
S11322E08201000F111F000F111F000F111F780131
S11322F0E418F508D101A00FB11F1C92682F70E0FB
S11323006115710519F1E981FA81EE0EFF1EC8010C
S11323100196280E391E20E030E0F70141917F013B
S11323202F5F3F4F842F90E080789070022E02C080
S1132330959587950A94E2F79C91892B8C934F7716
S1132340F10141931F012617370738F3C80101969D
S1132350860F971F07C0C201880F991F880F991F06
S1132360880F991F26960FB6F894DEBF0FBECDBF17
S1132370DF91CF911F910F91FF90EF90DF90CF905D
S1132380BF90AF909F908F907F906F905F904F9091
S11323903F902F9008956F927F928F929F92AF9269
S11323A0BF92CF92DF92EF92FF920F931F93CF933E
S11323B0DF933C014B015A014230510508F46FC0D0
S11323C07A01F694E794F694E794F694E794E1148A
S11323D0F10429F1EB01B30100E010E0CC24DD2489
S11323E0DE011196FB01A6012D912F7720834F5F0B
S11323F05F4F888190E0042E02C0880F991F0A94D1
S1132400E2F78078282B21934730510569F70F5F55
S11324101F4F2896695F7F4F0E151F0509F75A2D28
S1132420577099F1E701CC0FDD1FCC0FDD1FCC0FE6
S1132430DD1F8E010E191F09652F70E06150704079
S1132440F9F0CE010196D401A80FB91FF301E00FF2
S1132450F11F20E030E0C80DD91D4D914F77408326
S11324602F5F3F4F888190E0022E02C0880F991F92
S11324700A94E2F78078482B41932617370768F3CC
S1132480C8010197850F911D0CC0C701880F991FC2
S1132490880F991F880F991F8E199F0902C080E029
S11324A090E0DF91CF911F910F91FF90EF90DF901B
S11324B0CF90BF90AF909F908F907F906F90089532
S11324C0AA1BBB1B51E107C0AA1FBB1FA617B70756
S11324D010F0A61BB70B881F991F5A95A9F7809572
S11324E09095BC01CD01089597FB092E07260AD0CB
S11324F077FD04D0E5DF06D000201AF470956195CD
S11325007F4F0895F6F7909581959F4F0895FB01AD
S1132510DC0102C001900D9241505040D8F708955B
S11325206817790768F4FB01DC01E40FF51FA40FB9
S1132530B51F02C002900E9241505040D8F7089542
S10B25400C948712F894FFCFFC
S1132548FF00FF00FF00FF00FF00FF00FF00FF0087
S1132558050303030403020306030003070301033B
S11325680500010200020302060207020202040136
S1132578040205020301010004000501060002002B
S11325880700030000010701060101010201D71138
S1132598CD5D1B5EDE15DF5F2C012A0128012601B3
S11325A82401220120011E011C011A01180116012F
S11325B8140112011001480146014401EF014201CE
S11325C840013E013C013A0138013601ED01340174
S11325D8320130012E014F004F95ED8C04858D7D1D
S11325E88176DB6F9369A7630F5EC758CC53184F86
S11325F80102040102040810204001413B02A74AD9
S113260802072F01817601A74A020F5E02413B04AB
S1132618A74A04072F08413B08542510072F10A088
S10F26281D20542520841740A01D010033
S9030000FC
