:100000000C9432000C944F000C944F000C944F0051
:100010000C944F000C944F000C944F000C944F0024
:100020000C944F000C942A020C94E8010C944F009D
:100030000C944F000C9469020C944F000C944F00E8
:100040000C944F000C944F000C944F000C944F00F4
:100050000C944F000C944F000C944F000C944F00E4
:100060000C944F0011241FBECFEFD0E1DEBFCDBFF7
:1000700011E0A0E0B1E0E6EAF1E202C005900D92E5
:10008000A43DB107D9F713E0A4EDB1E001C01D9282
:10009000A936B107E1F70E94A1020C94D1100C948B
:1000A0000000EAE7F0E0808184608083ACE7B0E0A4
:1000B0008C9180648C93AEE7B0E08C9181608C93DE
:1000C000808180688083089562B9EAEDF0E0408124
:1000D00021E030E0B90102C0660F771F8A95E2F790
:1000E000CB01262F2095422340837DE07A95F1F7BE
:1000F0000000EAE7F0E0208120642083208126FDD3
:10010000FDCFEAEDF0E09081892B8083809178002B
:1001100090E040917900342F20E0822B932B0895BA
:100120008091D40108950F931F93CF93DF93182FDD
:10013000062F82E091E0EC012297BE014EE050E0F4
:100140000E94BF10188309831093D401DF91CF91CF
:100150001F910F910895CF93C0910001C81741F0EE
:10016000E2E0F1E041E050E09081981759F402C0DC
:1001700040E050E0FA01EE0FFF1FE050FF4F8FEF1D
:10018000808307C04F5F5F4F32964830510561F75B
:1001900040E050E0CA01880F991FBC016E5F7E4F9E
:1001A00040955095485F5F4F440F551F80509F4FBB
:1001B0000E94BF108FEF80930E01809100018F3F4E
:1001C00019F4C093D40102C08093D401CF91089553
:1001D000DC016BB978B9A098A09A8C9182B98DE0B6
:1001E0008A95F1F70000EAEDF0E0408121E030E08F
:1001F000C90111960C90119702C0880F991F0A949B
:10020000E2F7842B808382E48A95F1F700C0808135
:1002100011960C90119702C0220F331F0A94E2F737
:10022000209528232083089583B3836083BB8FEFB9
:100230008AB997B187B9E9EDF0E080818F6080835A
:10024000EAEDF0E08081807F808384B3836084BBAB
:10025000A198A19AA098A09A08954BB958B9A098CE
:10026000A09A62B92DE02A95F1F70000EAEDF0E0DE
:10027000408121E030E0B90102C0660F771F8A9506
:10028000E2F7CB01942F982B908372E47A95F1F7E3
:1002900000C090818095892380830895CF93DF9358
:1002A000CDB7DEB72A970FB6F894DEBF0FBECDBF2D
:1002B000DE011196EEE4F1E03AE001900D9231504A
:1002C000E1F73FEF32B9EAEDF0E0308130613083A1
:1002D00030813F7E308362B930813062308330813B
:1002E0003F7D30836230F9F0633018F46130A1F55E
:1002F0000DC0643029F1683079F56AE070E00E9441
:100300008F10FE01E80FF91F218126C064E670E01E
:100310000E948F106AE070E00E948F10FE01E60FCD
:10032000F71F218119C068EE73E00E948F1064E608
:1003300070E00E948F10FE01E60FF71F21810CC0B4
:1003400060E177E20E948F1068EE73E00E948F10E8
:10035000FE01E60FF71F2181209522B9EAEDF0E0BA
:1003600080818061808380818F7E80832A960FB612
:10037000F894DEBF0FBECDBFDF91CF9108951F93DC
:10038000CF93DF9300D000D0CDB7DEB728E029832C
:1003900021E02A8322E02B8324E02C83662381F44E
:1003A0001091D901FE01E10FF11D61810E944E0102
:1003B000812F8F5F8093D901133011F41092D901EE
:1003C0000F900F900F900F90DF91CF911F91089594
:1003D0001F920F920FB60F9211248F939F93EF935A
:1003E000FF9380917602815087BD85B1805885B991
:1003F000809177028823A1F41092740281E08093A7
:10040000D20180937702E1E8F0E08081909175025B
:10041000892B8083EFE6F0E080818160808311C0CA
:10042000E4E8F0E0808191819093730280937202FE
:100430001092810081E08093740210927702118201
:100440001082FF91EF919F918F910F900FBE0F90AF
:100450001F9018951F920F920FB60F9211241092B1
:10046000D2010F900FBE0F901F901895842F90E02F
:100470000E94AB008091DB0181508093DB018823D7
:1004800009F489980895842F40931A02222361F475
:1004900090E00E94AB008091DB0181508093DB01F2
:1004A000882369F48998089590E0622F70E00E9493
:1004B00093008091DB018F5F8093DB01899A08951F
:1004C00087E28093C4001092C50088E98093C10040
:1004D00008951F920F920FB60F9211242F933F93FE
:1004E0004F935F936F937F938F939F93AF93BF933C
:1004F000EF93FF93CF93DF930F92CDB7DEB785B124
:10050000805885B98091C60089838CE792E061E0CC
:10051000AE014F5F5F4F0E948B0C0F90DF91CF9128
:10052000FF91EF91BF91AF919F918F917F916F91CB
:100530005F914F913F912F910F900FBE0F901F90A1
:10054000189580E885BF85BF279A819A9A9AA29AC2
:100550000E942804A9EDB0E08C91806C8C93EAEDA8
:10056000F0E08081806C808381B18FEF81B992B19E
:1005700082B98C9180638C9380818F7C80838298F8
:100580000E9451000E941401CCE7D2E0CE010E94EB
:100590005A0CCE0163E472E00E94220CCE0166E3A5
:1005A00072E00E94260C0E9460020E944D04789422
:1005B0008FE06FE07EE50E946F069093700280935B
:1005C0006F0280EF6FE07EE50E946F0690936E02EF
:1005D00080936D0281E48093780282E28093260208
:1005E0008E010F2EFAE7EF2EF2E0FF2EF02DC8015C
:1005F0000E94B50E809196019091970160E00E9453
:10060000BF010E9419038091DA01982F9F5F909398
:10061000DA01853061F71092DA01F701C0810E949A
:1006200063098C27F70180830E944D040E946905AD
:10063000DECF4F925F926F927F928F929F92AF9296
:10064000BF92CF92DF92EF92FF920F931F93CF93BF
:10065000DF930AEF11E00F2EF6E7CF2EF1E0DF2E49
:10066000F02DEE24FF24E394C0E0D0E00F2EFAE357
:100670008F2EF1E09F2EF02DAA24BB246894B1F8B0
:100680000F2EF8E36F2EF1E07F2EF02D0F2EF2E407
:100690004F2EF1E05F2EF02D08C021960894E11C4A
:1006A000F11C82E090E0C80ED91E86E06C2F0E94FB
:1006B000640090931E0280931D02F8016081718195
:1006C000861B970B95958795959587959C01260F89
:1006D000371F219331938F01C830D10571F0C93094
:1006E000D10524F4C430D105B1F52AC0C930D105F3
:1006F000B1F0CB30D10579F53AC060916D027091BF
:100700006E0260507E4F80911B0290911C02680F18
:10071000791F621B730BC4010E94E800BECFB501B4
:10072000621B730B70931C0260931B0280916F021B
:1007300090917002680F791FC3010E94E800ADCF4D
:10074000B901660F771F660F771F660F771FC2010B
:100750000E94E800A2CFB90162957295707F76275A
:10076000607F7627F601808191810E94E800F0E1A8
:10077000EF16F1040CF491CF0CED11E00F2EF8E51B
:10078000EF2EF1E0FF2EF02DC1E087E06C2F0E94EC
:10079000640090931E0280931D02F8012081318134
:1007A000821B930B9595879595958795820F931F3F
:1007B000819391938F01BC0162957295707F76272A
:1007C000607F7627F701819191917F010E94E80077
:1007D000CF5FC031D1F60E949000C82F883008F456
:1007E000C8E08C2F90E090939701809396018C2F16
:1007F00090E06FE070E00E949F046BE472E00E9462
:100800003309BC018CE491E00E94E8008C2F90E059
:1008100060EF70E00E949F0469E272E00E94330979
:10082000BC018AE491E00E94E800A198A19ADF91BE
:10083000CF911F910F91FF90EF90DF90CF90BF90DD
:10084000AF909F908F907F906F905F904F900895A2
:1008500084B1876284B9ECEDF0E080818C6580839F
:1008600085B1897D85B9EDEDF0E08081837F80835E
:1008700080E58CBD8081877F80838081877F8083B6
:1008800080818860808380818F7E808308958EBD83
:100890000DB407FEFDCF8EB508952D9A80912702E5
:1008A0000E94470490912002892798279093200264
:1008B000982390931F028091780298279093780252
:1008C000809126020E94470490912202892798274E
:1008D0009093220298239093210280917902982785
:1008E00090937902809125020E94470480E00E9443
:1008F000470490917A02892F82958F708795882777
:1009000087959695969596959170892B2091790269
:1009100022952695277030E021703070220F331F0A
:10092000220F331F822B0E944704EDEDF0E08081FF
:10093000877F80838081886080832D98089590913F
:1009400028029770603F31F4909128029695969511
:1009500096959770292F220F920F990F990F890F53
:10096000893808F088E8089580917802982F969544
:100970009695969590FF14C020912802922F9F5F24
:100980009770287F292B20932802953029F4922FE5
:10099000987F94609093280298E08927809378024A
:1009A00080917902982F96959695969590FF11C013
:1009B00090912802977049F090912802292F295F81
:1009C0002770987F922B9093280298E08927809334
:1009D0007902809128028770EDE9F1E0E80FF11DBE
:1009E00081E090E0008002C0880F991F0A94E2F72E
:1009F000582F8093260290917902292F26952695CB
:100A000020FF1AC080912802282F2695269526952A
:100A10002F5F2770322F330F330F330F877C832BD9
:100A200080932802253021F4877C806280932802FD
:100A300084E098279093790290917902292F269546
:100A400020FF17C080912802887379F080912802D6
:100A5000282F269526952695295F2770220F220F8D
:100A6000220F877C822B8093280282E09827909324
:100A70007902409125024C7F4093250290912802F3
:100A80009695969596959770892F90E0833091056D
:100A900084F0FC01E856FE4F21E030E0C9010080FF
:100AA00002C0880F991F0A94E2F7842B80932502D5
:100AB0000895FC01E856FE4F21E030E0C9010080B6
:100AC00002C0880F991F0A94E2F7852B80932602B3
:100AD00008959091780280917A0286958695682F84
:100AE000679566276795292F2170262B692F661F2A
:100AF0006627661F660F622B292F2695269530E004
:100B000021703070D901AA0FBB1FAA0FBB1F6A2B1F
:100B1000A92FA695B0E0A170B070FD01EE0FFF1FE8
:100B2000EE0FFF1FEE0FFF1FA62FAE2BE92FE29552
:100B3000EF70F0E0E170F070BF0162957295707F28
:100B40007627607F7627EA2FE62B692F62956695D8
:100B5000677070E061707070AB01440F551F429573
:100B60005295507F5427407F54276E2F642B492F76
:100B7000429546954695437050E0417050709A01F9
:100B80000024369527950794369527950794322F9C
:100B9000202D262B2093270281708195892788702C
:100BA00089270E946C09EDEDF0E090812081809111
:100BB0007A028695869586958170819582278071C7
:100BC000892780830E94B40480917A02982F92959D
:100BD0009F7090FF10C090E1892780937A028FE088
:100BE0000E94B10780EF0E94B1078FE493EC019758
:100BF000F1F700C00000089580E391E060E070E04C
:100C00000E94E80082E491E060E070E00E94E80069
:100C100084E491E060E070E00E94E80087ED91E0FC
:100C200060E070E00E94E80084E391E060E070E042
:100C30000E94E8008EE391E060E070E00E94E8002E
:100C400080E491E060E070E00E94E80082E291E0E0
:100C500060E070E00E94E8008CE291E060E070E00B
:100C60000E94E80084E291E060E070E00E94E80009
:100C700086E291E060E070E00E94E80088E291E0A6
:100C80006FEF7FE30E94E8008AE291E060E070E0AD
:100C90000E94E80082E391E060E070E00E94E800DA
:100CA0008CE191E060E070E00E94E80088E191E072
:100CB00060E070E00E94E80084E191E06FEF7FE384
:100CC0000E94E80080E191E060E070E00E94E800AE
:100CD00080E291E060E070E00E94E80008952F92C9
:100CE0003F924F925F926F927F928F929F92AF92BC
:100CF000BF92CF92DF92EF92FF920F931F93CF9309
:100D0000DF93CDB7DEB72A970FB6F894DEBF0FBEDC
:100D1000CDBF082F78876F838091750283608093A1
:100D200075020E94FC05109274020F30C1F40F2E60
:100D3000FCE44F2EF1E05F2EF02D0F2EFCE32F2E62
:100D4000F1E03F2EF02D26E431E03A8329830F2E87
:100D5000F8E38F2EF1E09F2EF02D81E017C00F2ECB
:100D6000FAE44F2EF1E05F2EF02D0F2EFEE22F2E33
:100D7000F1E03F2EF02D88E491E09A8389830F2ED5
:100D8000FAE38F2EF1E09F2EF02D80E482B9EDED95
:100D9000F0E080818064808380818F7B808312B8C3
:100DA000899A84B58F6084BD81E087BDEEE6F0E06E
:100DB00090819260908380937602EDE0F0E0FC8376
:100DC000EB83802F90E08C010F5F1F4F0F2EF0E31D
:100DD000EF2EF1E0FF2EF02D0F2EF8E2CF2EF1E0F6
:100DE000DF2EF02D0F2EF4E1AF2EF1E0BF2EF02D0F
:100DF0000F2EF6E16F2EF1E07F2EF02D20E030E097
:100E00003A87298781E090E00B8002C0880F991F04
:100E10000A94E2F79E838D83E985FA85E82BF92B06
:100E2000FA87E987C401BF010E94E80010927402AA
:100E30001092770280917402882389F5C80160E0DE
:100E40000E94BF01C40169857A850E94E800C10142
:100E50006FEF7FE30E94E800C70160E070E00E944E
:100E6000E800C6016FEF7FE30E94E800C5016FEF65
:100E70007FE30E94E800C3016FEF7FE30E94E80078
:100E800089819A816FEF7FE30E94E800C20160E0F0
:100E900070E00E94E80080917402882379F28091CA
:100EA000720290917302EF81F885E817F90720F03C
:100EB0008091D201882351F48D819E8180959095F7
:100EC00029853A85282339233A87298781E0809329
:100ED000D2018B819C8101979C838B83EFEF8F3FA5
:100EE0009E0709F08FCF29853A853E832D8380E1C7
:100EF00091E060E070E00E94E80082E191E060E053
:100F000070E00E94E80088E291E060E070E00E94FA
:100F1000E80080E391E060E070E00E94E8008998DA
:100F2000EEE6F0E080818D7F808314BC8D819E8110
:100F30002A960FB6F894DEBF0FBECDBFDF91CF91DA
:100F40001F910F91FF90EF90DF90CF90BF90AF90E7
:100F50009F908F907F906F905F904F903F902F90D9
:100F600008952F923F924F925F926F927F928F924D
:100F70009F92AF92BF92CF92DF92EF92FF920F9328
:100F80001F93CF93DF93CDB7DEB7C054D0400FB6D9
:100F9000F894DEBF0FBECDBF082FDE011196E2EA46
:100FA000F1E080E301900D928150E1F70E94FC0591
:100FB0000F30E9F420906F02309070020F2EFCE4A5
:100FC000AF2EF1E0BF2EF02D26E431E03AAB29AB95
:100FD0000F2EF8E34F2EF1E05F2EF02D0BE412E020
:100FE0000F2EFAE0CF2EF02DEE24E3941DC02090BA
:100FF0006D0230906E020F2EFAE4AF2EF1E0BF2E9C
:10100000F02D48E451E05AAB49AB0F2EFAE34F2ED6
:10101000F1E05F2EF02D09E212E00F2EF4E1CF2E69
:10102000F02DEE246894E6F8C201B1010E94E800B8
:10103000E2B8EDEDF0E080818064808380818F7B79
:10104000808312B8899A81E08093760210927102AF
:101050008C2D90E024E630E0829FF001839FF00D1C
:10106000929FF00D1124FCABEBAB9E012F5F3F4F25
:101070003CAF2BAFA8014E5F5F4F21965FAF4EAFE5
:1010800021971EAE1DAE0F2EF0E3EF2EF1E0FF2EE6
:10109000F02D0F2EF8E2CF2EF1E0DF2EF02D0F2EE7
:1010A000F4E18F2EF1E09F2EF02D0F2EFCE16F2E3C
:1010B000F1E07F2EF02DABADBCAD8C91809376022C
:1010C00084B58F6084BD51E057BDEEE6F0E08081CD
:1010D0008260808316BC8DAD9EAD8330910524F473
:1010E00083E08093750203C082E0809375021196BD
:1010F000ED91FC911297FAAFE9AF2DE030E03EABF5
:101100002DAB00E010E041E050E00DA802C0440F1C
:10111000551F0A94E2F758AF4FAB042B152BC501AE
:10112000B8010E94E8001092740210927702809138
:101130007402882381F580917602EBA9FCA9E80F5F
:10114000F11DCF0160E00E94BF01C201B1010E9408
:10115000E800C501B8010E94E800C70160E070E046
:101160000E94E800C6016FEF7FE30E94E800C4011F
:101170006FEF7FE30E94E800C30160E070E00E942F
:10118000E80089A99AA96FEF7FE30E94E8008091A7
:101190007402882381F2809172029091730229ADCA
:1011A0003AAD2817390750F08091D201813031F4DF
:1011B0008FA998AD8095909508231923809172028C
:1011C0009091730249AD5AAD8417950721F480912F
:1011D000D201813069F051E05093D2018DA99EA9CE
:1011E00001979EAB8DABEFEF8F3F9E0709F08BCF42
:1011F0002196EEADFFAD2197019311932196FFAF9C
:10120000EEAF2197EEE6F0E080818D7F808314BC05
:101210002DAD3EAD2F5F3F4F3EAF2DAF4BAD5CAD23
:101220004D5F5F4F5CAF4BAF2031310509F043CFCD
:101230008998C05CDF4F0FB6F894DEBF0FBECDBFFC
:10124000DF91CF911F910F91FF90EF90DF90CF90A2
:10125000BF90AF909F908F907F906F905F904F90D6
:101260003F902F900895982F969596959695292FB3
:1012700030E0F9013197EE0FFF1FE60FF71F0190E5
:10128000F081E02D220F331F260F371FD9014D911A
:101290005C9111974E1B5F0B990F990F990F891B4A
:1012A00090E0489F9001499F300D589F300D1124C8
:1012B000369527953695279536952795E20FF31F96
:1012C0008E2F9F2F08959FB180917B0298278927A9
:1012D00080937B0289230895EDEDF0E090819F7B60
:1012E0009083282F30E021703070220F331F682F39
:1012F000629566956770679566276795262B982F88
:10130000969596959170292B682F661F6627661F04
:10131000660F660F660F262BA82FA695B0E0A1706A
:10132000B070BD01660F771F660F771F262B682FE1
:1013300062956F7070E061707070AB01002456951B
:1013400047950794569547950794542F402D622F43
:10135000642B482F429546954695437050E0417066
:1013600050709A01220F331F22953295307F322719
:10137000207F3227462F422B869586958695282FEB
:1013800030E021703070C90182959295907F982746
:10139000807F9827842B82B98081806480838081BC
:1013A0008F7B808312B80895FC014283748363832A
:1013B0001182108208951F93CF93DF93EC01162FB3
:1013C0000E944A0A282F3981832F90E001966A8172
:1013D00070E00E94A310488150E08417950729F41B
:1013E000822F0E944D0A80E011C0EB81FC81E30F47
:1013F000F11D1083898190E001966A8170E00E945E
:10140000A3108983822F0E944D0A81E0DF91CF9142
:101410001F910895CF93DF93EC010E944A0A29811E
:101420009881291718F0C22FC91B03C0CA81C20FA7
:10143000C91B0E944D0A8C2FDF91CF910895FC01AA
:101440002081862F90E0820F911D628170E00E94C2
:10145000A3100380F481E02DE80FF91F8081089527
:101460001F93CF93DF93EC01162F0E944A0A482F57
:101470008881212F30E0280F311D6A81C90170E079
:101480000E94A3108883842F0E944D0ADF91CF9180
:101490001F9108958FB7F89408958FBF0895881FFE
:1014A0008827881F089591E0883F08F490E0892FED
:1014B0000895282F30E0207F3070203C3105E9F17D
:1014C000213C31058CF420393105E1F02139310519
:1014D00024F42038310579F515C0203A310591F012
:1014E000203B310541F50EC0203E310559F0213E2B
:1014F000310524F4203D3105F1F41FC0203F3105B2
:10150000D1F402C083E00895863F79F0873F38F434
:10151000823FA9F0833F59F0813F59F408C0883FCA
:1015200040F08D3F10F08E3F20F081E0089582E082
:10153000089580E0089580E0089582E0089583E0B2
:1015400008950F93342F022F462F4F70406B232F97
:101550002F770F77DC01ED91FC9163E070E0099546
:101560000F9108950F93342F022F462F4F7040692B
:10157000232F2F770F77DC01ED91FC9163E070E072
:1015800009950F9108950F93342F022F462F4F7016
:101590004068232F2F770F77DC01ED91FC9163E0FA
:1015A00070E009950F9108950F93342F022F462F65
:1015B0004F70406A232F2F770F77DC01ED91FC915C
:1015C00063E070E009950F9108950F931F9320E257
:1015D0004030520744F4A0EE40305A073CF08A01F4
:1015E0000050104E05C00FEF1FE302C000E010E0F6
:1015F000462F4F70406E202F2F77000F012F001FB6
:10160000110B11950F77DC01ED91FC9163E070E017
:1016100009951F910F9108950F93242F462F4F7016
:10162000406C2F77DC01ED91FC9162E070E000E00E
:1016300009950F9108950F93242F462F4F70406DF9
:101640002F77DC01ED91FC9162E070E000E00995FC
:101650000F9108950F93DC01ED91FC9161E070E032
:1016600048EF20E000E009950F9108950F93DC0109
:10167000ED91FC9161E070E049EF20E000E0099518
:101680000F9108950F93DC01ED91FC9161E070E002
:101690004AEF20E000E009950F9108950F93DC01D7
:1016A000ED91FC9161E070E04BEF20E000E00995E6
:1016B0000F9108950F93DC01ED91FC9161E070E0D2
:1016C0004CEF20E000E009950F9108950F93DC01A5
:1016D000ED91FC9161E070E04EEF20E000E00995B3
:1016E0000F9108950F93DC01ED91FC9161E070E0A2
:1016F0004FEF20E000E009950F9108950F93262FFA
:101700002F77DC01ED91FC9162E070E041EF00E0A9
:1017100009950F9108950F931F93262F2F778B0113
:10172000000F012F001F110B11950F77DC01ED91B8
:10173000FC9163E070E042EF09951F910F910895CD
:101740000F93262F2F77DC01ED91FC9162E070E082
:1017500043EF00E009950F9108950F93DC01ED919F
:10176000FC9161E070E046EF20E000E009950F9108
:1017700008950F93462FDC01ED91FC9161E070E03C
:1017800020E000E009950F9108950F93DC01ED91A1
:10179000FC9109950F9108956F927F928F929F927D
:1017A000AF92BF92CF92DF92EF92FF920F931F936F
:1017B000CF93DF9300D00F92CDB7DEB74C016B0112
:1017C0005A016115710541F1EE24FF240F2EF3E05B
:1017D0006F2E7724F02D19821A821B8286010E1932
:1017E0001F090430110508F08301B5016E0D7F1D3E
:1017F000CE010196402F512F0E94B610C401B801AE
:1018000049812A810B810E94C50B83E090E0E80E9C
:10181000F91EEC14FD04F8F20F900F900F90DF9179
:10182000CF911F910F91FF90EF90DF90CF90BF90DD
:10183000AF909F908F907F906F900895FC0173837D
:1018400062830895FC01758364830895FC017783A6
:1018500066830895FC01718760870895FC01738792
:1018600062870895FC01758764870895FC01778776
:1018700066870895FC01718B608B0895FC01738B62
:10188000628B0895FC01758B648B0895FC01778B46
:10189000668B0895FC01718F608F0895FC01738F32
:1018A000628F0895FC01758F648F0895FC01778F16
:1018B000668F0895CF93DF93EC011DA21FA21EA295
:1018C000BC01685D7F4F88519F4F40EC0E94D40956
:1018D0001B821A821D821C821F821E821986188614
:1018E0001B861A861D861C861F861E86198A188AE4
:1018F0001B8A1A8A1D8A1C8A1F8A1E8A198E188EB4
:101900001B8E1A8E1D8E1C8E1F8E1E8E19A218A263
:10191000DF91CF910895EF92FF920F931F93CF9392
:10192000DF93D62F662399F0042F152FC0E00F2EDA
:10193000F8EEEF2EFF24F02DE80EF91EF80161916C
:101940008F01C7010E94DB09CF5FCD17B9F7DF9187
:10195000CF911F910F91FF90EF900895FC0171833B
:1019600060830895FC0171A360A30895AF92BF92B4
:10197000CF92DF92EF92FF920F931F93CF93DF935B
:1019800000D00F92CDB7DEB76C015B01F42EE22ED2
:10199000102FDC0195968C9195978430E9F45A9636
:1019A000ED91FC915B97309709F4EEC0CB01019764
:1019B00063E070E00E948F10CB01880F991F680FC1
:1019C000791F49832A830B834A2D461BC6019E013A
:1019D0002F5F3F4F0995C8C06230710509F45FC0A1
:1019E0006330710529F06130710509F0B3C099C009
:1019F000842F90E0807F9070803A910529F1813AA0
:101A000091053CF480389105C9F08039910591F534
:101A10000FC0803E9105F1F0803F910509F1803BB8
:101A2000910541F5D6011296ED91FC91139724C0D2
:101A3000D6011496ED91FC9115971EC0D60116960D
:101A4000ED91FC91179718C0D6011896ED91FC9175
:101A5000199712C0D6011A96ED91FC911B970CC0F4
:101A6000B2EF4B1709F090C0D6011C96ED91FC9196
:101A70001D9702C0E0E0F0E0309709F485C0B2EFB6
:101A8000FB1631F4C60162EF4E2D212F09956CC073
:101A90006F2D6F70C6014E2D212F099565C0842FC3
:101AA00090E0807F9070803D910561F0803F9105CE
:101AB00079F0803C9105F9F4D6011E96ED91FC91E8
:101AC0001F971BC0D6015096ED91FC91519715C000
:101AD000B3EF4B1731F4D6015296ED91FC91539729
:101AE0000CC0B1EF4B1709F04FC0D6015496ED91E1
:101AF000FC91559702C0E0E0F0E0309709F444C053
:101B0000B3EFFB1619F081EFF81629F4C6016F2D1B
:101B10004E2D099529C06F2D6F70C6014E2D099568
:101B200023C0842F0E94530A882331F0D601569691
:101B3000ED91FC91579708C0B6EFFB1629F5D60139
:101B40005896ED91FC9159973097F1F0C6016F2DA1
:101B500009950AC064307105A8F416C0C601B50124
:101B60004F2D2E2D012F0995D6015E96ED91FC91FA
:101B70005F97309789F0C601B5014F2D2E2D012FAB
:101B800009950AC0AA24BB24D6015C96ED91FC916C
:101B90005D97309719F7E8CF0F900F900F90DF9176
:101BA000CF911F910F91FF90EF90DF90CF90BF905A
:101BB000AF900895EF92FF920F93CF93DF937C0144
:101BC000C62F862F0E94530A882391F0D70195963D
:101BD000DC91959781E095968C93C70161E070E068
:101BE0004C2F20E000E00E94B60CF701D5A3B7C04F
:101BF0008C2F0E944F0A882309F473C0D701959651
:101C00008C919597843049F09296CC93929781E08D
:101C100090E097969C938E9396978C2F0E94590AEA
:101C2000813041F0813000F18230A1F0833009F041
:101C30004FC014C081E0F70185A3C70161E070E0E7
:101C40004C2F20E000E00E94B60CD70195961C9224
:101C5000959785C082E0F70185A381C083E0D70115
:101C600095968C9395977BC0C03F19F0C73F59F567
:101C70000AC084E0F70185A380EF82A381E090E0B1
:101C800097A386A36CC0D70196962D913C91979708
:101C9000C90163E070E00E948F10F701E80FF91F9F
:101CA00087EF82A3B9016F5F7F4FF70177A366A328
:101CB000C70142A123A104A10E94B60CD7019596A9
:101CC0001C9295974CC0F70115A217A216A247C007
:101CD000D70195961C92959797961C921E9296976F
:101CE0003EC0F70125A12223D1F106A0F7A1E02DE6
:101CF000CF0163E070E00E948F10AC018E0D9F1D3C
:101D0000DC019296CC939297BF016F5F7F4FF701F2
:101D100077A366A34130510591F042305105F9F4A3
:101D2000C70142A123A104A10E94B60CF70185A11D
:101D30008430A9F081E090E097A386A310C0223000
:101D400071F4C70142A123A100E00E94B60CF70183
:101D500085A1843021F081E090E097A386A3DF91F4
:101D6000CF910F91FF90EF900895CF92DF92EF9275
:101D7000FF920F931F93CF93DF936C01DC0190963A
:101D8000ED91FC919197309709F009950F2EF8EE9F
:101D9000EF2EFF24F02DEC0CFD1CC7010E940A0A57
:101DA000C82FD0E0209799F000E010E0C70160E074
:101DB0000E941F0A682FC6010E94DA0DC70161E068
:101DC0000E94300A0F5F1F4F0C171D0778F3DF9139
:101DD000CF911F910F91FF90EF90DF90CF900895DA
:101DE0009C0167E070E00E948F10482F882381F0EB
:101DF000C90167E070E00E948F10CB01880F991F26
:101E0000880F991F880F991F0196840F911D0895BF
:101E1000C90167E070E00E948F10CB01880F991F05
:101E2000880F991F880F991F0895482F4770A1F0B8
:101E30009C01369527953695279536952795C901A6
:101E4000880F991F880F991F880F991F821B930B6A
:101E50000197840F911D08959C013695279536951D
:101E6000279536952795C901880F991F880F991FC7
:101E7000880F991F821B930B08952F923F924F92C8
:101E80005F926F927F928F929F92AF92BF92CF920A
:101E9000DF92EF92FF920F931F93CF93DF9300D0C7
:101EA00000D000D0CDB7DEB71C017A8369833A0138
:101EB000CA0167E070E00E948F102B015B01611581
:101EC0007105B1F18101E980FA80CC24DD248824F8
:101ED00099241E830D83F8011192FC82EB82A401E8
:101EE000AB81BC812D91BC83AB834F5F5F4F822F51
:101EF00090E080789070BC01042E02C075956795C3
:101F00000A94E2F7AD81BE818C91862B8C932F775A
:101F100021934730510521F70894C11CD11C085F5B
:101F20001F4FE7E0F0E0EE0EFF1ECA14DB0489F657
:101F3000C30167E070E00E948F108823D9F182010D
:101F4000000F111F000F111F000F111F7801E4185F
:101F5000F508D101A00FB11F1C92682F70E0611528
:101F6000710519F1E981FA81EE0EFF1EC801019693
:101F7000280E391E20E030E0F70141917F012F5FEC
:101F80003F4F842F90E080789070022E02C095958C
:101F900087950A94E2F79C91892B8C934F77F101F6
:101FA00041931F012617370738F3C8010196860FA2
:101FB000971F07C0C201880F991F880F991F880FAC
:101FC000991F26960FB6F894DEBF0FBECDBFDF91E6
:101FD000CF911F910F91FF90EF90DF90CF90BF9026
:101FE000AF909F908F907F906F905F904F903F90B9
:101FF0002F9008956F927F928F929F92AF92BF928F
:10200000CF92DF92EF92FF920F931F93CF93DF93C4
:102010003C014B015A014230510508F46FC07A016E
:10202000F694E794F694E794F694E794E114F104B7
:1020300029F1EB01B30100E010E0CC24DD24DE0146
:102040001196FB01A6012D912F7720834F5F5F4FE3
:10205000888190E0042E02C0880F991F0A94E2F74D
:102060008078282B21934730510569F70F5F1F4F68
:102070002896695F7F4F0E151F0509F75A2D577077
:1020800099F1E701CC0FDD1FCC0FDD1FCC0FDD1F59
:102090008E010E191F09652F70E061507040F9F034
:1020A000CE010196D401A80FB91FF301E00FF11F73
:1020B00020E030E0C80DD91D4D914F7740832F5F50
:1020C0003F4F888190E0022E02C0880F991F0A942A
:1020D000E2F78078482B41932617370768F3C80149
:1020E0000197850F911D0CC0C701880F991F880F9C
:1020F000991F880F991F8E199F0902C080E090E0F8
:10210000DF91CF911F910F91FF90EF90DF90CF90D3
:10211000BF90AF909F908F907F906F900895AA1B73
:10212000BB1B51E107C0AA1FBB1FA617B70710F0C2
:10213000A61BB70B881F991F5A95A9F780959095F4
:10214000BC01CD01089597FB092E07260AD077FD23
:1021500004D0E5DF06D000201AF4709561957F4F1A
:102160000895F6F7909581959F4F0895FB01DC0146
:1021700002C001900D9241505040D8F70895681761
:10218000790768F4FB01DC01E40FF51FA40FB51F0C
:1021900002C002900E9241505040D8F708950C941E
:0621A000B610F894FFCF19
:1021A600FF00FF00FF00FF00FF00FF00FF00FF0031
:1021B60005030303040302030603000307030103E5
:1021C60005000102000203020602070202020401E0
:1021D60004020502030101000400050106000200D5
:1021E6000700030000010701060101010201D711E2
:1021F600CD5D1B5EDE15DF5F2C012A01280126015D
:102206002401220120011E011C011A0118011601D8
:10221600140112011001480146014401D70142018F
:1022260040013E013C013A0138013601D501340135
:10223600320130012E014F000506070100010200A0
:10224600030401413B02A74A02072F01817601A739
:102256004A020F5E02413B04A74A04072F08413B8E
:1022660008542510072F10A01D2054252084174040
:04227600A01D0100A6
:00000001FF
