S01A00006D6F6E61706F6C6C6F2D6669726D776172652E73726563AF
S11300000C9432000C944F000C944F000C944F004D
S11300100C944F000C9446020C944F000C944F0027
S11300200C944F000C94DA010C9490010C944F0042
S11300300C944F000C9411020C944F000C944F003C
S11300400C944F000C944F000C944F000C944F00F0
S11300500C944F000C944F000C944F000C944F00E0
S11300600C944F0011241FBECFEFD0E1DEBFCDBFF3
S113007011E0A0E0B1E0E8EAF0E202C005900D92E0
S1130080AC3AB107D9F715E0ACEAB1E001C01D9272
S1130090A030B107E1F70E9450020C9452100C9466
S11300A00000EAE7F0E0808184608083ACE7B0E0A0
S11300B08C9180648C93AEE7B0E08C9181608C93DA
S11300C0808180688083089562B9EAEDF0E0408120
S11300D021E030E0B90102C0660F771F8A95E2F78C
S11300E0CB01262F2095422340837DE07A95F1F7BA
S11300F00000EAE7F0E0208120642083208126FDCF
S1130100FDCFEAEDF0E09081892B80838091780027
S113011090E040917900342F20E0822B932B0895B6
S1130120DC016BB978B9A098A09A8C9182B98DE062
S11301308A95F1F70000EAEDF0E0408121E030E03B
S1130140C90111960C90119702C0880F991F0A9447
S1130150E2F7842B808382E48A95F1F700C08081E2
S113016011960C90119702C0220F331F0A94E2F7E4
S1130170209528232083089583B3836083BB8FEF66
S11301808AB997B187B9E9EDF0E080818F60808307
S1130190EAEDF0E08081807F808384B3836084BB58
S11301A0A198A19AA098A09A08954BB958B9A0987B
S11301B0A09A62B92DE02A95F1F70000EAEDF0E08B
S11301C0408121E030E0B90102C0660F771F8A95B3
S11301D0E2F7CB01942F982B908372E47A95F1F790
S11301E000C090818095892380830895CF93DF9305
S11301F0CDB7DEB72A970FB6F894DEBF0FBECDBFDA
S1130200DE011196EEE3F1E03AE001900D923150F7
S1130210E1F73FEF32B9EAEDF0E03081306130834D
S113022030813F7E308362B93081306230833081E7
S11302303F7D30836230F9F0633018F46130A1F50A
S11302400DC0643029F1683079F56AE070E00E94ED
S11302502210FE01E80FF91F218126C064E670E038
S11302600E9422106AE070E00E942210FE01E60F54
S1130270F71F218119C068EE73E00E94221064E622
S113028070E00E942210FE01E60FF71F21810CC0CE
S113029060E177E20E94221068EE73E00E9422106F
S11302A0FE01E60FF71F2181209522B9EAEDF0E067
S11302B080818061808380818F7E80832A960FB6BF
S11302C0F894DEBF0FBECDBFDF91CF910895CF93D9
S11302D0DF9300D000D0CDB7DEB728E0298321E03A
S11302E02A8322E02B8324E02C83662391F420913B
S11302F0B001FE01E20FF11D61810E94F6008091C0
S1130300B001982F9F5F9093B001833011F4109245
S1130310B0010F900F900F900F90DF91CF9108953F
S11303201F920F920FB60F9211248F939F93EF9306
S1130330FF9380911104815087BD85B1805885B9A0
S1130340809112048823A1F410920F0481E0809319
S1130350AA0180931204E1E8F0E0808190911004F6
S1130360892B8083EFE6F0E080818160808319C06F
S1130370E4E8F0E08081918190930E0480930D0471
S113038080910D0490910E049093870180938601CF
S11303901092810081E080930F0410921204118264
S11303A01082FF91EF919F918F910F900FBE0F904C
S11303B01F9018951F920F920FB60F92112410924E
S11303C0AA010F900FBE0F901F9018954093F10152
S11303D0222359F48091B10181508093B10180911D
S11303E0B101882349F4899808958091B1018F5F00
S11303F08093B1018998899A08958091B1018150BF
S11304008093B1018091B101882309F489980895FA
S113041087E28093C4001092C50088E98093C100EC
S113042008951F920F920FB60F9211242F933F93AA
S11304304F935F936F937F938F939F93AF93BF93E8
S1130440EF93FF93CF93DF930F92CDB7DEB78091F5
S1130450C600898383E194E061E0AE014F5F5F4FA2
S11304600E941E0C0F90DF91CF91FF91EF91BF91ED
S1130470AF919F918F917F916F915F914F913F9138
S11304802F910F900FBE0F901F9018951F920F92EF
S11304900FB60F9211240F900FBE0F901F90189556
S11304A080E885BF85BF279A819A9A9AA29A0E946A
S11304B0C003A9EDB0E08C91806C8C93EAEDF0E080
S11304C08081806C808381B18FEF81B992B182B9D0
S11304D08C9180638C9380818F7C808382980E942E
S11304E051000E94BC00C3E1D4E0CE010E94ED0B98
S11304F0CE0166EE71E00E94B50BCE016DEF71E0A6
S11305000E94B90B0E9408020E94DF03789480E0E5
S11305100E94B00590930C0480930B0481E00E9428
S1130520B00590930A048093090480910B04909180
S11305300C049093870180938601CE010E94480E9B
S1130540809186019091870160E00E9467010E947A
S1130550B6028091B201982F9F5F9093B2018530CB
S113056061F71092B2010E94DF03E7CF4F925F92CE
S11305706F927F928F929F92AF92BF92CF92DF92AF
S1130580EF92FF920F931F93CF93DF9301ED11E04E
S11305900F2EF6E6CF2EF1E0DF2EF02DEE24FF2411
S11305A0E394C0E0D0E00F2EFAE28F2EF1E09F2E0C
S11305B0F02DAA24BB246894B1F80F2EF8E26F2E14
S11305C0F1E07F2EF02D0F2EF2E34F2EF1E05F2E9F
S11305D0F02D08C021960894E11CF11C82E090E003
S11305E0C80ED91E86E06C2F0E9464009093F70118
S11305F08093F6018091F6019091F701F8016081F2
S11306007181861B970B95958795959587959C0188
S1130610260F371F219331938F01C830D10571F014
S1130620C930D10524F4C430D105D1F52EC0C93068
S1130630D105D1F0CB30D10599F53EC03093870177
S1130640209386016091090470910A0460507E4FE2
S11306508091F2019091F301680F791F621B730B73
S1130660C4010E949000B6CFB501621B730B709356
S1130670F3016093F20180910B0490910C04680FD4
S1130680791FC3010E949000A5CFB901660F771F9F
S1130690660F771F660F771FC2010E9490009ACFE2
S11306A0B90162957295707F7627607F7627F6018F
S11306B0808191810E949000F0E1EF16F1040CF426
S11306C089CF03EB11E00F2EF8E4EF2EF1E0FF2EBB
S11306D0F02DC1E087E06C2F0E9464009093F70135
S11306E08093F6016091F6017091F701F801808121
S11306F09181681B790B7595679575956795680F5A
S1130700791F619371938F0162957295707F76273B
S1130710607F7627F701819191917F010E9490007B
S1130720CF5FC031B9F6E091F101F0E0EE0FFF1FA9
S1130730E75FFC4F608171818CE391E00E9490003F
S1130740E091F101F0E0EE0FFF1FEF5DFD4F6081DE
S113075071818AE391E00E949000A198A19ADF91AF
S1130760CF911F910F91FF90EF90DF90CF90BF90AA
S1130770AF909F908F907F906F905F904F9008956F
S113078084B1876284B9ECEDF0E080818C6580836C
S113079085B1897D85B9EDEDF0E08081837F80832B
S11307A080E58CBD8081877F80838081877F808383
S11307B080818860808380818F7E808308950F93F9
S11307C01F93CF93DF932D9AC091FE014091FE01B8
S11307D00091FE018091FE01A091FE016091FE0155
S11307E02091FE0190910302979599279795817026
S11307F0982BCC1FCC27CC1FCC0FC92B46954695E4
S113080050E041705070CA01880F991F880F991FDA
S11308108C2B069510E001701070E801CC0FDD1FE1
S1130820CC0FDD1FCC0FDD1FC82BA295AF70B0E03D
S1130830A170B070FD01E295F295F07FFE27E07F94
S1130840FE27EC2B62956695677070E0617070709E
S1130850AB01440F551F42955295507F5427407F5A
S113086054274E2B229526952695237030E021702F
S11308703070C901002496958795079496958795BD
S11308800794982F802D842B8EBD0DB407FEFDCFC9
S11308908EB580930002809100029091FF01892718
S11308A0809300028091FF01909100028927809338
S11308B0FF01809100029091FF018923809300023F
S11308C08091FE019091000289278093FE011EBC55
S11308D00DB407FEFDCF8EB58093FD018091FD011F
S11308E08295869587708170809306028091FD01C0
S11308F082958695869583708170809305021EBCCF
S11309000DB407FEFDCF1EBC0DB407FEFDCF209134
S113091006028091070290910802220F220F879508
S113092088278795822B892B8EBD0DB407FEFDCFBA
S1130930EDEDF0E08081877F808380818860808313
S11309402D988FB18093010280910102909102024F
S113095089278093010280910202909101028927E4
S11309608093020280910102909102028923809374
S113097001028091010282FF06C09091030281E08E
S11309808927809303028091010284FF06C090911D
S1130990070281E08927809307028091010283FF87
S11309A006C09091080281E0892780930802EDED4A
S11309B0F0E080818F7B80834091FE013091FE01C5
S11309C0C091FE010091FE016091FE01A091FE0123
S11309D02091FE01809103028295807F36953695A1
S11309E03170382B10E001701070C801880F991F06
S11309F0832BA295A695A770A795AA27A7958A2BBE
S1130A00441F4427441F440F440F440F482BC695EA
S1130A10D0E0C170D070DE01AA0FBB1FAA0FBB1FAC
S1130A20A42B62956F7070E061707070AB0100244C
S1130A30569547950794569547950794542F402DFE
S1130A404A2B229526952695237030E0217030702C
S1130A50C901880F991F82959295907F9827807F6E
S1130A609827842B82B980818064808300008081F0
S1130A708F7B808312B890818091080220818195B8
S1130A80822780718927808380910702882309F453
S1130A9062C09091070281E08927809307029091B8
S1130AA0010280E189278093010280E00E94B00561
S1130AB090930C0480930B0481E00E94B005909302
S1130AC00A048093090481E060E00E94590781E0F0
S1130AD061E00E94590782E060E00E94590782E0C9
S1130AE061E00E94590783E060E00E94590783E0B7
S1130AF061E00E94590784E060E00E94590784E0A5
S1130B0061E00E94590785E060E00E94590785E092
S1130B1061E00E94590786E060E00E94590786E080
S1130B2061E00E94590787E060E00E94590787E06E
S1130B3061E00E94590788E060E00E94590788E05C
S1130B4061E00E94590789E060E00E94590789E04A
S1130B5061E00E945907DF91CF911F910F91089591
S1130B602F923F924F925F926F927F928F929F92B9
S1130B70AF92BF92CF92DF92EF92FF920F931F93A7
S1130B80CF93DF93CDB7DEB728970FB6F894DEBFC7
S1130B900FBECDBF082F8091100483608093100492
S1130BA080E291E060E070E00E94900082E391E0D6
S1130BB060E070E00E94900084E391E060E070E007
S1130BC00E9490008EEA91E060E070E00E94900044
S1130BD084E291E060E070E00E9490008EE291E097
S1130BE060E070E00E94900080E391E060E070E0DB
S1130BF00E94900082E191E060E070E00E94900029
S1130C008CE191E060E070E00E94900084E191E06A
S1130C1060E070E00E94900086E191E060E070E0A6
S1130C200E94900088E191E06FEF7FE30E949000C2
S1130C308AE191E060E070E00E94900082E291E03D
S1130C4060E070E00E9490008CE091E060E070E071
S1130C500E94900088E091E060E070E00E949000C3
S1130C6084E091E06FEF7FE30E94900080E091E0E8
S1130C7060E070E00E94900080E191E060E070E04C
S1130C800E94900010920F040023C1F40F2EFCE385
S1130C904F2EF1E05F2EF02D0F2EFCE22F2EF1E00F
S1130CA03F2EF02D26E331E03A8329830F2EF8E21C
S1130CB06F2EF1E07F2EF02D81E017C00F2EFAE3A6
S1130CC04F2EF1E05F2EF02D0F2EFEE12F2EF1E0DE
S1130CD03F2EF02D88E391E09A8389830F2EFAE268
S1130CE06F2EF1E07F2EF02D80E482B9EDEDF0E07F
S1130CF080818064808380818F7B808312B8899A0D
S1130D0084B58F6084BD81E087BDEEE6F0E090811C
S1130D109260908380931104EDE0F0E0FC83EB8318
S1130D2018861F82802F90E08C010F5F1F4F0F2EBB
S1130D30F0E2EF2EF1E0FF2EF02D0F2EF8E1CF2E92
S1130D40F1E0DF2EF02D0F2EF4E0AF2EF1E0BF2EF8
S1130D50F02D0F2EF6E08F2EF1E09F2EF02D21E0E6
S1130D6030E00B8002C0220F331F0A94E2F73E8367
S1130D702D838F819885822B932B98878F83C30132
S1130D806F8178850E94900010920F0410921204D3
S1130D9080910F04882389F5C80160E00E946701EF
S1130DA0C3016F8178850E949000C1016FEF7FE3DA
S1130DB00E949000C70160E070E00E949000C601AC
S1130DC06FEF7FE30E949000C5016FEF7FE30E9405
S1130DD09000C4016FEF7FE30E94900089819A81A3
S1130DE06FEF7FE30E949000C20160E070E00E9418
S1130DF0900080910F04882379F280910D049091E2
S1130E000E04EAE4883A9E0720F48091AA0188231C
S1130E1051F48D819E81809590952F81388528236A
S1130E20392338872F8381E08093AA018B819C81A9
S1130E3001979C838B83EFEF8F3F9E0709F08FCF41
S1130E4080E091E060E070E00E94900082E091E038
S1130E5060E070E00E94900088E191E060E070E062
S1130E600E94900080E291E060E070E00E949000B7
S1130E708998EEE6F0E080818D7F80838F8198856C
S1130E8028960FB6F894DEBF0FBECDBFDF91CF9189
S1130E901F910F91FF90EF90DF90CF90BF90AF9094
S1130EA09F908F907F906F905F904F903F902F9086
S1130EB008952F923F924F925F926F927F928F92FA
S1130EC09F92AF92BF92CF92DF92EF92FF920F93D5
S1130ED01F93CF93DF93CDB7DEB7E4970FB6F894A3
S1130EE0DEBF0FBECDBFE82E062FDE011196E8E867
S1130EF0F1E088E101900D928150E1F7DE0159960D
S1130F00E0EAF1E08AE001900D928150E1F7CE2C05
S1130F10DD24FE01EC0DFD1D818D8093110480E222
S1130F2091E060E070E00E94900082E391E060E074
S1130F3070E00E94900084E391E060E070E00E9421
S1130F4090008EEA91E060E070E00E94900084E2FC
S1130F5091E060E070E00E9490008EE291E060E039
S1130F6070E00E94900080E391E060E070E00E94F5
S1130F70900082E191E060E070E00E9490008CE1DA
S1130F8091E060E070E00E94900084E191E060E014
S1130F9070E00E94900086E191E060E070E00E94C1
S1130FA0900088E191E06FEF7FE30E9490008AE176
S1130FB091E060E070E00E94900082E291E060E0E5
S1130FC070E00E9490008CE091E060E070E00E948C
S1130FD0900088E091E060E070E00E94900084E07E
S1130FE091E06FEF7FE30E94900080E091E060E089
S1130FF070E00E94900080E191E060E070E00E9467
S11310009000002319F520910B0430910C043EA3A9
S11310102DA30F2EFCE34F2EF1E05F2EF02D8CE27A
S113102091E09AA789A7E6E3F1E0F8A7EFA30F2ED2
S1131030F8E22F2EF1E03F2EF02D09E013E00F2E01
S1131040FAE08F2EF02DAA24A39423C02091090442
S113105030910A043EA32DA30F2EFAE34F2EF1E0A4
S11310605F2EF02D8EE191E09AA789A7E8E3F1E0E5
S1131070F8A7EFA30F2EFAE22F2EF1E03F2EF02D6A
S113108009E012E00F2EF4E18F2EF02DAA246894CB
S1131090A6F8F2E0FE1520F083E08093100403C06C
S11310A082E080931004C1016DA17EA10E94900092
S11310B0A2B8EDEDF0E080818064808380818F7B35
S11310C0808312B8899A84B58F6084BD81E087BD1E
S11310D0EEE6F0E08081826080839E012F5F3F4FC7
S11310E03AAB29ABC601880F991F8C0D9D1D880F43
S11310F0991F880F991F880F991F0297F801E80F0D
S1131100F91FFCABEBAB9E01275E3F4F3CA32BA327
S1131110C80CD11C0F2EF0E2AF2EF1E0BF2EF02D43
S11311200F2EF8E18F2EF1E09F2EF02D0F2EF4E01C
S11311306F2EF1E07F2EF02DE9A9FAA921913191CA
S1131140FAABE9AB3EA72DA7EBA9FCA9819191913C
S1131150FCABEBAB8C0108571F4F26E030E03CA7FB
S11311602BA70F2EF6E0EF2EF1E0FF2EF02DC80195
S11311700BA402C0969587950A94E2F70BA402C0CB
S1131180880F991F0A94E2F7E1E0F0E00BA402C093
S1131190EE0FFF1F0A94E2F7F8ABEFA78F01082BBD
S11311A0192BC201B8010E94900010920F041092F2
S11311B0120480910F04882389F5C60160E00E941F
S11311C06701C201B8010E949000C1016DA17EA116
S11311D00E94900089A59AA56FEF7FE30E9490007A
S11311E0C50160E070E00E949000C4016FEF7FE3EE
S11311F00E949000C3016FEF7FE30E949000C7013B
S11312006FEF7FE30E9490008FA198A56FEF7FE3BB
S11312100E94900080910F04882379F280910D043C
S113122090910E042DA53EA58217930750F480914A
S1131230AA01813031F48FA598A98095909508234F
S1131240192380910D0490910E04EDA5FEA58E172F
S11312509F0721F48091AA01813071F081E080938D
S1131260AA012BA53CA5215030403CA72BA78FEF0A
S11312702F3F380709F07BCFEBA9FCA9118300832A
S113128029A93AA98BA19CA12817390709F054CFA1
S11312908998EEE6F0E080818D7F8083E4960FB636
S11312A0F894DEBF0FBECDBFDF91CF911F910F9198
S11312B0FF90EF90DF90CF90BF90AF909F908F9072
S11312C07F906F905F904F903F902F900895FC0116
S11312D04283748363831182108208951F93CF9392
S11312E0DF93EC01162F0E94DD09282F3981832F0B
S11312F090E001966A8170E00E943610488150E0C7
S11313008417950729F4822F0E94E00980E011C018
S1131310EB81FC81E30FF11D1083898190E001963C
S11313206A8170E00E9436108983822F0E94E0094E
S113133081E0DF91CF911F910895CF93DF93EC016A
S11313400E94DD0929819881291718F0C22FC91B31
S113135003C0CA81C20FC91B0E94E0098C2FDF9110
S1131360CF910895FC012081862F90E0820F911D7A
S1131370628170E00E9436100380F481E02DE80F52
S1131380F91F808108951F93CF93DF93EC01162FEB
S11313900E94DD09482F8881212F30E0280F311D5C
S11313A06A81C90170E00E9436108883842F0E94EC
S11313B0E009DF91CF911F9108958FB7F8940895B4
S11313C08FBF0895881F8827881F089591E0883F5C
S11313D008F490E0892F0895282F30E0207F3070A2
S11313E0203C3105E9F1213C31058CF420393105EB
S11313F0E1F02139310524F42038310579F515C09F
S1131400203A310591F0203B310541F50EC0203ED4
S1131410310559F0213E310524F4203D3105F1F424
S11314201FC0203F3105D1F402C083E00895863FF8
S113143079F0873F38F4823FA9F0833F59F0813F28
S113144059F408C0883F40F08D3F10F08E3F20F0E3
S113145081E0089582E0089580E0089580E0089591
S113146082E0089583E008950F93342F022F462FCE
S11314704F70406B232F2F770F77DC01ED91FC9198
S113148063E070E009950F9108950F93342F022FB4
S1131490462F4F704069232F2F770F77DC01ED9192
S11314A0FC9163E070E009950F9108950F93342F38
S11314B0022F462F4F704068232F2F770F77DC01C0
S11314C0ED91FC9163E070E009950F9108950F93FD
S11314D0342F022F462F4F70406A232F2F770F7718
S11314E0DC01ED91FC9163E070E009950F910895A2
S11314F00F931F9320E24030520744F4A0EE403093
S11315005A073CF08A010050104E05C00FEF1FE34C
S113151002C000E010E0462F4F70406E202F2F775E
S1131520000F012F001F110B11950F77DC01ED91B6
S1131530FC9163E070E009951F910F9108950F935A
S1131540242F462F4F70406C2F77DC01ED91FC91D6
S113155062E070E000E009950F9108950F93242F45
S1131560462F4F70406D2F77DC01ED91FC9162E0C6
S113157070E000E009950F9108950F93DC01ED915F
S1131580FC9161E070E048EF20E000E009950F91E4
S113159008950F93DC01ED91FC9161E070E049EF57
S11315A020E000E009950F9108950F93DC01ED917F
S11315B0FC9161E070E04AEF20E000E009950F91B2
S11315C008950F93DC01ED91FC9161E070E04BEF25
S11315D020E000E009950F9108950F93DC01ED914F
S11315E0FC9161E070E04CEF20E000E009950F9180
S11315F008950F93DC01ED91FC9161E070E04EEFF2
S113160020E000E009950F9108950F93DC01ED911E
S1131610FC9161E070E04FEF20E000E009950F914C
S113162008950F93262F2F77DC01ED91FC9162E052
S113163070E041EF00E009950F9108950F931F9317
S1131640262F2F778B01000F012F001F110B1195EF
S11316500F77DC01ED91FC9163E070E042EF0995B6
S11316601F910F9108950F93262F2F77DC01ED9191
S1131670FC9162E070E043EF00E009950F9108955A
S11316800F93DC01ED91FC9161E070E046EF20E006
S113169000E009950F9108950F93462FDC01ED9119
S11316A0FC9161E070E020E000E009950F9108955D
S11316B00F93DC01ED91FC9109950F9108956F92C0
S11316C07F928F929F92AF92BF92CF92DF92EF92CE
S11316D0FF920F931F93CF93DF9300D00F92CDB758
S11316E0DEB74C016B015A016115710541F1EE241D
S11316F0FF240F2EF3E06F2E7724F02D19821A8227
S11317001B8286010E191F090430110508F083019C
S1131710B5016E0D7F1DCE010196402F512F0E9401
S11317204910C401B80149812A810B810E94580BD8
S113173083E090E0E80EF91EEC14FD04F8F20F903B
S11317400F900F90DF91CF911F910F91FF90EF9029
S1131750DF90CF90BF90AF909F908F907F906F90CD
S11317600895FC01738362830895FC017583648387
S11317700895FC01778366830895FC01718760876F
S11317800895FC01738762870895FC017587648757
S11317900895FC01778766870895FC01718B608B3F
S11317A00895FC01738B628B0895FC01758B648B27
S11317B00895FC01778B668B0895FC01718F608F0F
S11317C00895FC01738F628F0895FC01758F648FF7
S11317D00895FC01778F668F0895CF93DF93EC0112
S11317E01DA21FA21EA2BC01685D7F4F88519F4F9E
S11317F040EC0E9467091B821A821D821C821F8290
S11318001E82198618861B861A861D861C861F86CC
S11318101E86198A188A1B8A1A8A1D8A1C8A1F8A9C
S11318201E8A198E188E1B8E1A8E1D8E1C8E1F8E6C
S11318301E8E19A218A2DF91CF910895EF92FF9204
S11318400F931F93CF93DF93D62F662399F0042F22
S1131850152FC0E00F2EF8EEEF2EFF24F02DE80E2A
S1131860F91EF80161918F01C7010E946E09CF5FD3
S1131870CD17B9F7DF91CF911F910F91FF90EF90A2
S11318800895FC01718360830895FC0171A360A332
S11318900895AF92BF92CF92DF92EF92FF920F938F
S11318A01F93CF93DF9300D00F92CDB7DEB76C01B7
S11318B05B01F42EE22E102FDC0195968C91959706
S11318C08430E9F45A96ED91FC915B97309709F4D2
S11318D0EEC0CB01019763E070E00E942210CB01BF
S11318E0880F991F680F791F49832A830B834A2D18
S11318F0461BC6019E012F5F3F4F0995C8C0623049
S1131900710509F45FC06330710529F06130710518
S113191009F0B3C099C0842F90E0807F9070803A22
S1131920910529F1813A91053CF480389105C9F07B
S11319308039910591F50FC0803E9105F1F0803F0B
S1131940910509F1803B910541F5D6011296ED917F
S1131950FC91139724C0D6011496ED91FC91159730
S11319601EC0D6011696ED91FC91179718C0D601AA
S11319701896ED91FC91199712C0D6011A96ED9123
S1131980FC911B970CC0B2EF4B1709F090C0D60125
S11319901C96ED91FC911D9702C0E0E0F0E03097B9
S11319A009F485C0B2EFFB1631F4C60162EF4E2D87
S11319B0212F09956CC06F2D6F70C6014E2D212FFC
S11319C0099565C0842F90E0807F9070803D9105DB
S11319D061F0803F910579F0803C9105F9F4D601DE
S11319E01E96ED91FC911F971BC0D6015096ED9168
S11319F0FC91519715C0B3EF4B1731F4D6015296B1
S1131A00ED91FC9153970CC0B1EF4B1709F04FC007
S1131A10D6015496ED91FC91559702C0E0E0F0E0B8
S1131A20309709F444C0B3EFFB1619F081EFF816B0
S1131A3029F4C6016F2D4E2D099529C06F2D6F70A5
S1131A40C6014E2D099523C0842F0E94E6098823E0
S1131A5031F0D6015696ED91FC91579708C0B6EF38
S1131A60FB1629F5D6015896ED91FC9159973097BC
S1131A70F1F0C6016F2D09950AC064307105A8F410
S1131A8016C0C601B5014F2D2E2D012F0995D60183
S1131A905E96ED91FC915F97309789F0C601B50190
S1131AA04F2D2E2D012F09950AC0AA24BB24D6013F
S1131AB05C96ED91FC915D97309719F7E8CF0F9004
S1131AC00F900F90DF91CF911F910F91FF90EF90A6
S1131AD0DF90CF90BF90AF900895EF92FF920F9355
S1131AE0CF93DF937C01C62F862F0E94E6098823BB
S1131AF091F0D7019596DC91959781E095968C931A
S1131B00C70161E070E04C2F20E000E00E94490C26
S1131B10F701D5A3B7C08C2F0E94E209882309F4EA
S1131B2073C0D70195968C919597843049F092961D
S1131B30CC93929781E090E097969C938E9396979E
S1131B408C2F0E94EC09813041F0813000F1823009
S1131B50A1F0833009F04FC014C081E0F70185A3E0
S1131B60C70161E070E04C2F20E000E00E94490CC6
S1131B70D70195961C92959785C082E0F70185A3BD
S1131B8081C083E0D70195968C9395977BC0C03F25
S1131B9019F0C73F59F50AC084E0F70185A380EF27
S1131BA082A381E090E097A386A36CC0D7019696A8
S1131BB02D913C919797C90163E070E00E94221037
S1131BC0F701E80FF91F87EF82A3B9016F5F7F4F19
S1131BD0F70177A366A3C70142A123A104A10E9430
S1131BE0490CD70195961C9295974CC0F70115A204
S1131BF017A216A247C0D70195961C92959797965F
S1131C001C921E9296973EC0F70125A12223D1F182
S1131C1006A0F7A1E02DCF0163E070E00E9422103E
S1131C20AC018E0D9F1DDC019296CC939297BF015F
S1131C306F5F7F4FF70177A366A34130510591F0A1
S1131C4042305105F9F4C70142A123A104A10E9425
S1131C50490CF70185A18430A9F081E090E097A3B5
S1131C6086A310C0223071F4C70142A123A100E071
S1131C700E94490CF70185A1843021F081E090E0B5
S1131C8097A386A3DF91CF910F91FF90EF900895D2
S1131C90CF92DF92EF92FF920F931F93CF93DF9334
S1131CA06C01DC019096ED91FC919197309709F0CD
S1131CB009950F2EF8EEEF2EFF24F02DEC0CFD1CF1
S1131CC0C7010E949D09C82FD0E0209799F000E039
S1131CD010E0C70160E00E94B209682FC6010E94AB
S1131CE06D0DC70161E00E94C3090F5F1F4F0C1700
S1131CF01D0778F3DF91CF911F910F91FF90EF9023
S1131D00DF90CF9008959C0167E070E00E9422105C
S1131D10482F882381F0C90167E070E00E942210F7
S1131D20CB01880F991F880F991F880F991F01965F
S1131D30840F911D0895C90167E070E00E9422108C
S1131D40CB01880F991F880F991F880F991F089539
S1131D50482F4770A1F09C01369527953695279515
S1131D6036952795C901880F991F880F991F880FE9
S1131D70991F821B930B0197840F911D08959C0159
S1131D80369527953695279536952795C901880F59
S1131D90991F880F991F880F991F821B930B089511
S1131DA02F923F924F925F926F927F928F929F9267
S1131DB0AF92BF92CF92DF92EF92FF920F931F9355
S1131DC0CF93DF9300D000D000D0CDB7DEB71C0195
S1131DD07A8369833A01CA0167E070E00E942210A5
S1131DE02B015B0161157105B1F18101E980FA8074
S1131DF0CC24DD24882499241E830D83F8011192B8
S1131E00FC82EB82A401AB81BC812D91BC83AB83AA
S1131E104F5F5F4F822F90E080789070BC01042E5A
S1131E2002C0759567950A94E2F7AD81BE818C91E5
S1131E30862B8C932F7721934730510521F70894F3
S1131E40C11CD11C085F1F4FE7E0F0E0EE0EFF1E3F
S1131E50CA14DB0489F6C30167E070E00E94221013
S1131E608823D9F18201000F111F000F111F000FE9
S1131E70111F7801E418F508D101A00FB11F1C92BD
S1131E80682F70E06115710519F1E981FA81EE0E90
S1131E90FF1EC8010196280E391E20E030E0F7012C
S1131EA041917F012F5F3F4F842F90E080789070A5
S1131EB0022E02C0959587950A94E2F79C91892B8E
S1131EC08C934F77F10141931F012617370738F39D
S1131ED0C8010196860F971F07C0C201880F991F7A
S1131EE0880F991F880F991F26960FB6F894DEBFA6
S1131EF00FBECDBFDF91CF911F910F91FF90EF9057
S1131F00DF90CF90BF90AF909F908F907F906F9015
S1131F105F904F903F902F9008956F927F928F9291
S1131F209F92AF92BF92CF92DF92EF92FF920F9364
S1131F301F93CF93DF933C014B015A01423051056B
S1131F4008F46FC07A01F694E794F694E794F69453
S1131F50E794E114F10429F1EB01B30100E010E08E
S1131F60CC24DD24DE011196FB01A6012D912F77EF
S1131F7020834F5F5F4F888190E0042E02C0880F5A
S1131F80991F0A94E2F78078282B21934730510552
S1131F9069F70F5F1F4F2896695F7F4F0E151F0566
S1131FA009F75A2D577099F1E701CC0FDD1FCC0FBB
S1131FB0DD1FCC0FDD1F8E010E191F09652F70E088
S1131FC061507040F9F0CE010196D401A80FB91FF9
S1131FD0F301E00FF11F20E030E0C80DD91D4D9151
S1131FE04F7740832F5F3F4F888190E0022E02C0DD
S1131FF0880F991F0A94E2F78078482B419326179B
S1132000370768F3C8010197850F911D0CC0C701FC
S1132010880F991F880F991F880F991F8E199F0980
S113202002C080E090E0DF91CF911F910F91FF906B
S1132030EF90DF90CF90BF90AF909F908F907F9064
S11320406F900895AA1BBB1B51E107C0AA1FBB1FB9
S1132050A617B70710F0A61BB70B881F991F5A9530
S1132060A9F780959095BC01CD01089597FB092EA1
S113207007260AD077FD04D0E5DF06D000201AF445
S1132080709561957F4F0895F6F7909581959F4FD0
S11320900895FB01DC0102C001900D9241505040B3
S10B20A0D8F70895F894FFCF6E
S11320A805030303040302030603000307030103F0
S11320B805000102000203020602070202020401EB
S11320C804020502030101000400050106000200E0
S11320D80700030000010701060101010201D711ED
S11320E8CD5D1B5EDE15DF5F1C011A0118011601A8
S11320F81401120110010E010C010A010801060164
S1132108040102010001380136013401AE01320133
S113211830012E012C012A0128012601AC012401D9
S1132128220120011E014F004F95ED8C04858D7D01
S11321388176DB6F9369A7630F5EC758CC53184F3A
S10F214801020401020408102040010000
S9030000FC
