S01A00006D6F6E61706F6C6C6F2D6669726D776172652E73726563AF
S11300000C9432000C944F000C944F000C944F004D
S11300100C944F000C944F000C944F000C949603D6
S11300200C944F000C948A030C944B030C944F00D3
S11300300C944F000C948F040C944F000C944F00BC
S11300400C944F000C944F000C944F000C944F00F0
S11300500C944F000C944F000C944F000C944F00E0
S11300600C944F0011241FBECFEFD0E1DEBFCDBFF3
S113007012E0A0E0B1E0ECE4FFE302C005900D92D1
S1130080A43BB107D9F714E0A4EBB2E001C01D9280
S1130090AB3CB107E1F70E94C4040C94A41F0C9478
S11300A00000EAE7F0E0808184608083ACE7B0E0A0
S11300B08C9180648C93AEE7B0E08C9181608C93DA
S11300C08081806880830895FC0183818F7082B968
S11300D0AAEDB0E04C91838182958F70877021E006
S11300E030E0B90102C0660F771F8A95E2F7CB01B1
S11300F0809584238C937DE07A95F1F70000AAE73C
S1130100B0E08C9180648C938C9186FDFDCFAAED38
S1130110B0E04C91838182958F70877021E030E04C
S1130120B90102C0660F771F8A95E2F7CB01842BD1
S11301308C938091780090E040917900342F20E0F6
S1130140822B932B08954F925F926F927F928F929E
S11301509F92AF92BF92CF92DF92EF92FF920F9352
S11301601F93CF93DF93909188039F5F8091B40294
S1130170989F802D112480938903882499246624D0
S11301807724FF24442455240F2EF1E9CF2EF3E0E5
S1130190DF2EF02D0F2EF8E8AF2EF3E0BF2EF02D5A
S11301A04CC08150801B0E948601282FF60180815B
S11301B0823041F0833018F4813049F50AC085302B
S11301C030F507C0CE01820F911D883091056CF087
S11301D013C08F2D90E00596880F991F8A0D9B1DE3
S11301E02E19FC012083F39412C0245FCE01820FE8
S11301F0911D88309105CCF38F2D90E00596880FE2
S1130200991F8A0D9B1D2E0DFC012083F3940F5F13
S11302101F4F8091B402282F30E0021713070CF20D
S11302200894611C711C84EF9FEF880E991EF501E0
S1130230808190E08615970544F08091B40288236C
S113024079F3E82CE4018201ACCFDF91CF911F91C7
S11302500F91FF90EF90DF90CF90BF90AF909F9061
S11302608F907F906F905F904F90089590918A0344
S1130270A92FB0E01596E8E8F3E0AA0FBB1FAE0F74
S1130280BF1F8C91858384838185833019F08430EA
S113029099F528C080918B03813091F49F5F9093EE
S11302A08A0380918903981780F1813011F082507C
S11302B001C080E080938A0382E080938B030895D9
S11302C0992361F481E090918903913009F480E0ED
S11302D080938A0381E080938B03089591509093D7
S11302E08A0308950E94C81E6091890370E00E94E9
S11302F0671E80938A0308959F5F90938A03809179
S11303008903981710F010928A030895E82FF0E0FB
S1130310EE0FFF1FE854FE4F8081089580919103F2
S1130320882319F080918D0308958091B502089572
S11303300F931F93CF93DF93182F062F8AEB91E02F
S1130340EC012297BE014EE050E00E94E11E1883AA
S113035009831093B502DF91CF911F910F910895F6
S1130360CF93C091B801C81741F0EAEBF1E041E046
S113037050E09081981759F402C040E050E0FA012F
S1130380EE0FFF1FE854FE4F8FEF808307C04F5FCF
S11303905F4F32964830510561F740E050E0CA01A2
S11303A0880F991FBC0166547E4F40955095485F55
S11303B05F4F440F551F88549E4F0E94E11E8FEFDC
S11303C08093C6018091B8018F3F19F4C093B502A0
S11303D002C08093B502CF9108958DE0809381008F
S11303E082E080936F000895909389008093880041
S11303F020918400309185008217930728F4019797
S113040090938500809384000895DC016BB978B9DA
S1130410A098A09A8C91877082B966E06A95F1F7EA
S113042000C0EAEDF0E040818C9186958695869532
S1130430877021E030E0B90102C0660F771F8A950A
S1130440E2F7CB01842B808376E07A95F1F700C044
S113045080819C91969596959695977002C0220FEF
S1130460331F9A95E2F7209528232083089583B3B8
S1130470836083BB8FEF8AB997B187B9E9EDF0E068
S113048080818F608083EAEDF0E08081807F8083CB
S113049084B3836084BBA198A19AA098A09A08957C
S11304A00F931F93CF93DF93CDB7DEB72E970FB67D
S11304B0F894DEBF0FBECDBF28E0298321E02A8354
S11304C022E02B8324E02C83DE011596E7EEF1E095
S11304D02AE001900D922150E1F72FEF22B9EAEDC5
S11304E0F0E020812061208320812F7E2083062F4D
S11304F010E0DE01A00FB11F11962C91119722B9C3
S113050020812062208320812F7D2083482F592F32
S113051087E24031580710F04FE057E2CA01969540
S11305208795969587959A0136952795280F391FB3
S1130530C901929582958F7089279F708927820FB0
S1130540931F292F3327820F931F9695879596958E
S1130550879596958795282F220F322F330F330FC7
S1130560230FE42FE21B61E070E0EA3010F460E056
S113057070E0680F791F9B0136952795369527956E
S1130580AB0156954795240F351FC9019295829565
S11305908F7089279F708927820F931F292F3327F4
S11305A0820F931F9695879596958795969587952F
S11305B0982F990F292F220F220F920F691B91E078
S11305C06A3008F490E0890F41EF51E0DA01A60F98
S11305D0B11D3C91282F26952695982F9695920F1C
S11305E0292F22952F70920F969596959695292FDF
S11305F0220F622F660F660F260F821BDA01A80FE7
S1130600B11D2C914E0F511DFA0140814093B80247
S11306103093B9022093BA0221E08A3008F420E032
S1130620920F9093BB02F801E854FD4F8081FE01C4
S1130630E80FF11D858190910B03923011F48062D3
S113064003C0913009F488E0809582B9EAEDF0E0C6
S113065080818061808380818F7E80832E960FB617
S1130660F894DEBF0FBECDBFDF91CF911F910F91E4
S11306700895CF93662369F4C091BC026C2F0E9445
S113068050028C2F8F5F8093BC02C33011F4109200
S1130690BC02CF9108951F920F920FB60F921124AE
S11306A08F939F93EF93FF9380918003815087BD35
S11306B0809181038823A1F410927E0381E08093CA
S11306C0AF0280938103E1E8F0E0808190917F03A1
S11306D0892B8083EFE6F0E080818160808311C004
S11306E0E4E8F0E08081918190937D0380937C0322
S11306F01092810081E080937E0310928103118225
S11307001082FF91EF919F918F910F900FBE0F90E8
S11307101F9018951F920F920FB60F9211241092EA
S1130720AF020F900FBE0F901F9018951F920F925B
S11307300FB60F9211242F933F934F935F936F93B0
S11307407F938F939F93AF93BF93EF93FF93809186
S1130750D20386959091D303981751F48091900316
S1130760813031F480919103882311F089982F9876
S11307708091D3038F5F8093D3039091D203891721
S113078091F41092D30380919003813061F48091AD
S11307909103882341F08091B402882321F00E94C0
S11307A03601899A2F9AFF91EF91BF91AF919F9152
S11307B08F917F916F915F914F913F912F910F9006
S11307C00FBE0F901F9018956A3F09F440C06C3F0C
S11307D009F449C0683F09F049C08091D9038F5F8B
S11307E08093D9039091D803891741F42C9A86E019
S11307F08A95F1F700C01092D9032C988091910347
S11308008823A1F140918F0320918E0330E0842F3F
S113081090E04695841B91092817390711F48998AB
S11308202F9890918E0380918F03981751F4109212
S11308308E038091B402882321F00E943601899AA4
S11308402F9A80918E038F5F80938E030895109268
S1130850D90380918F0380938E0388EF8093900354
S113086010928A03089581E0809390030895842F61
S11308700E94B0018091B40281508093B40290919F
S11308809103992391F0882369F480918C038093D8
S11308908D0380919003813011F410928A0381E0DA
S11308A080938B030E94A3000895882309F48998F8
S11308B00895842F9091030390FF06C02C9A96E02C
S11308C09A95F1F700C02C988093BE02222359F424
S11308D00E94B0018091B40281508093B4028823B5
S11308E0A1F489980895622F0E9498018091B4021E
S11308F08F5F8093B40280919103882329F00E9432
S1130900A30010928A030895899A089587E2809338
S1130910C4001092C50088E98093C10008951F9215
S11309200F920FB60F9211242F933F934F935F931F
S11309306F937F938F939F93AF93BF93EF93FF93A3
S1130940CF93DF930F92CDB7DEB78091C600898332
S11309508EED93E061E0AE014F5F5F4F0E94301A6D
S11309600F90DF91CF91FF91EF91BF91AF919F9144
S11309708F917F916F915F914F913F912F910F9044
S11309800FBE0F901F901895C0E8C5BFC5BF279A2A
S1130990249A819A9A9AA2980E941C08A9EDB0E020
S11309A08C91806C8C93EAEDF0E08081806C808384
S11309B081B18FEF81B992B182B98C9180638C93AC
S11309C080818F7C80838298ECEDF0E0808180626E
S11309D0808312B8EDEDF0E08081806280838081B5
S11309E08F7D808312B8C09303030E9451000E943C
S11309F03702CEEDD3E0CE010E94FF19CE0169E5A6
S1130A0074E00E94C719CE0167E374E00E94CB1919
S1130A10CE0164EE73E00E94EB190E9486040E94EA
S1130A204108C1E0C093070378940E942D1681E029
S1130A300E94BA0A0E94ED0188E18093D2031092C9
S1130A408A03C0939003109291030EED13E00F2ECE
S1130A50F4E8EF2EF3E0FF2EF02D0F2EFBE0CF2E67
S1130A60F3E0DF2EF02DBB246894B1F8D0E8C80180
S1130A700E945A1C8091FD019091FE0160E00E9449
S1130A8039030E9470050E94FD058091BD02982FD4
S1130A909F5F9093BD02853051F71092BD02109272
S1130AA0C502F701C0810E94E1168C27F6019081EE
S1130AB0913011F4CD2F01C0C0E0C82BF701C083E1
S1130AC00E9441088091C502882339F00E94A80F32
S1130AD0F6018081882309F4B0820E943510C7CFC3
S1130AE0BF92CF92DF92EF92FF920F931F93CF9317
S1130AF0DF93C0E0D1E006EC12E00F2EFCE3CF2E32
S1130B00DD24F02DCC0EDD1E0F2EFBE0EF2EF3E0E6
S1130B10FF2EF02DBB246894B1F8888199810E943E
S1130B2064009093C0028093BF02E881F981408100
S1130B302181522F5370841B950B9595879595951C
S1130B408795840F951F8083892F83702C7F282B92
S1130B502183E991F991928120818181382F337029
S1130B60D7018C91813019F08381882324F0F80116
S1130B703183208314C0492F4350C901959587952B
S1130B8095958795942F981B9A3F48F4D801119610
S1130B903C932E9383818F778383F701B0820E5F1A
S1130BA01F4FCC15DD0509F0B8CF8CE791E00E940A
S1130BB064009093C0028093BF0220917C01409115
S1130BC07D01342F3370821B930B959587959595F2
S1130BD08795280F391F20937C01832F83704C7FC6
S1130BE0482B40937D01DF91CF911F910F91FF908E
S1130BF0EF90DF90CF90BF900895CF93DF936091F3
S1130C00C6027091C70262957295707F7627607FE5
S1130C10762784EE91E00E9405026091C8027091EB
S1130C20C90262957295707F7627607F762783EE7E
S1130C3091E00E9405026091CA027091CB02660F96
S1130C40771F660F771F660F771F82EE91E00E9471
S1130C5005026091CC027091CD0262957295707F0D
S1130C607627607F762787EB92E00E9405026091E9
S1130C70CE027091CF02660F771F660F771F660F43
S1130C80771F81EE91E00E9405026091D00270917D
S1130C90D10262957295707F7627607F762780EE09
S1130CA091E00E9405026091D2027091D302629594
S1130CB07295707F7627607F76278FED91E00E9492
S1130CC005026091D4027091D50262957295707F8D
S1130CD07627607F76278EED91E00E940502809151
S1130CE0D8029091D902C0E0D2E0C81BD90B609120
S1130CF077037091780360507E4F8091D602909173
S1130D00D702681B790B6C0F7D1F8DED91E00E945B
S1130D1005026091790370917A036C0F7D1F8CED4D
S1130D2091E00E9405026091DA027091DB02629503
S1130D307295707F7627607F76278BED91E00E9415
S1130D4005026091DE027091DF0262957295707FF8
S1130D507627607F76278AED91E00E9405026091F4
S1130D60E0027091E10262957295707F7627607F50
S1130D70762789ED91E00E94050260917C018091C3
S1130D807D01782F737062957295707F7627607FEE
S1130D90762788ED91E00E9405026091E20270914D
S1130DA0E30262957295707F7627607F762787EDE0
S1130DB091E00E9405026091E4027091E50262955F
S1130DC07295707F7627607F762786ED91E00E948A
S1130DD005026091E6027091E70262957295707F58
S1130DE07627607F762785ED91E00E9405020E94B8
S1130DF08E01C82F883008F4C8E060910703409141
S1130E008A0350E024E630E0429FC001439F900DE6
S1130E10529F900D1124860F911D9093FE01809393
S1130E20FD018C2F885063E173E00E945616BC01CB
S1130E3080E090E02091EA023091EB0240E050E043
S1130E400E94341EDC01CB01072E7AE0B695A795EB
S1130E50979587957A95D1F7702D6091E8027091F6
S1130E60E90262957295707F7627607F7627860FF8
S1130E70971FBC0180E46030780710F06FEF7FE3C8
S1130E8084ED91E00E9405026091EC027091ED0204
S1130E9062957295707F7627607F762782ED91E068
S1130EA00E9405026091EE027091EF0262957295C4
S1130EB0707F7627607F762781ED91E00E9405029E
S1130EC06091F0027091F10262957295707F7627BD
S1130ED0607F762780ED91E00E9405026091F20226
S1130EE07091F30262957295707F7627607F762702
S1130EF08FEC91E00E9405026091F4027091F5027A
S1130F0062957295707F7627607F76278EEC91E0EC
S1130F100E9405026091F6027091F7026295729543
S1130F20707F7627607F76278DEC91E00E94050222
S1130F306091F8027091F90262957295707F76273C
S1130F40607F76278CEC91E00E9405026091FC02A0
S1130F507091FD0262957295707F7627607F762787
S1130F608AEC91E00E9405026091FA027091FB0202
S1130F7062957295707F7627607F76278BEC91E07F
S1130F800E940502609100037091010362957295BD
S1130F90707F7627607F762788EC91E00E940502B7
S1130FA06091FE027091FF0262957295707F7627C0
S1130FB0607F762789EC91E00E9405028C2F6FE018
S1130FC00E949A0D65E573E00E945616BC0186EEF8
S1130FD091E00E9405028C2F60EF0E949A0D63E35A
S1130FE073E00E945616BC0185EE91E00E94050252
S1130FF0A198A19A2091880180918901382F33709A
S113100083EF94E0821B930B9093D5038093D403D6
S11310102091D6033091D7038217930711F00E94D1
S1131020F4018091D4039091D5039093D7038093D6
S1131030D603DF91CF91089584B1876284B9ECED32
S1131040F0E080818C65808385B1897D85B9EDED83
S1131050F0E08081837F808380E58CBD8081877F01
S113106080838081877F8083808188608083808182
S11310708F7E808308958EBD0DB407FEFDCF8EB59F
S113108008952D9A809106030E943B089091C50211
S1131090982B9093C5022091C302982F9227892FF1
S11310A082278093C30289238093C4029091820390
S11310B0892780938203809105030E943B089091C5
S11310C0C502982B9093C5022091C102982F9227B4
S11310D0892F82278093C10289238093C202909131
S11310E08303892780938303809104030E943B0830
S11310F0809103030E943B0880910B03833011F419
S113110020E801C020E080918403881F8827881F7D
S11311108295880F880F807C90910203892B822B03
S11311200E943B08EDEDF0E08081877F8083808121
S1131130886080832D980895A0E0B1E09D01245C2F
S11311403F4FED91FC91119780814181942F9370D1
S113115095958795959587958283ED91FD918381EA
S113116080688383A217B30761F70895E0E0F1E094
S1131170CF01CC96A191B19113962C9113972F770F
S113118013962C931397E817F907A1F708951F9363
S1131190CF93DF93CDB7DEB7AB970FB6F894DEBF2E
S11311A00FBECDBF182FE2EEF2E02091E202822FB3
S11311B08295807F22952F709091E302937092958F
S11311C0907FDF015A973C91532F550F550F4A8159
S11311D04370452B4A83632F6295669566956370C9
S11311E011964C914370440F440FDF0158973C9182
S11311F0532F5295507F462B452B4B83632F62957B
S11312006F7011964C9143704295407FDF01569761
S11312103C91532F5295550F550F507C462B452B1F
S11312204C8311964C914295440F440F407C369563
S11312303695342B3D83DF0154973C913E831196C0
S11312404C91DF0152973C91532F550F550F43702A
S1131250452B4F83632F629566956695637011964F
S11312604C914370440F440FDF0150973C91532F2E
S11312705295507F462B452B4887632F62956F709C
S113128011964C9143704295407FDF011E973C912B
S1131290532F5295550F550F507C462B452B49879C
S11312A011964C914295440F440F407C36953695E7
S11312B0342B3A87DF011C973C913B8711964C9164
S11312C0DF011A973C91532F550F550F4370452B4F
S11312D04C87632F629566956695637011964C9161
S11312E04370440F440FDF0118973C91532F5295DC
S11312F0507F462B452B4D87632F62956F70119657
S11313004C9143704295407FDF0116973C91532FD7
S11313105295550F550F507C462B452B4E871196F1
S11313204C914295440F440F407C36953695342BAE
S11313303F87DF0114973C91388B11964C91DF0164
S113134012973C91532F550F550F4370452B498BE2
S1131350329536953695337011964C914370440FFF
S1131360440F832B842B8A8B8091E402382F32958F
S1131370330F330F307C922B932B9B8B938192955D
S1131380990F990F907C86958695892B8C8B8091EB
S1131390E6028D8B95818091E802282F220F220F7F
S11313A09370922B9E8B382F3295369536953370E9
S11313B097819370990F990F8091EA02282F2295B3
S11313C0207F932B922B9F8B382F32953F709185E2
S11313D093709295907F8091EC02282F2295220F92
S11313E0220F207C932B922B988F93859295990FA3
S11313F0990F907C86958695892B898F8091EE0232
S11314008A8F95858091F002282F220F220F9370E6
S1131410922B9B8F382F329536953695337097855E
S11314209370990F990F8091F202282F2295207FB3
S1131430932B922B9C8F382F32953F709189937008
S11314409295907F8091F402282F2295220F220FEB
S1131450207C932B922B9D8F93899295990F990FB2
S1131460907C86958695892B8E8F8091F6028F8F3E
S113147095898091F802282F220F220F9370922BC6
S113148098A3382F32953695369533709789937093
S1131490990F990F8091FA02282F2295207F932B80
S11314A0922B99A3382F32953F70918D937092951A
S11314B0907F8091FC02282F2295220F220F207CFE
S11314C0932B922B9AA3938D9295990F990F907CBD
S11314D086958695892B8BA38091FE028CA3958D8E
S11314E080910003282F220F220F9370922B9DA32B
S11314F082958695869583702EA1207F978D937013
S1131500990F990F822B892B8EA3809102038FA3AD
S11315108091030388A78091040389A78091050320
S11315208AA7809106038BA70E949C08809184035C
S11315308F778093840310920B03212F30E08BE28A
S113154090E0289FB001299F700D389F700D1124E1
S113155060507040CE0101964BE250E00E94091F9A
S1131560AB960FB6F894DEBF0FBECDBFDF91CF911F
S11315701F9108951F93CF93DF93CDB7DEB7C35464
S1131580D0400FB6F894DEBF0FBECDBF90E02BE283
S113159030E0829FB001839F700D929F700D1124E3
S11315A060507040CE0101964BE250E00E94F31E61
S11315B0E2EEF2E08A89282F22952F709B89392F39
S11315C03295307F322B292F22952F702370309340
S11315D0E2022093E302DF015A974A814695469539
S11315E02B81322F3295330F330F307C432B322F24
S11315F03695369533704C9311963C93DF0158978A
S1131600322F32953F702C81422F4295407F432BDD
S1131610322F32953F7033704C9311963C93DF0117
S1131620569722952695269523703D81432F440F86
S1131630440F242B32953695369533702C9311969E
S11316403C93DF0154974E812F81322F33704C939A
S113165011963C93DF015297322F369536952885A3
S1131660422F4295440F440F407C432B322F369532
S1131670369533704C9311963C93DF015097322F7B
S113168032953F702985422F4295407F432B322F5C
S113169032953F7033704C9311963C93DF011E9743
S11316A022952695269523703A85432F440F440F9F
S11316B0242B32953695369533702C9311963C93A2
S11316C0DF011C974B852C85322F33704C93119678
S11316D03C93DF011A97322F369536952D85422F8C
S11316E04295440F440F407C432B322F3695369558
S11316F033704C9311963C93DF011897322F329537
S11317003F702E85422F4295407F432B322F3295D6
S11317103F7033704C9311963C93DF0116972295DA
S11317202695269523703F85432F440F440F242B81
S113173032953695369533702C9311963C93DF0190
S1131740149748892989322F33704C9311963C930E
S1131750DF01129726952695382F3295330F330FD4
S1131760307C232B8695869583702C9311968C93CD
S113177092959695969593708C89282F220F220F17
S1131780922B82958695869583709093E402838349
S11317902D898E89982F93702093E6029583982F34
S11317A0969596958F89282F2295220F220F207CBB
S11317B0292B982F9695969593702093E8029783FA
S11317C0982F92959F70888D282F2295207F292B02
S11317D0982F92959F7093702093EA029187829537
S11317E0869586958370998D292F220F220F822B3F
S11317F092959695969593708093EC0293872A8D93
S11318008B8D982F93702093EE029587982F969541
S113181096958C8D282F2295220F220F207C292B20
S1131820982F9695969593702093F0029787982F0A
S113183092959F708D8D282F2295207F292B982F8C
S113184092959F7093702093F202918B8295869566
S1131850869583709E8D292F220F220F822B9295BD
S11318609695969593708093F402938B2F8D88A10F
S1131870982F93702093F602958B982F96959695B2
S113188089A1282F2295220F220F207C292B982F03
S11318909695969593702093F802978B982F92952E
S11318A09F708AA1282F2295207F292B982F92950B
S11318B09F7093702093FA02918F829586958695F6
S11318C083709BA1292F220F220F822B929596952C
S11318D0969593708093FC02938F2CA18DA1982FE1
S11318E093702093FE02958F982F969596958EA1CE
S11318F0282F2295220F220F207C292B869586954E
S1131900982F937020930003978F7FA17093020305
S113191068A56093030389A5809304039AA5909313
S113192005031BA510930603DE019C96EFEFF1E07F
S113193028E001900D922150E1F7E92FEF71F0E0DA
S11319409F01220F331F220F331FA901440F551F7C
S1131950440F551F440F551F421B530B4E0F5F1F5F
S1131960559547955595479555954795559547955B
S11319704770FE01E40FF11D24A520930C03DE0142
S1131980D496E7E0F2E028E001900D922150E1F7CF
S1131990292F30E0207E3070359527953595279591
S11319A0359527958370282B422F50E0CA01880F64
S11319B0991F880F991F9C01220F331F220F331F79
S11319C0220F331F281B390B420F531FCA01959551
S11319D0879595958795959587959595879587701E
S11319E0FE01E80FF11D84A980930D03DE01DC964E
S11319F0EFE0F2E088E001900D928150E1F7607F22
S1131A00462F50E0CA01880F991F880F991F9C0127
S1131A10220F331F220F331F220F331F281B390BB2
S1131A20420F531FCA01959587959595879595956E
S1131A308795959587958770FE01E80FF11D84AD14
S1131A4080930E03212F2695279522272795812FF2
S1131A508170282B812F8695869590E081709070F7
S1131A60880F991F880F991F282B812F869586959B
S1131A70869590E081709070880F991F282B812F94
S1131A8082958F7090E08170907082959295907F8E
S1131A909827807F9827282B812F82958695877099
S1131AA090E081709070880F991F82959295907F35
S1131AB09827807F9827282B812F82958695869555
S1131AC0837090E0817090700024969587950794B8
S1131AD0969587950794982F802D822B8093820367
S1131AE0872F90E081709070880F991F880F991F3D
S1131AF0880F991F90918403937F892B111F1127BD
S1131B00111F110F110F812B809384030E949C08D5
S1131B10809184038F778093840310920B03CD5BB1
S1131B20DF4F0FB6F894DEBF0FBECDBFDF91CF916C
S1131B301F91089590910C03603F11F490910D034F
S1131B40292F220F920F990F990F890F893808F0C6
S1131B5088E8089580918203982F96959695969596
S1131B6090FF0EC090910C039F5F90930C039530EF
S1131B7019F494E090930C0398E0892780938203EE
S1131B8080918303982F96959695969590FF0BC018
S1131B9090910C03992319F0915090930C0398E0C1
S1131BA089278093830380910C03E1E2F2E0E80F3C
S1131BB0F11D81E090E0008002C0880F991F0A9413
S1131BC0E2F7582F8093050390918303292F2695DC
S1131BD0269520FF0EC080910D038F5F80930D0327
S1131BE0853019F484E080930D0384E09827909362
S1131BF0830390918303292F269520FF0BC08091A6
S1131C000D03882319F0815080930D0382E09827F7
S1131C1090938303409104034C7F40930403909179
S1131C200D03933088F0ECE1F2E0E90FF11D21E0BF
S1131C3030E0C901008002C0880F991F0A94E2F7BE
S1131C40842B809304030895ECE1F2E0E90FF11D85
S1131C5021E030E0C901008002C0880F991F0A9476
S1131C60E2F7852B809305030895809183038823ED
S1131C7064F480588093830380910E038F5F809374
S1131C800E03853011F410920E03E0910E03F0E080
S1131C90EE0FFF1FEA5DFD4F81E090E0018002C07E
S1131CA0880F991F0A94E2F7909103039F70892B80
S1131CB080930303808182B9EDEDF0E0808180623E
S1131CC0808380818F7D808308958091830380FF4A
S1131CD00FC091E089278093830380910F038F5F66
S1131CE080930F03853011F410920F031092D903DF
S1131CF060910303607F6093030320910F03222309
S1131D0071F030E02150304041E050E0CA0102C09F
S1131D10880F991F2A95E2F7862B809303038091FD
S1131D20030390E08F7090708230910589F08330C6
S1131D30910524F481309105B9F407C084309105EC
S1131D4059F08830910581F40BC01092D80308959E
S1131D5088E18093D80308958CE08093D803089594
S1131D6086E08093D80308951092D8030895809153
S1131D708303982F929596959695937090FF15C02E
S1131D8090E4892780938303809110038F5F80936D
S1131D901003853011F4109210038091900388236E
S1131DA011F410928E031092D30360910403637CA8
S1131DB06093040320911003222371F030E02F5F1D
S1131DC03F4F41E050E0CA0102C0880F991F2A9595
S1131DD0E2F7862B809304038091040390E08C73D4
S1131DE0907088309105A1F08930910524F48430F5
S1131DF0910501F507C08031910581F0803291058C
S1131E00C9F412C080E380938F038093D2030895B2
S1131E1088E180938F038093D20308958CE08093AC
S1131E208F038093D203089586E080938F03809379
S1131E30D203089584E080938F038093D20308959E
S1131E4080918303803169F410928303809111039C
S1131E508F5F80931103843011F410921103109258
S1131E608A03809102038D7F80930203809104038F
S1131E708F738093040380911103809388030E94DD
S1131E80A30080911103823051F0833071F08130CE
S1131E9089F4809102038260809302030895809103
S1131EA0040380648093040308958091040380688C
S1131EB080930403089580918303982F92959695B7
S1131EC0977090FF0FC090E28927809383038091DD
S1131ED012038F5F80931203853011F41092120362
S1131EE010928A0390910203937C90930203809151
S1131EF01203813079F0813028F0823091F0833000
S1131F00F1F416C0109291038091B4028823E9F48D
S1131F1089981BC094629093020381E0809391039B
S1131F2014C094619093020382E0809391030DC0E6
S1131F3094639093020383E08093910306C09C60B2
S1131F409093020384E0809391030E94A300089578
S1131F50909182038091840386958695682F679576
S1131F6066276795292F2170262B692F661F662700
S1131F70661F660F622B292F2695269530E0217067
S1131F803070D901AA0FBB1FAA0FBB1F6A2BA92F40
S1131F90A695B0E0A170B070FD01EE0FFF1FEE0F2B
S1131FA0FF1FEE0FFF1FA62FAE2BE92FE295EF7058
S1131FB0F0E0E170F070BF0162957295707F762752
S1131FC0607F7627EA2FE62B692F62956695677006
S1131FD070E061707070AB01440F551F42955295CB
S1131FE0507F5427407F54276E2F642B492F4295EE
S1131FF046954695437050E0417050709A01002414
S1132000369527950794369527950794322F202DDA
S1132010262B209306038170819589278870892750
S11320200E941117EDEDF0E02081909184039695C4
S113203096959695917091958081892780718227D4
S11320408083E2E0F3E08081982791708927808380
S11320500E94AA0D0E94350E0E94650E0E94B70EC2
S11320600E94200F0E945B0F0895CF93DF939091FD
S11320700B03953001F587E082B9CDEDD0E088817E
S11320808062888388818F7D888312B80E94B41609
S113209012B888818062888388818F7D888312B892
S11320A0809103038F708068809303030E94ED0185
S11320B010920B0363C080918403282F22952695E8
S11320C02695237020FF15C020E482278093840383
S11320D0809107038F5F80930703853221F484E2A4
S11320E08093070306C0933021F00E94BA0A0E942D
S11320F0A80F80918403982F92959695977090FFDE
S113210015C090E28927809384038091070381306E
S113211019F081508093070380910B03833031F0D1
S1132120809107030E94BA0A0E94A80F8091840339
S1132130982F92959F7090FF15C090E18927809306
S1132140840390910B03933049F08F778093840339
S113215083E080930B030E949C0804C080910703D2
S11321600E94C70880918403882344F48068809384
S1132170840381E080930B030E94B608DF91CF9122
S1132180089588ED91E060E070E00E94050281EE20
S113219091E060E070E00E94050282EE91E060E070
S11321A070E00E94050287EB92E060E070E00E941C
S11321B005028AED91E060E070E00E9405028FED77
S11321C091E060E070E00E94050280EE91E060E042
S11321D070E00E94050281ED91E060E070E00E94F1
S11321E0050286ED91E060E070E00E94050282ED58
S11321F091E060E070E00E94050283ED91E060E010
S113220070E00E94050284ED91E06FEF7FE30E948D
S1132210050285ED91E060E070E00E94050289ED21
S113222091E060E070E00E9405028EEC91E060E0D5
S113223070E00E9405028CEC91E060E070E00E9486
S113224005028AEC91E06FEF7FE30E94050288ECBF
S113225091E060E070E00E94050280ED91E060E0B2
S113226070E00E94050283EE91E060E070E00E945D
S1132270050284EE91E060E070E00E94050208959A
S11322802F923F924F925F926F927F928F929F9282
S1132290AF92BF92CF92DF92EF92FF920F931F9370
S11322A0CF93DF93CDB7DEB72C970FB6F894DEBF8C
S11322B00FBECDBF082F78876F8380917F03836023
S11322C080937F030E94C11010927E030F30E1F4CB
S11322D00F2EF6EE4F2EF1E05F2EF02D0F2EFEEDB9
S11322E02F2EF1E03F2EF02D23EE31E03A832983A7
S11322F00F2EFCED8F2EF1E09F2EF02D82E796E05D
S11323009A87898781E01BC00F2EF5EE4F2EF1E0EE
S11323105F2EF02D0F2EF7ED2F2EF1E03F2EF02D36
S1132320E4EEF1E0FA83E9830F2EFDED8F2EF1E068
S11323309F2EF02D20E736E03A87298780E482B982
S1132340EDEDF0E080818064808380818F7B8083E9
S113235012B8899A84B58F6084BD81E087BDEEE6AA
S1132360F0E0908192609083809380038DE090E010
S11323709C838B83802F90E08C010F5F1F4F0F2E67
S1132380F8EDEF2EF1E0FF2EF02D0F2EF4EDCF2E11
S1132390F1E0DF2EF02D0F2EFAECAF2EF1E0BF2E80
S11323A0F02D0F2EFBEC6F2EF1E07F2EF02DE0E0F0
S11323B0F0E0FC87EB8721E030E00B8002C0220FC5
S11323C0331F0A94E2F73E832D838B859C85822BF1
S11323D0932B9C878B87C4016B857C850E940502A7
S11323E010927E03109281038FE0E8E1F0E00FB6D3
S11323F0F894A895E09360000FBE809360008091EC
S11324007E03882389F5C80160E00E943903C40172
S11324106B857C850E940502C1016FEF7FE30E94FA
S11324200502C70160E070E00E940502C6016FEF7B
S11324307FE30E940502C5016FEF7FE30E9405025E
S1132440C3016FEF7FE30E94050289819A816FEFD8
S11324507FE30E940502C20160E070E00E94050271
S113246080917E03882379F288E10FB6F8948093F3
S11324706000109260000FBE80917C0390917D03F8
S1132480EF81F885E817F90720F08091AF028823DF
S113249051F48D819E81809590952B853C852823D0
S11324A039233C872B8781E08093AF028B819C8109
S11324B001979C838B83EFEF8F3F9E0709F07BCFBF
S11324C02B853C853E832D8388EC91E060E070E0B1
S11324D00E94050289EC91E060E070E00E94050230
S11324E084ED91E060E070E00E94050288ED91E0E7
S11324F060E070E00E9405028998EEE6F0E08081D9
S11325008D7F808314BC89859A856D817E810E942C
S11325102A1F8D819E812C960FB6F894DEBF0FBEC4
S1132520CDBFDF91CF911F910F91FF90EF90DF907E
S1132530CF90BF90AF909F908F907F906F905F905F
S11325404F903F902F9008952F923F924F925F9219
S11325506F927F928F929F92AF92BF92CF92DF92AF
S1132560EF92FF920F931F93CF93DF93CDB7DEB714
S1132570C054D0400FB6F894DEBF0FBECDBF082FB5
S1132580DE011196E0E3F2E080E301900D928150C8
S1132590E1F70E94C1100F3011F54090790350907B
S11325A07A030F2EF6EE8F2EF1E09F2EF02D0F2ED4
S11325B0FEED2F2EF1E03F2EF02D23EE31E03AAB6D
S11325C029AB0F2EFCED6F2EF1E07F2EF02D05E5EB
S11325D013E0CC24C394EE246894E1F822C0409024
S11325E07703509078030F2EF5EE8F2EF1E09F2E97
S11325F0F02D0F2EF7ED2F2EF1E03F2EF02D44EEAF
S113260051E05AAB49AB0F2EFDED6F2EF1E07F2E5A
S1132610F02D03E313E0CC246894C1F8EE2468940D
S1132620E5F8C301B2010E940502E2B8EDEDF0E065
S113263080818064808380818F7B808312B8899AB3
S113264081E08093800310927B038C2D90E024E63C
S113265030E0829FD001839FB00D929FB00D112472
S1132660BCABABABFE013196FCAFEBAF98012E5F78
S11326703F4F21963FAF2EAF21971EAE1DAE0F2EBA
S1132680F8EDEF2EF1E0FF2EF02D0F2EF4EDCF2E0E
S1132690F1E0DF2EF02D0F2EFAECAF2EF1E0BF2E7D
S11326A0F02DEBADFCAD80818093800384B58F6009
S11326B084BD81E087BD16BC4DAD5EAD4330510590
S11326C024F483E080937F0303C082E080937F033C
S11326D0818192819AAF89AFADE0B0E0BEABADAB82
S11326E000E010E0E1E0F0E00DA802C0EE0FFF1FF3
S11326F00A94E2F7F8AFEFAB0E2B1F2BAEE6B0E077
S11327008C918D7F8C93C401B8010E940502E3EF84
S1132710F1E03197F1F700C00000AEE6B0E08C9133
S113272082608C9310927E0310928103E8E1F0E0C2
S11327302FE00FB6F894A895E09360000FBE2093A5
S1132740600080917E03882381F5809180034BA9EA
S11327505CA9480F511DCA0160E00E943903C301FE
S1132760B2010E940502C401B8010E940502C7011A
S113277060E070E00E940502C6016FEF7FE30E94F3
S11327800502C5016FEF7FE30E940502C10160E00D
S113279070E20E94050289A99AA96FEF7FE30E9463
S11327A0050280917E03882381F258E10FB6F894E4
S11327B050936000109260000FBE80917C03909152
S11327C07D03A9ADBAADA817B90750F08091AF0247
S11327D0813031F48FA998AD809590950823192301
S11327E080917C0390917D03E9ADFAAD8E179F072C
S11327F021F48091AF02813071F0F1E0F093AF02E7
S11328002DA93EA9215030403EAB2DAB4FEF2F3FB9
S1132810340709F067CF2196AEADBFAD21970D9374
S11328201D932196BFAFAEAF2197EEE6F0E0808115
S11328308D7F808314BC2DAD3EAD2F5F3F4F3EAFE7
S11328402DAF4BAD5CAD4D5F5F4F5CAF4BAF2031F7
S1132850310509F026CF8998C05CDF4F0FB6F89494
S1132860DEBF0FBECDBFDF91CF911F910F91FF90BF
S1132870EF90DF90CF90BF90AF909F908F907F901C
S11328806F905F904F903F902F9008952F923F92BA
S11328904F925F926F927F928F929F92AF92BF926C
S11328A0CF92DF92EF92FF920F931F93CF93DF9318
S11328B0CDB7DEB7E9970FB6F894DEBF0FBECDBF34
S11328C0DE011196E0E6F2E08DE201900D92815076
S11328D0E1F788ED91E060E070E00E94050281EE8E
S11328E091E060E070E00E94050282EE91E060E019
S11328F070E00E94050287EB92E060E070E00E94C5
S113290005028AED91E060E070E00E9405028FED1F
S113291091E060E070E00E94050280EE91E060E0EA
S113292070E00E94050281ED91E060E070E00E9499
S1132930050286ED91E060E070E00E94050282ED00
S113294091E060E070E00E94050283ED91E060E0B8
S113295070E00E94050284ED91E06FEF7FE30E9436
S1132960050285ED91E06FEF7FE30E94050289ED9A
S113297091E060E070E00E9405028EEC91E060E07E
S113298070E00E9405028CEC91E060E070E00E942F
S113299005028AEC91E06FEF7FE30E94050288EC68
S11329A091E060E070E00E94050280ED91E060E05B
S11329B070E00E94050283EE91E060E070E00E9406
S11329C0050284EE91E060E070E00E94050212B816
S11329D0EDEDF0E080818064808380818F7B808353
S11329E081E080938003899A9E012F5F3F4F3DAB26
S11329F02CAB85E193E099AF88AF1FAA1EAA0F2ED6
S1132A00F4EDAF2EF1E0BF2EF02D0F2EF8ED6F2E6A
S1132A10F1E07F2EF02D0F2EF5ED4F2EF1E05F2E1D
S1132A20F02D0F2EFAEC2F2EF1E03F2EF02DACA955
S1132A30BDA98C918093800384B58F6084BD81E0AF
S1132A4087BDEEE6F0E080818260808316BCEEA94B
S1132A50FFA9E230F10524F483E080937F0303C0EF
S1132A6082E080937F0311962D913C9112973BABAA
S1132A702AAB8DE090E09FA78EA7EE24FF240F2EB3
S1132A80F1EDCF2EF1E0DF2EF02D0F2EF6ED8F2E8F
S1132A90F1E09F2EF02D81E090E0FC010EA402C035
S1132AA0EE0FFF1F0A94E2F7F9ABE8ABEE2AFF2A18
S1132AB0C501B7010E94050210927E0310928103A2
S1132AC08FE028E130E00FB6F894A89520936000D9
S1132AD00FBE8093600080917E038823B1F502EDE0
S1132AE011E08091800390E0845D9E4F60E00E943D
S1132AF03903C501B7010E940502C30160E070E01B
S1132B000E940502C2016FEF7FE30E940502C1012A
S1132B106FEF7FE30E9405028EEC91E060E070E0CD
S1132B200E940502C60160E070E00E940502C40133
S1132B3060E070E00E940502C80160E070E00E945D
S1132B40050280917E03882361F288E10FB6F89430
S1132B5080936000109260000FBE80917C0390917E
S1132B607D032AA93BA92817390750F08091AF02A9
S1132B70813031F488A999A980959095E822F922A9
S1132B8080917C0390917D03EAA9FBA98E179F078E
S1132B9021F48091AF02813071F081E08093AF0223
S1132BA02EA53FA5215030403FA72EA78FEF2F3FE2
S1132BB0380709F070CFEEA9FFA93196FFABEEAB51
S1132BC0C7018096E8ADF9AD81939193F9AFE8AF71
S1132BD0EEE6F0E080818D7F808314BC2CA93DA9B2
S1132BE02D5F3F4F3DAB2CAB8EA99FA98F30910534
S1132BF009F01DCF8998E9960FB6F894DEBF0FBE91
S1132C00CDBFDF91CF911F910F91FF90EF90DF9097
S1132C10CF90BF90AF909F908F907F906F905F9078
S1132C204F903F902F90089583E193E06CE076E01D
S1132C3040E250E00E94091F85E593E06EE476E0EF
S1132C4042E250E00E94091F83E393E06CE276E0E5
S1132C5042E250E00E94091F089582E796E00E9434
S1132C60031F90937A038093790380E796E00E9490
S1132C70031F909378038093770385E593E06EE4D4
S1132C8076E042E250E00E94F31E83E393E06CE2BC
S1132C9076E042E250E00E94F31E83E193E06CE0B0
S1132CA076E040E250E00E94F31E0895982F969536
S1132CB096959695292F30E0F9013197EE0FFF1F75
S1132CC0E60FF71F0190F081E02D220F331F260F2E
S1132CD0371FD9014D915C9111974E1B5F0B990FD2
S1132CE0990F990F891B90E0489F9001499F300DDF
S1132CF0589F300D1124369527953695279536958E
S1132D002795E20FF31F8E2F9F2F0895CF93DF9304
S1132D10CDB7DEB7A2970FB6F894DEBF0FBECDBF16
S1132D20DE011196EDE8F2E082E201900D9281500D
S1132D30E1F7A5E5B3E0FE01319682E201900D9240
S1132D408150E1F7A3E3B3E0FE01319682E2019002
S1132D500D928150E1F7A2960FB6F894DEBF0FBE34
S1132D60CDBFDF91CF910895EFE6F0E080818270CE
S1132D708083E1E8F0E08081877F80838FE06FE0EB
S1132D807EE50E94401190937A038093790380EF4B
S1132D906FE07EE50E94401190937803809377035F
S1132DA08FE00E94A41280EF0E94A4120E94461495
S1132DB00E9414168FE493EC0197F1F700C0000011
S1132DC008958FB1982F9C702091C502922B9093F7
S1132DD0C502982F92959695977090FF16C02091F2
S1132DE08503309186032F5F3F4F309386032093F2
S1132DF0850392E02835390761F410928603109216
S1132E00850395E090930B0304C0109286031092FF
S1132E1085039091870389279827909387038923B3
S1132E200895EDEDF0E090819F7B9083282F30E0B2
S1132E3021703070220F331F682F6295669567707A
S1132E40679566276795262B982F9695969591708A
S1132E50292B682F661F6627661F660F660F660F8D
S1132E60262BA82FA695B0E0A170B070BD01660F07
S1132E70771F660F771F262B682F62956F7070E09F
S1132E8061707070AB010024569547950794569570
S1132E9047950794542F402D622F642B482F429559
S1132EA046954695437050E0417050709A01220F48
S1132EB0331F22953295307F3227207F3227462FC9
S1132EC0422B869586958695282F30E021703070A8
S1132ED0C90182959295907F9827807F9827842BAB
S1132EE082B980818064808380818F7B808312B8E3
S1132EF00895FC01428374836383118210820895D0
S1132F001F93CF93DF93EC01162F0E94EF17282F06
S1132F103981832F90E001966A8170E00E94671ED8
S1132F20488150E08417950729F4822F0E94F217F4
S1132F3080E011C0EB81FC81E30FF11D10838981D6
S1132F4090E001966A8170E00E94671E8983822F57
S1132F500E94F21781E0DF91CF911F910895CF93E2
S1132F60DF93EC010E94EF1729819881291718F04B
S1132F70C22FC91B03C0CA81C20FC91B0E94F2170A
S1132F808C2FDF91CF910895FC012081862F90E052
S1132F90820F911D628170E00E94671E0380F4819C
S1132FA0E02DE80FF91F808108951F93CF93DF93DD
S1132FB0EC01162F0E94EF17482F8881212F30E053
S1132FC0280F311D6A81C90170E00E94671E888341
S1132FD0842F0E94F217DF91CF911F9108958FB72C
S1132FE0F89408958FBF0895881F8827881F08952F
S1132FF091E0883F08F490E0892F0895282F30E06D
S1133000207F3070203C3105E9F1213C31058CF4FE
S113301020393105E1F02139310524F42038310516
S113302079F515C0203A310591F0203B310541F581
S11330300EC0203E310559F0213E310524F4203DD7
S11330403105F1F41FC0203F3105D1F402C083E003
S11330500895863F79F0873F38F4823FA9F0833F93
S113306059F0813F59F408C0883F40F08D3F10F07B
S11330708E3F20F081E0089582E0089580E0089575
S113308080E0089582E0089583E008950F93342F3B
S1133090022F462F4F70406B232F2F770F77DC01C1
S11330A0ED91FC9163E070E009950F9108950F9301
S11330B0342F022F462F4F704069232F2F770F771D
S11330C0DC01ED91FC9163E070E009950F910895A6
S11330D00F93342F022F462F4F704068232F2F77E2
S11330E00F77DC01ED91FC9163E070E009950F919D
S11330F008950F93342F022F462F4F70406A232FC9
S11331002F770F77DC01ED91FC9163E070E0099576
S11331100F9108950F931F9320E24030520744F417
S1133120A0EE40305A073CF08A010050104E05C012
S11331300FEF1FE302C000E010E0462F4F70406E17
S1133140202F2F77000F012F001F110B11950F77E0
S1133150DC01ED91FC9163E070E009951F910F9102
S113316008950F93242F462F4F70406C2F77DC0166
S1133170ED91FC9162E070E000E009950F910895F3
S11331800F93242F462F4F70406D2F77DC01ED9164
S1133190FC9162E070E000E009950F9108950F93AF
S11331A0DC01ED91FC9161E070E048EF20E000E08B
S11331B009950F9108950F93DC01ED91FC9161E065
S11331C070E049EF20E000E009950F9108950F9316
S11331D0DC01ED91FC9161E070E04AEF20E000E059
S11331E009950F9108950F93DC01ED91FC9161E035
S11331F070E04BEF20E000E009950F9108950F93E4
S1133200DC01ED91FC9161E070E04CEF20E000E026
S113321009950F9108950F93DC01ED91FC9161E004
S113322070E04EEF20E000E009950F9108950F93B0
S1133230DC01ED91FC9161E070E04FEF20E000E0F3
S113324009950F9108950F93262F2F77DC01ED91A7
S1133250FC9162E070E041EF00E009950F91089560
S11332600F931F93262F2F778B01000F012F001F21
S1133270110B11950F77DC01ED91FC9163E070E087
S113328042EF09951F910F9108950F93262F2F77E1
S1133290DC01ED91FC9162E070E043EF00E0099500
S11332A00F9108950F93DC01ED91FC9161E070E0C2
S11332B046EF20E000E009950F9108950F93462F03
S11332C0DC01ED91FC9161E070E020E000E0099503
S11332D00F9108950F93DC01ED91FC9109950F91E5
S11332E008956F927F928F929F92AF92BF92CF92E6
S11332F0DF92EF92FF920F931F93CF93DF9300D04F
S11333000F92CDB7DEB74C016B015A0161157105FF
S113331041F1EE24FF240F2EF3E06F2E7724F02DDD
S113332019821A821B8286010E191F0904301105A5
S113333008F08301B5016E0D7F1DCE010196402F6B
S1133340512F0E94D81EC401B80149812A810B81E2
S11333500E946A1983E090E0E80EF91EEC14FD0463
S1133360F8F20F900F900F90DF91CF911F910F9172
S1133370FF90EF90DF90CF90BF90AF909F908F9091
S11333807F906F900895FC01738362830895FC011C
S1133390758364830895FC01778366830895FC0133
S11333A0718760870895FC01738762870895FC0123
S11333B0758764870895FC01778766870895FC0103
S11333C0718B608B0895FC01738B628B0895FC01F3
S11333D0758B648B0895FC01778B668B0895FC01D3
S11333E0718F608F0895FC01738F628F0895FC01C3
S11333F0758F648F0895FC01778F668F0895CF933E
S1133400DF93EC011DA21FA21EA2BC01685D7F4FC9
S113341088519F4F40EC0E9479171B821A821D82AB
S11334201C821F821E82198618861B861A861D8698
S11334301C861F861E86198A188A1B8A1A8A1D8A68
S11334401C8A1F8A1E8A198E188E1B8E1A8E1D8E38
S11334501C8E1F8E1E8E19A218A2DF91CF91089583
S1133460EF92FF920F931F93CF93DF93D62F662390
S113347099F0042F152FC0E00F2EF8EEEF2EFF2445
S1133480F02DE80EF91EF80161918F01C7010E9429
S11334908017CF5FCD17B9F7DF91CF911F910F91AF
S11334A0FF90EF900895FC01718360830895FC01FF
S11334B071A360A30895AF92BF92CF92DF92EF926F
S11334C0FF920F931F93CF93DF9300D00F92CDB74A
S11334D0DEB76C015B01F42EE22E102FDC01959611
S11334E08C9195978430E9F45A96ED91FC915B9711
S11334F0309709F4EEC0CB01019763E070E00E94BD
S1133500531ECB01880F991F680F791F49832A83A3
S11335100B834A2D461BC6019E012F5F3F4F099521
S1133520C8C06230710509F45FC06330710529F0C9
S11335306130710509F0B3C099C0842F90E0807F99
S11335409070803A910529F1813A91053CF48038D4
S11335509105C9F08039910591F50FC0803E910520
S1133560F1F0803F910509F1803B910541F5D601C9
S11335701296ED91FC91139724C0D6011496ED9107
S1133580FC9115971EC0D6011696ED91FC911797E4
S113359018C0D6011896ED91FC91199712C0D60166
S11335A01A96ED91FC911B970CC0B2EF4B1709F0E2
S11335B090C0D6011C96ED91FC911D9702C0E0E0ED
S11335C0F0E0309709F485C0B2EFFB1631F4C60180
S11335D062EF4E2D212F09956CC06F2D6F70C601BF
S11335E04E2D212F099565C0842F90E0807F907027
S11335F0803D910561F0803F910579F0803C910513
S1133600F9F4D6011E96ED91FC911F971BC0D601CB
S11336105096ED91FC91519715C0B3EF4B1731F4CF
S1133620D6015296ED91FC9153970CC0B1EF4B1714
S113363009F04FC0D6015496ED91FC91559702C004
S1133640E0E0F0E0309709F444C0B3EFFB1619F062
S113365081EFF81629F4C6016F2D4E2D099529C066
S11336606F2D6F70C6014E2D099523C0842F0E94C3
S1133670F817882331F0D6015696ED91FC915797AF
S113368008C0B6EFFB1629F5D6015896ED91FC91CA
S113369059973097F1F0C6016F2D09950AC064302F
S11336A07105A8F416C0C601B5014F2D2E2D012FAA
S11336B00995D6015E96ED91FC915F97309789F05C
S11336C0C601B5014F2D2E2D012F09950AC0AA243C
S11336D0BB24D6015C96ED91FC915D97309719F768
S11336E0E8CF0F900F900F90DF91CF911F910F9122
S11336F0FF90EF90DF90CF90BF90AF900895EF923E
S1133700FF920F93CF93DF937C01C62F862F0E94E5
S1133710F817882391F0D7019596DC91959781E06D
S113372095968C93C70161E070E04C2F20E000E097
S11337300E945B1AF701D5A3B7C08C2F0E94F4171F
S1133740882309F473C0D70195968C91959784309A
S113375049F09296CC93929781E090E097969C934F
S11337608E9396978C2F0E94FE17813041F0813002
S113377000F18230A1F0833009F04FC014C081E021
S1133780F70185A3C70161E070E04C2F20E000E061
S11337900E945B1AD70195961C92959785C082E08A
S11337A0F70185A381C083E0D70195968C93959703
S11337B07BC0C03F19F0C73F59F50AC084E0F70148
S11337C085A380EF82A381E090E097A386A36CC0D9
S11337D0D70196962D913C919797C90163E070E0CB
S11337E00E94531EF701E80FF91F87EF82A3B90166
S11337F06F5F7F4FF70177A366A3C70142A123A19F
S113380004A10E945B1AD70195961C9295974CC00F
S1133810F70115A217A216A247C0D70195961C92CC
S1133820959797961C921E9296973EC0F70125A1F4
S11338302223D1F106A0F7A1E02DCF0163E070E0CF
S11338400E94531EAC018E0D9F1DDC019296CC93F9
S11338509297BF016F5F7F4FF70177A366A3413053
S1133860510591F042305105F9F4C70142A123A159
S113387004A10E945B1AF70185A18430A9F081E0BC
S113388090E097A386A310C0223071F4C70142A12F
S113389023A100E00E945B1AF70185A1843021F086
S11338A081E090E097A386A3DF91CF910F91FF90E1
S11338B0EF900895CF92DF92EF92FF920F931F93B0
S11338C0CF93DF936C01DC019096ED91FC9191977D
S11338D0309709F009950F2EF8EEEF2EFF24F02D06
S11338E0EC0CFD1CC7010E94AF17C82FD0E0209735
S11338F099F000E010E0C70160E00E94C417682F4F
S1133900C6010E947F1BC70161E00E94D5170F5FAB
S11339101F4F0C171D0778F3DF91CF911F910F9163
S1133920FF90EF90DF90CF9008959C0167E070E0E6
S11339300E94531E482F882381F0C90167E070E07C
S11339400E94531ECB01880F991F880F991F880F5F
S1133950991F0196840F911D0895C90167E070E0D5
S11339600E94531ECB01880F991F880F991F880F3F
S1133970991F0895482F4770A1F09C01369527950B
S11339803695279536952795C901880F991F880F75
S1133990991F880F991F821B930B0197840F911D08
S11339A008959C0136952795369527953695279544
S11339B0C901880F991F880F991F880F991F821BAF
S11339C0930B08952F923F924F925F926F927F9242
S11339D08F929F92AF92BF92CF92DF92EF92FF921B
S11339E00F931F93CF93DF9300D000D000D0CDB7B7
S11339F0DEB71C017A8369833A01CA0167E070E08B
S1133A000E94531E2B015B0161157105B1F1810107
S1133A10E980FA80CC24DD24882499241E830D8334
S1133A20F8011192FC82EB82A401AB81BC812D913F
S1133A30BC83AB834F5F5F4F822F90E080789070A0
S1133A40BC01042E02C0759567950A94E2F7AD8116
S1133A50BE818C91862B8C932F772193473051050F
S1133A6021F70894C11CD11C085F1F4FE7E0F0E068
S1133A70EE0EFF1ECA14DB0489F6C30167E070E092
S1133A800E94531E8823D9F18201000F111F000FD9
S1133A90111F000F111F7801E418F508D101A00FC0
S1133AA0B11F1C92682F70E06115710519F1E9814D
S1133AB0FA81EE0EFF1EC8010196280E391E20E081
S1133AC030E0F70141917F012F5F3F4F842F90E059
S1133AD080789070022E02C0959587950A94E2F73B
S1133AE09C91892B8C934F77F10141931F012617E9
S1133AF0370738F3C8010196860F971F07C0C20124
S1133B00880F991F880F991F880F991F26960FB643
S1133B10F894DEBF0FBECDBFDF91CF911F910F91FF
S1133B20FF90EF90DF90CF90BF90AF909F908F90D9
S1133B307F906F905F904F903F902F9008956F9279
S1133B407F928F929F92AF92BF92CF92DF92EF9229
S1133B50FF920F931F93CF93DF933C014B015A01C4
S1133B604230510508F46FC07A01F694E794F69454
S1133B70E794F694E794E114F10429F1EB01B3011D
S1133B8000E010E0CC24DD24DE011196FB01A60147
S1133B902D912F7720834F5F5F4F888190E0042E13
S1133BA002C0880F991F0A94E2F78078282B21938A
S1133BB04730510569F70F5F1F4F2896695F7F4FA4
S1133BC00E151F0509F75A2D577099F1E701CC0F0F
S1133BD0DD1FCC0FDD1FCC0FDD1F8E010E191F0959
S1133BE0652F70E061507040F9F0CE010196D40168
S1133BF0A80FB91FF301E00FF11F20E030E0C80D5A
S1133C00D91D4D914F7740832F5F3F4F888190E0BE
S1133C10022E02C0880F991F0A94E2F78078482B7D
S1133C2041932617370768F3C8010197850F911D43
S1133C300CC0C701880F991F880F991F880F991FFF
S1133C408E199F0902C080E090E0DF91CF911F910F
S1133C500F91FF90EF90DF90CF90BF90AF909F9027
S1133C608F907F906F900895629FD001739FF001B1
S1133C70829FE00DF11D649FE00DF11D929FF00DF8
S1133C80839FF00D749FF00D659FF00D9927729F2F
S1133C90B00DE11DF91F639FB00DE11DF91FBD01BA
S1133CA0CF0111240895AA1BBB1B51E107C0AA1F11
S1133CB0BB1FA617B70710F0A61BB70B881F991FC9
S1133CC05A95A9F780959095BC01CD01089597FB6D
S1133CD0092E07260AD077FD04D0E5DF06D00020A0
S1133CE01AF4709561957F4F0895F6F79095819534
S1133CF09F4F0895A0E0B0E0E0E8FEE10C94511F6E
S1133D00EC0188819981AA81BB810097A105B10545
S1133D1021F484E299EDABE5B7E0BC01CD012DE1DE
S1133D2033EF41E050E00E94301F49015A0127EA75
S1133D3031E440E050E00E94341E6B017C01C50177
S1133D40B4012CEE34EF4FEF5FEF0E94341EDC0120
S1133D50CB01C80ED91EEA1EFB1EF7FE08C08FEF6A
S1133D609FEFAFEFBFE7C80ED91EEA1EFB1EC88245
S1133D70D982EA82FB82970186013F77B801C901A3
S1133D80CDB7DEB7ECE00C946D1F0E947A1E089547
S1133D9080EB92E00E947A1E0895DC01CB018093AF
S1133DA0B0029093B102A093B202B093B30208950B
S1133DB0FB01DC0102C001900D9241505040D8F744
S1133DC008956817790768F4FB01DC01E40FF51F17
S1133DD0A40FB51F02C002900E9241505040D8F774
S1133DE008950C94D81EDC01CB01FC01F999FECF97
S1133DF006C0F2BDE1BDF89A319600B40D9241506F
S1133E005040B8F70895A8E1B0E042E050E00C94C7
S1133E10F51EDC01A40FB51F4150504048F0CB0102
S1133E20840F951F2E910E941A1F41505040D0F7C5
S1133E300895262FF999FECF92BD81BDF89A019776
S1133E4000B4021631F020BD0FB6F894FA9AF99A2C
S1133E500FBE08950196272F0E941A1F0C94191F54
S1133E6097FB092E05260ED057FD04D04BD00AD05F
S1133E70001C38F450954095309521953F4F4F4F95
S1133E805F4F0895F6F790958095709561957F4FF3
S1133E908F4F9F4F08952F923F924F925F926F9250
S1133EA07F928F929F92AF92BF92CF92DF92EF92C6
S1133EB0FF920F931F93CF93DF93CDB7DEB7CA1B47
S1133EC0DB0B0FB6F894DEBF0FBECDBF09942A8872
S1133ED0398848885F846E847D848C849B84AA841A
S1133EE0B984C884DF80EE80FD800C811B81AA81A7
S1133EF0B981CE0FD11D0FB6F894DEBF0FBECDBF72
S1133F00ED010895A1E21A2EAA1BBB1BFD010DC0F1
S1133F10AA1FBB1FEE1FFF1FA217B307E407F50775
S1133F2020F0A21BB30BE40BF50B661F771F881F51
S1133F30991F1A9469F760957095809590959B01E7
S10F3F40AC01BD01CF010895F894FFCF3F
S1133F4CB401B001AC01A801A401A0019C01980129
S1133F5C940190018C018801840180017801740121
S1133F6C70016C016801640160015C015801540129
S1133F7C50014C014801440140013C010000007F08
S1133F8C0000007E0000007D0000007C0000007B2F
S1133F9C0000007A0000007900000078000000772F
S1133FAC000000760000007500000074000000732F
S1133FBC00000072000000710000006F0000006E31
S1133FCC0000006D0000006C0000006B0000006A33
S1133FDC0000006900000068000000670000006633
S1133FEC0000006500000064000000630000006233
S1133FFC0000006100000060FF00FF00FF00FF00F4
S113400CFF00FF00FF00FF001D1B1C1A1E181F19C8
S113401C051110131617120C14150B01040D0602BE
S113402C0703080F0E090AD711CD5D1B5EDE15DFE1
S113403C5F0001020304050607080900014F00078D
S113404C020500060403010704050306020100002F
S113405C0002020103030100040206010506070124
S113406C000102000304000704060205060401040F
S113407C01413B02A74A02072F01817601A74A029C
S113408C0F5E02413B04A74A04072F08413B085426
S113409C2510072F10A01D20542520841740A01D87
S11340AC02A74A02072F01817601A74A020F5E027A
S11340BC413B04A74A04072F08413B085425100729
S11340CC2F10A01D20542520841740A01D0000444F
S11340DC048908CD0C111155159A19DE1D2222667E
S11340EC26AB2AEF2E33337737BC3B00400040011C
S10740FC01000000BB
S9030000FC
