:100000000C9432000C944F000C944F000C944F0051
:100010000C944F000C9434020C944F000C944F003D
:100020000C944F000C94DA010C9490010C944F0046
:100030000C944F000C94FF010C944F000C944F0053
:100040000C944F000C944F000C944F000C944F00F4
:100050000C944F000C944F000C944F000C944F00E4
:100060000C944F0011241FBECFEFD0E1DEBFCDBFF7
:1000700011E0A0E0B1E0E8EEFFE102C005900D92D2
:10008000AC3AB107D9F714E0ACEAB1E001C01D9277
:10009000AF3BB107E1F70E943E020C94F20F0C94C3
:1000A0000000EAE7F0E0808184608083ACE7B0E0A4
:1000B0008C9180648C93AEE7B0E08C9181608C93DE
:1000C000808180688083089562B9EAEDF0E0408124
:1000D00021E030E0B90102C0660F771F8A95E2F790
:1000E000CB01262F2095422340837DE07A95F1F7BE
:1000F0000000EAE7F0E0208120642083208126FDD3
:10010000FDCFEAEDF0E09081892B8083809178002B
:1001100090E040917900342F20E0822B932B0895BA
:10012000DC016BB978B9A098A09A8C9182B98DE066
:100130008A95F1F70000EAEDF0E0408121E030E03F
:10014000C90111960C90119702C0880F991F0A944B
:10015000E2F7842B808382E48A95F1F700C08081E6
:1001600011960C90119702C0220F331F0A94E2F7E8
:10017000209528232083089583B3836083BB8FEF6A
:100180008AB997B187B9E9EDF0E080818F6080830B
:10019000EAEDF0E08081807F808384B3836084BB5C
:1001A000A198A19AA098A09A08954BB958B9A0987F
:1001B000A09A62B92DE02A95F1F70000EAEDF0E08F
:1001C000408121E030E0B90102C0660F771F8A95B7
:1001D000E2F7CB01942F982B908372E47A95F1F794
:1001E00000C090818095892380830895CF93DF9309
:1001F000CDB7DEB72A970FB6F894DEBF0FBECDBFDE
:10020000DE011196EEE3F1E03AE001900D923150FB
:10021000E1F73FEF32B9EAEDF0E030813061308351
:1002200030813F7E308362B93081306230833081EB
:100230003F7D30836230F9F0633018F46130A1F50E
:100240000DC0643029F1683079F56AE070E00E94F1
:10025000C20FFE01E80FF91F218126C064E670E09D
:100260000E94C20F6AE070E00E94C20FFE01E60F1A
:10027000F71F218119C068EE73E00E94C20F64E687
:1002800070E00E94C20FFE01E60FF71F21810CC033
:1002900060E177E20E94C20F68EE73E00E94C20F35
:1002A000FE01E60FF71F2181209522B9EAEDF0E06B
:1002B00080818061808380818F7E80832A960FB6C3
:1002C000F894DEBF0FBECDBFDF91CF910895CF93DD
:1002D000DF9300D000D0CDB7DEB728E0298321E03E
:1002E0002A8322E02B8324E02C83662391F420913F
:1002F000B001FE01E20FF11D61810E94F6008091C4
:10030000B001982F9F5F9093B001833011F4109249
:10031000B0010F900F900F900F90DF91CF91089543
:100320001F920F920FB60F9211248F939F93EF930A
:10033000FF938091D003815087BD85B1805885B9E6
:100340008091D1038823A1F41092CE0381E08093A1
:10035000AA018093D103E1E8F0E080819091CF037E
:10036000892B8083EFE6F0E080818160808319C073
:10037000E4E8F0E0808191819093CD038093CC03F9
:100380008091CC039091CD039093490180934801D3
:100390001092810081E08093CE031092D1031182EC
:1003A0001082FF91EF919F918F910F900FBE0F9050
:1003B0001F9018951F920F920FB60F921124109252
:1003C000AA010F900FBE0F901F901895842F90E0F8
:1003D00090934901809348014093B201222311F484
:1003E00089980895899A08958998089587E2809355
:1003F000C4001092C50088E98093C10008951F923F
:100400000F920FB60F9211242F933F934F935F9348
:100410006F937F938F939F93AF93BF93EF93FF93CC
:10042000CF93DF930F92CDB7DEB78091C60089835B
:1004300082ED93E061E0AE014F5F5F4F0E94BE0B23
:100440000F90DF91CF91FF91EF91BF91AF919F916D
:100450008F917F916F915F914F913F912F910F906D
:100460000FBE0F901F9018951F920F920FB60F920C
:1004700011240F900FBE0F901F90189580E885BF34
:1004800085BF279A819A9A9AA29A0E946003A9ED41
:10049000B0E08C91806C8C93EAEDF0E08081806C10
:1004A000808381B18FEF81B992B182B98C918063E1
:1004B0008C9380818F7C808382980E9451000E945F
:1004C000BC00C2EDD3E0CE010E948D0BCE0166EEE2
:1004D00071E00E94550BCE0164EF71E00E94590B50
:1004E0000E94F6010E947F03789480E00E945005EC
:1004F0009093CB038093CA0381E00E9450059093B0
:10050000C9038093C8038091CA039091CB03909351
:10051000490180934801CE010E94E80D8091480175
:100520009091490160E00E9467010E94A4028091BD
:10053000B101982F9F5F9093B101853061F71092C0
:10054000B1010E947F03E7CFEF92FF920F931F93B9
:10055000CF93DF9308E611E0EE24FF24E394C0E09C
:10056000D0E006C021960894E11CF11C0E5F1F4FDD
:1005700086E06C2F0E9464009093B6018093B501D1
:10058000CE0108978230910508F041C02091C80340
:100590003091C903C930D10521F42091CA033091AB
:1005A000CB038091B5019091B60142E08030940771
:1005B000C0F06091B5017091B60160507240620F59
:1005C000731FF801808191810E9490008091B50194
:1005D0009091B601805092409093B4018093B30102
:1005E00029C06091B5017091B60160507240620FF0
:1005F000731FF801808191810E9490008091B50164
:100600009091B6019093B4018093B30113C0CB30A5
:10061000D10509F4A7CF6091B5017091B60162953B
:100620007295707F7627607F7627F80180819181AF
:100630000E949000F0E1EF16F1040CF493CF0AE46D
:1006400011E0C1E087E06C2F0E9464009093B60136
:100650008093B5016091B5017091B6016295729574
:10066000707F7627607F7627F801819191918F01C5
:100670000E949000CF5FC03129F7E091B201F0E015
:10068000EE0FFF1FE853FD4F608171818CE391E015
:100690000E949000E091B201F0E0EE0FFF1FE052E7
:1006A000FE4F608171818AE391E00E949000A198E1
:1006B000A19ADF91CF911F910F91FF90EF90089534
:1006C00084B1876284B9ECEDF0E080818C65808331
:1006D00085B1897D85B9EDEDF0E08081837F8083F0
:1006E00080E58CBD8081877F80838081877F808348
:1006F00080818860808380818F7E808308950F93BE
:100700001F93CF93DF932D9AC091BD014091BD01FE
:100710000091BD018091BD01A091BD016091BD011D
:100720002091BD019091C20197959927979581706D
:10073000982BCC1FCC27CC1FCC0FC92B46954695A8
:1007400050E041705070CA01880F991F880F991F9F
:100750008C2B069510E001701070E801CC0FDD1FA6
:10076000CC0FDD1FCC0FDD1FC82BA295AF70B0E002
:10077000A170B070FD01E295F295F07FFE27E07F59
:10078000FE27EC2B62956695677070E06170707063
:10079000AB01440F551F42955295507F5427407F1F
:1007A00054274E2B229526952695237030E02170F4
:1007B0003070C90100249695879507949695879582
:1007C0000794982F802D842B8EBD0DB407FEFDCF8E
:1007D0008EB58093BF018091BF019091BE018927A2
:1007E0008093BF018091BE019091BF0189278093C2
:1007F000BE018091BF019091BE0189238093BF010A
:100800008091BD019091BF0189278093BD011EBCDD
:100810000DB407FEFDCF8EB58093BC018091BC0165
:1008200082958695877081708093C5018091BC0107
:10083000829586958695837081708093C4011EBCD5
:100840000DB407FEFDCF1EBC0DB407FEFDCF2091F9
:10085000C5018091C6019091C701220F220F879593
:1008600088278795822B892B8EBD0DB407FEFDCF7F
:10087000EDEDF0E08081877F8083808188608083D8
:100880002D988FB18093C0018091C0019091C101DA
:1008900089278093C0018091C1019091C00189276F
:1008A0008093C1018091C0019091C10189238093FF
:1008B000C0018091C00182FF06C09091C20181E019
:1008C00089278093C2018091C00184FF06C0909166
:1008D000C60181E089278093C6018091C00183FF12
:1008E00006C09091C70181E089278093C701EDED93
:1008F000F0E080818F7B80834091BD013091BD010C
:10090000C091BD010091BD016091BD01A091BD01EB
:100910002091BD018091C2018295807F36953695E8
:100920003170382B10E001701070C801880F991FCA
:10093000832BA295A695A770A795AA27A7958A2B82
:10094000441F4427441F440F440F440F482BC695AF
:10095000D0E0C170D070DE01AA0FBB1FAA0FBB1F71
:10096000A42B62956F7070E061707070AB01002411
:10097000569547950794569547950794542F402DC3
:100980004A2B229526952695237030E021703070F1
:10099000C901880F991F82959295907F9827807F33
:1009A0009827842B82B980818064808300008081B5
:1009B0008F7B808312B890818091C70120818195BF
:1009C00082278071892780838091C601882309F45A
:1009D00062C09091C60181E089278093C601909101
:1009E000C00180E189278093C00180E00E9450050A
:1009F0009093CB038093CA0381E00E9450059093AB
:100A0000C9038093C80381E060E00E94F90681E099
:100A100061E00E94F90682E060E00E94F90682E04F
:100A200061E00E94F90683E060E00E94F90683E03D
:100A300061E00E94F90684E060E00E94F90684E02B
:100A400061E00E94F90685E060E00E94F90685E019
:100A500061E00E94F90686E060E00E94F90686E007
:100A600061E00E94F90687E060E00E94F90687E0F5
:100A700061E00E94F90688E060E00E94F90688E0E3
:100A800061E00E94F90689E060E00E94F90689E0D1
:100A900061E00E94F906DF91CF911F910F910895B7
:100AA0002F923F924F925F926F927F928F929F927E
:100AB000AF92BF92CF92DF92EF92FF920F931F936C
:100AC000CF93DF93CDB7DEB728970FB6F894DEBF8C
:100AD0000FBECDBF082F8091CF0383608093CF03DB
:100AE00080E291E060E070E00E94900082E391E09B
:100AF00060E070E00E94900084E391E060E070E0CC
:100B00000E9490008EEA91E060E070E00E94900008
:100B100084E291E060E070E00E9490008EE291E05B
:100B200060E070E00E94900080E391E060E070E09F
:100B30000E94900082E191E060E070E00E949000ED
:100B40008CE191E060E070E00E94900084E191E02F
:100B500060E070E00E94900086E191E060E070E06B
:100B60000E94900088E191E06FEF7FE30E94900087
:100B70008AE191E060E070E00E94900082E291E002
:100B800060E070E00E9490008CE091E060E070E036
:100B90000E94900088E091E060E070E00E94900088
:100BA00084E091E06FEF7FE30E94900080E091E0AD
:100BB00060E070E00E94900080E191E060E070E011
:100BC0000E9490001092CE030023C1F40F2EFCE38C
:100BD0004F2EF1E05F2EF02D0F2EFCE22F2EF1E0D4
:100BE0003F2EF02D26E331E03A8329830F2EF8E2E1
:100BF0006F2EF1E07F2EF02D81E017C00F2EFAE36B
:100C00004F2EF1E05F2EF02D0F2EFEE12F2EF1E0A2
:100C10003F2EF02D88E391E09A8389830F2EFAE22C
:100C20006F2EF1E07F2EF02D80E482B9EDEDF0E043
:100C300080818064808380818F7B808312B8899AD1
:100C400084B58F6084BD81E087BDEEE6F0E09081E1
:100C5000926090838093D003EDE0F0E0FC83EB831F
:100C600018861F82802F90E08C010F5F1F4F0F2E80
:100C7000F0E2EF2EF1E0FF2EF02D0F2EF8E1CF2E57
:100C8000F1E0DF2EF02D0F2EF4E0AF2EF1E0BF2EBD
:100C9000F02D0F2EF6E08F2EF1E09F2EF02D21E0AB
:100CA00030E00B8002C0220F331F0A94E2F73E832C
:100CB0002D838F819885822B932B98878F83C301F7
:100CC0006F8178850E9490001092CE031092D1031C
:100CD0008091CE03882389F5C80160E00E946701F6
:100CE000C3016F8178850E949000C1016FEF7FE39F
:100CF0000E949000C70160E070E00E949000C60171
:100D00006FEF7FE30E949000C5016FEF7FE30E94C9
:100D10009000C4016FEF7FE30E94900089819A8167
:100D20006FEF7FE30E949000C20160E070E00E94DC
:100D300090008091CE03882379F28091CC0390912A
:100D4000CD03EAE4883A9E0720F48091AA01882323
:100D500051F48D819E81809590952F81388528232F
:100D6000392338872F8381E08093AA018B819C816E
:100D700001979C838B83EFEF8F3F9E0709F08FCF06
:100D800080E091E060E070E00E94900082E091E0FD
:100D900060E070E00E94900088E191E060E070E027
:100DA0000E94900080E291E060E070E00E9490007C
:100DB0008998EEE6F0E080818D7F80838F81988531
:100DC00028960FB6F894DEBF0FBECDBFDF91CF914E
:100DD0001F910F91FF90EF90DF90CF90BF90AF9059
:100DE0009F908F907F906F905F904F903F902F904B
:100DF00008952F923F924F925F926F927F928F92BF
:100E00009F92AF92BF92CF92DF92EF92FF920F9399
:100E10001F93CF93DF93CDB7DEB7E4970FB6F89467
:100E2000DEBF0FBECDBFE82E062FDE011196E8E82B
:100E3000F1E088E101900D928150E1F7DE015996D1
:100E4000E0EAF1E08AE001900D928150E1F7CE2CCA
:100E5000DD24FE01EC0DFD1D818D8093D00380E229
:100E600091E060E070E00E94900082E391E060E039
:100E700070E00E94900084E391E060E070E00E94E6
:100E800090008EEA91E060E070E00E94900084E2C1
:100E900091E060E070E00E9490008EE291E060E0FE
:100EA00070E00E94900080E391E060E070E00E94BA
:100EB000900082E191E060E070E00E9490008CE19F
:100EC00091E060E070E00E94900084E191E060E0D9
:100ED00070E00E94900086E191E060E070E00E9486
:100EE000900088E191E06FEF7FE30E9490008AE13B
:100EF00091E060E070E00E94900082E291E060E0AA
:100F000070E00E9490008CE091E060E070E00E9450
:100F1000900088E091E060E070E00E94900084E042
:100F200091E06FEF7FE30E94900080E091E060E04D
:100F300070E00E94900080E191E060E070E00E942B
:100F40009000002319F52091CA033091CB033EA3F2
:100F50002DA30F2EFCE34F2EF1E05F2EF02D8CE23F
:100F600091E09AA789A7E6E3F1E0F8A7EFA30F2E97
:100F7000F8E22F2EF1E03F2EF02D08EC12E00F2EBC
:100F8000FAE08F2EF02DAA24A39423C02091C80349
:100F90003091C9033EA32DA30F2EFAE34F2EF1E0AB
:100FA0005F2EF02D8EE191E09AA789A7E8E3F1E0AA
:100FB000F8A7EFA30F2EFAE22F2EF1E03F2EF02D2F
:100FC00008EC11E00F2EF4E18F2EF02DAA24689486
:100FD000A6F8F2E0FE1520F083E08093CF0303C073
:100FE00082E08093CF03C1016DA17EA10E94900099
:100FF000A2B8EDEDF0E080818064808380818F7BFA
:10100000808312B8899A84B58F6084BD81E087BDE2
:10101000EEE6F0E08081826080839E012F5F3F4F8B
:101020003AAB29ABC601880F991F8C0D9D1D880F07
:10103000991F880F991F880F991F0297F801E80FD1
:10104000F91FFCABEBAB9E01275E3F4F3CA32BA3EC
:10105000C80CD11C0F2EF0E2AF2EF1E0BF2EF02D08
:101060000F2EF8E18F2EF1E09F2EF02D0F2EF4E0E1
:101070006F2EF1E07F2EF02DE9A9FAA9219131918F
:10108000FAABE9AB3EA72DA7EBA9FCA98191919101
:10109000FCABEBAB8C0108571F4F26E030E03CA7C0
:1010A0002BA70F2EF6E0EF2EF1E0FF2EF02DC8015A
:1010B0000BA402C0969587950A94E2F70BA402C090
:1010C000880F991F0A94E2F7E1E0F0E00BA402C058
:1010D000EE0FFF1F0A94E2F7F8ABEFA78F01082B82
:1010E000192BC201B8010E9490001092CE031092F9
:1010F000D1038091CE03882389F5C60160E00E9468
:101100006701C201B8010E949000C1016DA17EA1DA
:101110000E94900089A59AA56FEF7FE30E9490003E
:10112000C50160E070E00E949000C4016FEF7FE3B2
:101130000E949000C3016FEF7FE30E949000C701FF
:101140006FEF7FE30E9490008FA198A56FEF7FE380
:101150000E9490008091CE03882379F28091CC0385
:101160009091CD032DA53EA58217930750F4809151
:10117000AA01813031F48FA598A980959095082314
:1011800019238091CC039091CD03EDA5FEA58E1778
:101190009F0721F48091AA01813071F081E0809352
:1011A000AA012BA53CA5215030403CA72BA78FEFCF
:1011B0002F3F380709F07BCFEBA9FCA911830083EF
:1011C00029A93AA98BA19CA12817390709F054CF66
:1011D0008998EEE6F0E080818D7F8083E4960FB6FB
:1011E000F894DEBF0FBECDBFDF91CF911F910F915D
:1011F000FF90EF90DF90CF90BF90AF909F908F9037
:101200007F906F905F904F903F902F900895FC01DA
:101210004283748363831182108208951F93CF9356
:10122000DF93EC01162F0E947D09282F3981832F2F
:1012300090E001966A8170E00E94D60F488150E0EC
:101240008417950729F4822F0E94800980E011C03D
:10125000EB81FC81E30FF11D1083898190E0019601
:101260006A8170E00E94D60F8983822F0E948009D4
:1012700081E0DF91CF911F910895CF93DF93EC012F
:101280000E947D0929819881291718F0C22FC91B56
:1012900003C0CA81C20FC91B0E9480098C2FDF9135
:1012A000CF910895FC012081862F90E0820F911D3F
:1012B000628170E00E94D60F0380F481E02DE80F78
:1012C000F91F808108951F93CF93DF93EC01162FB0
:1012D0000E947D09482F8881212F30E0280F311D81
:1012E0006A81C90170E00E94D60F8883842F0E9412
:1012F0008009DF91CF911F9108958FB7F8940895D9
:101300008FBF0895881F8827881F089591E0883F20
:1013100008F490E0892F0895282F30E0207F307066
:10132000203C3105E9F1213C31058CF420393105AF
:10133000E1F02139310524F42038310579F515C063
:10134000203A310591F0203B310541F50EC0203E99
:10135000310559F0213E310524F4203D3105F1F4E9
:101360001FC0203F3105D1F402C083E00895863FBD
:1013700079F0873F38F4823FA9F0833F59F0813FED
:1013800059F408C0883F40F08D3F10F08E3F20F0A8
:1013900081E0089582E0089580E0089580E0089556
:1013A00082E0089583E008950F93342F022F462F93
:1013B0004F70406B232F2F770F77DC01ED91FC915D
:1013C00063E070E009950F9108950F93342F022F79
:1013D000462F4F704069232F2F770F77DC01ED9157
:1013E000FC9163E070E009950F9108950F93342FFD
:1013F000022F462F4F704068232F2F770F77DC0185
:10140000ED91FC9163E070E009950F9108950F93C1
:10141000342F022F462F4F70406A232F2F770F77DC
:10142000DC01ED91FC9163E070E009950F91089566
:101430000F931F9320E24030520744F4A0EE403057
:101440005A073CF08A010050104E05C00FEF1FE311
:1014500002C000E010E0462F4F70406E202F2F7723
:10146000000F012F001F110B11950F77DC01ED917B
:10147000FC9163E070E009951F910F9108950F931F
:10148000242F462F4F70406C2F77DC01ED91FC919B
:1014900062E070E000E009950F9108950F93242F0A
:1014A000462F4F70406D2F77DC01ED91FC9162E08B
:1014B00070E000E009950F9108950F93DC01ED9124
:1014C000FC9161E070E048EF20E000E009950F91A9
:1014D00008950F93DC01ED91FC9161E070E049EF1C
:1014E00020E000E009950F9108950F93DC01ED9144
:1014F000FC9161E070E04AEF20E000E009950F9177
:1015000008950F93DC01ED91FC9161E070E04BEFE9
:1015100020E000E009950F9108950F93DC01ED9113
:10152000FC9161E070E04CEF20E000E009950F9144
:1015300008950F93DC01ED91FC9161E070E04EEFB6
:1015400020E000E009950F9108950F93DC01ED91E3
:10155000FC9161E070E04FEF20E000E009950F9111
:1015600008950F93262F2F77DC01ED91FC9162E017
:1015700070E041EF00E009950F9108950F931F93DC
:10158000262F2F778B01000F012F001F110B1195B4
:101590000F77DC01ED91FC9163E070E042EF09957B
:1015A0001F910F9108950F93262F2F77DC01ED9156
:1015B000FC9162E070E043EF00E009950F9108951F
:1015C0000F93DC01ED91FC9161E070E046EF20E0CB
:1015D00000E009950F9108950F93462FDC01ED91DE
:1015E000FC9161E070E020E000E009950F91089522
:1015F0000F93DC01ED91FC9109950F9108956F9285
:101600007F928F929F92AF92BF92CF92DF92EF9292
:10161000FF920F931F93CF93DF9300D00F92CDB71C
:10162000DEB74C016B015A016115710541F1EE24E1
:10163000FF240F2EF3E06F2E7724F02D19821A82EB
:101640001B8286010E191F090430110508F0830161
:10165000B5016E0D7F1DCE010196402F512F0E94C6
:10166000E90FC401B80149812A810B810E94F80A5F
:1016700083E090E0E80EF91EEC14FD04F8F20F9000
:101680000F900F90DF91CF911F910F91FF90EF90EE
:10169000DF90CF90BF90AF909F908F907F906F9092
:1016A0000895FC01738362830895FC01758364834C
:1016B0000895FC01778366830895FC017187608734
:1016C0000895FC01738762870895FC01758764871C
:1016D0000895FC01778766870895FC01718B608B04
:1016E0000895FC01738B628B0895FC01758B648BEC
:1016F0000895FC01778B668B0895FC01718F608FD4
:101700000895FC01738F628F0895FC01758F648FBB
:101710000895FC01778F668F0895CF93DF93EC01D6
:101720001DA21FA21EA2BC01685D7F4F88519F4F62
:1017300040EC0E9407091B821A821D821C821F82B4
:101740001E82198618861B861A861D861C861F8691
:101750001E86198A188A1B8A1A8A1D8A1C8A1F8A61
:101760001E8A198E188E1B8E1A8E1D8E1C8E1F8E31
:101770001E8E19A218A2DF91CF910895EF92FF92C9
:101780000F931F93CF93DF93D62F662399F0042FE7
:10179000152FC0E00F2EF8EEEF2EFF24F02DE80EEF
:1017A000F91EF80161918F01C7010E940E09CF5FF8
:1017B000CD17B9F7DF91CF911F910F91FF90EF9067
:1017C0000895FC01718360830895FC0171A360A3F7
:1017D0000895AF92BF92CF92DF92EF92FF920F9354
:1017E0001F93CF93DF9300D00F92CDB7DEB76C017C
:1017F0005B01F42EE22E102FDC0195968C919597CB
:101800008430E9F45A96ED91FC915B97309709F496
:10181000EEC0CB01019763E070E00E94C20FCB01E4
:10182000880F991F680F791F49832A830B834A2DDC
:10183000461BC6019E012F5F3F4F0995C8C062300D
:10184000710509F45FC06330710529F061307105DD
:1018500009F0B3C099C0842F90E0807F9070803AE7
:10186000910529F1813A91053CF480389105C9F040
:101870008039910591F50FC0803E9105F1F0803FD0
:10188000910509F1803B910541F5D6011296ED9144
:10189000FC91139724C0D6011496ED91FC911597F5
:1018A0001EC0D6011696ED91FC91179718C0D6016F
:1018B0001896ED91FC91199712C0D6011A96ED91E8
:1018C000FC911B970CC0B2EF4B1709F090C0D601EA
:1018D0001C96ED91FC911D9702C0E0E0F0E030977E
:1018E00009F485C0B2EFFB1631F4C60162EF4E2D4C
:1018F000212F09956CC06F2D6F70C6014E2D212FC1
:10190000099565C0842F90E0807F9070803D91059F
:1019100061F0803F910579F0803C9105F9F4D601A2
:101920001E96ED91FC911F971BC0D6015096ED912C
:10193000FC91519715C0B3EF4B1731F4D601529675
:10194000ED91FC9153970CC0B1EF4B1709F04FC0CC
:10195000D6015496ED91FC91559702C0E0E0F0E07D
:10196000309709F444C0B3EFFB1619F081EFF81675
:1019700029F4C6016F2D4E2D099529C06F2D6F706A
:10198000C6014E2D099523C0842F0E948609882305
:1019900031F0D6015696ED91FC91579708C0B6EFFD
:1019A000FB1629F5D6015896ED91FC915997309781
:1019B000F1F0C6016F2D09950AC064307105A8F4D5
:1019C00016C0C601B5014F2D2E2D012F0995D60148
:1019D0005E96ED91FC915F97309789F0C601B50155
:1019E0004F2D2E2D012F09950AC0AA24BB24D60104
:1019F0005C96ED91FC915D97309719F7E8CF0F90C9
:101A00000F900F90DF91CF911F910F91FF90EF906A
:101A1000DF90CF90BF90AF900895EF92FF920F9319
:101A2000CF93DF937C01C62F862F0E9486098823DF
:101A300091F0D7019596DC91959781E095968C93DE
:101A4000C70161E070E04C2F20E000E00E94E90B4C
:101A5000F701D5A3B7C08C2F0E948209882309F40F
:101A600073C0D70195968C919597843049F09296E2
:101A7000CC93929781E090E097969C938E93969763
:101A80008C2F0E948C09813041F0813000F182302E
:101A9000A1F0833009F04FC014C081E0F70185A3A5
:101AA000C70161E070E04C2F20E000E00E94E90BEC
:101AB000D70195961C92959785C082E0F70185A382
:101AC00081C083E0D70195968C9395977BC0C03FEA
:101AD00019F0C73F59F50AC084E0F70185A380EFEC
:101AE00082A381E090E097A386A36CC0D70196966D
:101AF0002D913C919797C90163E070E00E94C20F5D
:101B0000F701E80FF91F87EF82A3B9016F5F7F4FDD
:101B1000F70177A366A3C70142A123A104A10E94F4
:101B2000E90BD70195961C9295974CC0F70115A229
:101B300017A216A247C0D70195961C929597979623
:101B40001C921E9296973EC0F70125A12223D1F147
:101B500006A0F7A1E02DCF0163E070E00E94C20F64
:101B6000AC018E0D9F1DDC019296CC939297BF0124
:101B70006F5F7F4FF70177A366A34130510591F066
:101B800042305105F9F4C70142A123A104A10E94EA
:101B9000E90BF70185A18430A9F081E090E097A3DB
:101BA00086A310C0223071F4C70142A123A100E036
:101BB0000E94E90BF70185A1843021F081E090E0DB
:101BC00097A386A3DF91CF910F91FF90EF90089597
:101BD000CF92DF92EF92FF920F931F93CF93DF93F9
:101BE0006C01DC019096ED91FC919197309709F092
:101BF00009950F2EF8EEEF2EFF24F02DEC0CFD1CB6
:101C0000C7010E943D09C82FD0E0209799F000E05D
:101C100010E0C70160E00E945209682FC6010E94CF
:101C20000D0DC70161E00E9463090F5F1F4F0C1784
:101C30001D0778F3DF91CF911F910F91FF90EF90E7
:101C4000DF90CF9008959C0167E070E00E94C20F82
:101C5000482F882381F0C90167E070E00E94C20F1D
:101C6000CB01880F991F880F991F880F991F019624
:101C7000840F911D0895C90167E070E00E94C20FB2
:101C8000CB01880F991F880F991F880F991F0895FE
:101C9000482F4770A1F09C013695279536952795DA
:101CA00036952795C901880F991F880F991F880FAE
:101CB000991F821B930B0197840F911D08959C011E
:101CC000369527953695279536952795C901880F1E
:101CD000991F880F991F880F991F821B930B0895D6
:101CE0002F923F924F925F926F927F928F929F922C
:101CF000AF92BF92CF92DF92EF92FF920F931F931A
:101D0000CF93DF9300D000D000D0CDB7DEB71C0159
:101D10007A8369833A01CA0167E070E00E94C20FCA
:101D20002B015B0161157105B1F18101E980FA8038
:101D3000CC24DD24882499241E830D83F80111927C
:101D4000FC82EB82A401AB81BC812D91BC83AB836F
:101D50004F5F5F4F822F90E080789070BC01042E1F
:101D600002C0759567950A94E2F7AD81BE818C91AA
:101D7000862B8C932F7721934730510521F70894B8
:101D8000C11CD11C085F1F4FE7E0F0E0EE0EFF1E04
:101D9000CA14DB0489F6C30167E070E00E94C20F39
:101DA0008823D9F18201000F111F000F111F000FAE
:101DB000111F7801E418F508D101A00FB11F1C9282
:101DC000682F70E06115710519F1E981FA81EE0E55
:101DD000FF1EC8010196280E391E20E030E0F701F1
:101DE00041917F012F5F3F4F842F90E0807890706A
:101DF000022E02C0959587950A94E2F79C91892B53
:101E00008C934F77F10141931F012617370738F361
:101E1000C8010196860F971F07C0C201880F991F3E
:101E2000880F991F880F991F26960FB6F894DEBF6A
:101E30000FBECDBFDF91CF911F910F91FF90EF901B
:101E4000DF90CF90BF90AF909F908F907F906F90DA
:101E50005F904F903F902F9008956F927F928F9256
:101E60009F92AF92BF92CF92DF92EF92FF920F9329
:101E70001F93CF93DF933C014B015A014230510530
:101E800008F46FC07A01F694E794F694E794F69418
:101E9000E794E114F10429F1EB01B30100E010E053
:101EA000CC24DD24DE011196FB01A6012D912F77B4
:101EB00020834F5F5F4F888190E0042E02C0880F1F
:101EC000991F0A94E2F78078282B21934730510517
:101ED00069F70F5F1F4F2896695F7F4F0E151F052B
:101EE00009F75A2D577099F1E701CC0FDD1FCC0F80
:101EF000DD1FCC0FDD1F8E010E191F09652F70E04D
:101F000061507040F9F0CE010196D401A80FB91FBD
:101F1000F301E00FF11F20E030E0C80DD91D4D9115
:101F20004F7740832F5F3F4F888190E0022E02C0A1
:101F3000880F991F0A94E2F78078482B419326175F
:101F4000370768F3C8010197850F911D0CC0C701C1
:101F5000880F991F880F991F880F991F8E199F0945
:101F600002C080E090E0DF91CF911F910F91FF9030
:101F7000EF90DF90CF90BF90AF909F908F907F9029
:101F80006F900895AA1BBB1B51E107C0AA1FBB1F7E
:101F9000A617B70710F0A61BB70B881F991F5A95F5
:101FA000A9F780959095BC01CD01089597FB092E66
:101FB00007260AD077FD04D0E5DF06D000201AF40A
:101FC000709561957F4F0895F6F7909581959F4F95
:101FD0000895FB01DC0102C001900D924150504078
:081FE000D8F70895F894FFCF33
:101FE80005030303040302030603000307030103B5
:101FF80005000102000203020602070202020401B0
:1020080004020502030101000400050106000200A4
:102018000700030000010701060101010201D711B1
:10202800CD5D1B5EDE15DF5F4F001C011A01180134
:1020380016011401120110010E010C010A01080118
:102048000601040102010001380136013401AE0124
:10205800320130012E012C012A0128012601AC0190
:102068002401220120011E014F95ED8C04858D7DF0
:102078008176DB6F9369A7630F5EC758CC53184FFF
:0C208800010204010204081020400100C5
:00000001FF
