:100000000C9432000C944F000C944F000C944F0051
:100010000C944F000C944F000C944F000C944F0024
:100020000C944F000C9480020C9441020C944F00ED
:100030000C944F000C94D7020C944F000C944F007A
:100040000C944F000C944F000C944F000C944F00F4
:100050000C944F000C944F000C944F000C944F00E4
:100060000C944F0011241FBECFEFD0E1DEBFCDBFF7
:1000700012E0A0E0B1E0E0E9F7E302C005900D92E4
:10008000A03BB107D9F714E0A0EBB2E001C01D928C
:10009000AF36B107E1F70E940C030C94C61B0C9419
:1000A0000000EAE7F0E0808184608083ACE7B0E0A4
:1000B0008C9180648C93AEE7B0E08C9181608C93DE
:1000C0008081806880830895FC0183818F7082B96C
:1000D000AAEDB0E04C91838182958F70877021E00A
:1000E00030E0B90102C0660F771F8A95E2F7CB01B5
:1000F000809584238C937DE07A95F1F70000AAE740
:10010000B0E08C9180648C938C9186FDFDCFAAED3C
:10011000B0E04C91838182958F70877021E030E050
:10012000B90102C0660F771F8A95E2F7CB01842BD5
:100130008C938091780090E040917900342F20E0FA
:10014000822B932B08958091B00208950F931F93F3
:10015000CF93DF93182F062F8AEB91E0EC012297C3
:10016000BE014EE050E00E94771B18830983109374
:10017000B002DF91CF911F910F910895CF93C0915D
:10018000B801C81741F0EAEBF1E041E050E090819E
:10019000981759F402C040E050E0FA01EE0FFF1F3B
:1001A000E854FE4F8FEF808307C04F5F5F4F32965A
:1001B0004830510561F740E050E0CA01880F991FAF
:1001C000BC0166547E4F40955095485F5F4F440F89
:1001D000551F88549E4F0E94771B8FEF8093C60156
:1001E0008091B8018F3F19F4C093B00202C0809390
:1001F000B002CF910895DC016BB978B9A098A09AAC
:100200008C91877082B966E06A95F1F700C0EAEDDB
:10021000F0E040818C91869586958695877021E0E7
:1002200030E0B90102C0660F771F8A95E2F7CB0173
:10023000842B808376E07A95F1F700C080819C91D1
:10024000969596959695977002C0220F331F9A95B2
:10025000E2F7209528232083089583B3836083BB2E
:100260008FEF8AB997B187B9E9EDF0E080818F60AF
:100270008083EAEDF0E08081807F808384B38360B7
:1002800084BBA198A19AA098A09A08950F931F9358
:10029000CF93DF93CDB7DEB72E970FB6F894DEBFBE
:1002A0000FBECDBF28E0298321E02A8322E02B83E3
:1002B00024E02C83DE011596E7EEF1E02AE00190C0
:1002C0000D922150E1F72FEF22B9EAEDF0E0208105
:1002D0002061208320812F7E2083062F10E0DE0105
:1002E000A00FB11F11962C91119722B92081206285
:1002F000208320812F7D2083482F592F87E2403192
:10030000580710F04FE057E2CA01969587959695E9
:1003100087959A0136952795280F391FC90192951F
:1003200082958F7089279F708927820F931F292FAD
:100330003327820F931F9695879596958795969567
:100340008795282F220F322F330F330F230FE42FDF
:10035000E21B61E070E0EA3010F460E070E0680FEA
:10036000791F9B013695279536952795AB015695B4
:100370004795240F351FC901929582958F70892763
:100380009F708927820F931F292F3327820F931F76
:10039000969587959695879596958795982F990F19
:1003A000292F220F220F920F691B91E06A3008F467
:1003B00090E0890F41EF51E0DA01A60FB11D3C91A9
:1003C000282F26952695982F9695920F292F2295BE
:1003D0002F70920F969596959695292F220F622F42
:1003E000660F660F260F821BDA01A80FB11D2C9134
:1003F0004E0F511DFA0140814093B3023093B40275
:100400002093B50221E08A3008F420E0920F909307
:10041000B602F801ED54FD4F8081FE01E80FF11D99
:10042000858190910703923011F4806203C091306E
:1004300009F488E0809582B9EAEDF0E0808180617E
:10044000808380818F7E80832E960FB6F894DEBFE6
:100450000FBECDBFDF91CF911F910F910895CF9324
:10046000662369F4C091B7026C2F0E9446018C2F5D
:100470008F5F8093B702C33011F41092B702CF910F
:1004800008951F920F920FB60F9211248F939F938E
:10049000EF93FF9380917903815087BD80917A0318
:1004A0008823A1F41092770381E08093AF028093B8
:1004B0007A03E1E8F0E0808190917803892B8083D2
:1004C000EFE6F0E080818160808311C0E4E8F0E035
:1004D00080819181909376038093750310928100BF
:1004E00081E08093770310927A0311821082FF914A
:1004F000EF919F918F910F900FBE0F901F901895C5
:100500001F920F920FB60F9211241092AF020F900C
:100510000FBE0F901F901895683F19F06A3F91F435
:100520000FC0809181038F5F8093810390917F033F
:10053000891741F485B1805885B9109281030895D7
:10054000109281030895842F0E94BE008091B90209
:1005500081508093B902882309F489980895842FE3
:100560009091FF0290FD2C9A8093BA02222359F4B5
:100570000E94BE008091B90281508093B902882305
:1005800059F4899809C0622F0E94A6008091B9028F
:100590008F5F8093B902899A2C98089587E280939F
:1005A000C4001092C50088E98093C10008951F928D
:1005B0000F920FB60F9211242F933F934F935F9397
:1005C0006F937F938F939F93AF93BF93EF93FF931B
:1005D000CF93DF930F92CDB7DEB78091C6008983AA
:1005E00082E893E061E0AE014F5F5F4F0E94241705
:1005F0000F90DF91CF91FF91EF91BF91AF919F91BC
:100600008F917F916F915F914F913F912F910F90BB
:100610000FBE0F901F901895C0E8C5BFC5BF279AA1
:10062000249A819A9A9AA2980E943906A9EDB0E07C
:100630008C91806C8C93EAEDF0E08081806C8083FB
:1006400081B18FEF81B992B182B98C9180638C9323
:1006500080818F7C80838298ECEDF0E080818062E5
:10066000808312B8EDEDF0E080818062808380812C
:100670008F7D808312B8C093FF020E9451000E94B8
:100680002D01C2E8D3E0CE010E94F316CE016FEA3D
:1006900072E00E94BB16CE0163EA72E00E94BF16B0
:1006A000CE016CE872E00E94DF160E94CE020E942A
:1006B0005E0681E08093030378940E946E1381E0CC
:1006C0000E94E1088E010F2EFDE7EF2EF3E0FF2ED2
:1006D000F02D0F2EF7E0CF2EF3E0DF2EF02DBB2410
:1006E0006894B1F8D0E8C8010E944E198091FD01CC
:1006F0009091FE0160E00E942F020E94AC030E94D4
:1007000039048091B802982F9F5F9093B80285308A
:1007100051F71092B8021092C102F701C0810E94F5
:10072000F5138C27F6019081913011F4CD2F01C083
:10073000C0E0C82BF701C0830E945E068091C10211
:10074000882339F00E94CA0CF6018081882309F4BD
:10075000B0820E949C0DC7CFBF92CF92DF92EF92E2
:10076000FF920F931F93CF93DF93C0E0D1E002EC91
:1007700012E00F2EFCE3CF2EDD24F02DCC0EDD1E7B
:100780000F2EF7E0EF2EF3E0FF2EF02DBB24689440
:10079000B1F8888199810E9464009093BC02809393
:1007A000BB02E881F98140812181522F5370841B63
:1007B000950B9595879595958795840F951F8083C3
:1007C000892F83702C7F282B2183E991F9919281C5
:1007D00020818181382F3370D7018C91813019F0BD
:1007E0008381882324F0F8013183208314C0492FAA
:1007F0004350C9019595879595958795942F981B9A
:100800009A3F48F4D80111963C932E9383818F77B9
:100810008383F701B0820E5F1F4FCC15DD0509F011
:10082000B8CF8CE791E00E9464009093BC02809363
:10083000BB0220917C0140917D01342F3370821BDB
:10084000930B9595879595958795280F391F20933C
:100850007C01832F83704C7F482B40937D01DF9177
:10086000CF911F910F91FF90EF90DF90CF90BF90AD
:100870000895CF93DF936091C2027091C302629595
:100880007295707F7627607F762784EE91E00E94D4
:10089000FB006091C4027091C50262957295707FF1
:1008A0007627607F762783EE91E00E94FB006091BF
:1008B000C6027091C702660F771F660F771F660F1B
:1008C000771F82EE91E00E94FB006091C802709158
:1008D000C90262957295707F7627607F762782EBDA
:1008E00092E00E94FB006091CA027091CB02660FF9
:1008F000771F660F771F660F771F81EE91E00E94CA
:10090000FB006091CC027091CD0262957295707F70
:100910007627607F762780EE91E00E94FB00609151
:10092000CE027091CF0262957295707F7627607FBC
:1009300076278FED91E00E94FB006091D0027091CC
:10094000D10262957295707F7627607F76278EED53
:1009500091E00E94FB008091D4029091D502C0E00A
:10096000D2E0C81BD90B6091700370917103605085
:100970007E4F8091D2029091D302681B790B6C0F4D
:100980007D1F8DED91E00E94FB00609172037091DC
:1009900073036C0F7D1F8CED91E00E94FB00609152
:1009A000D6027091D70262957295707F7627607F2C
:1009B00076278BED91E00E94FB006091DA02709146
:1009C000DB0262957295707F7627607F76278AEDCD
:1009D00091E00E94FB006091DC027091DD02629563
:1009E0007295707F7627607F762789ED91E00E946F
:1009F000FB0060917C0180917D01782F737062957E
:100A00007295707F7627607F762788ED91E00E944F
:100A1000FB006091DE027091DF0262957295707F3B
:100A20007627607F762787ED91E00E94FB0060913A
:100A3000E0027091E10262957295707F7627607F87
:100A4000762786ED91E00E94FB006091E2027091B2
:100A5000E30262957295707F7627607F762785ED39
:100A600091E00E94FB000E94A300C82F883008F488
:100A7000C8E06091030340917F0350E024E630E03A
:100A8000429FC001439F900D529F900D1124860FED
:100A9000911D9093FE018093FD018C2F88506CE096
:100AA00073E00E949713BC0180E090E02091E60281
:100AB0003091E70240E050E00E94281BDC01CB01AE
:100AC000072E7AE0B695A795979587957A95D1F7F1
:100AD000702D6091E4027091E50262957295707FCD
:100AE0007627607F7627860F971FBC0180E46030F1
:100AF000780710F06FEF7FE384ED91E00E94FB0038
:100B00006091E8027091E90262957295707F762794
:100B1000607F762782ED91E00E94FB006091EA02FF
:100B20007091EB0262957295707F7627607F7627D1
:100B300081ED91E00E94FB006091EC027091ED026A
:100B400062957295707F7627607F762780ED91E0C1
:100B50000E94FB006091EE027091EF026295729527
:100B6000707F7627607F76278FEC91E00E94FB00F4
:100B70006091F0027091F10262957295707F762714
:100B8000607F76278EEC91E00E94FB006091F2027C
:100B90007091F30262957295707F7627607F762759
:100BA0008DEC91E00E94FB006091F4027091F502DF
:100BB00062957295707F7627607F76278CEC91E046
:100BC0000E94FB006091F8027091F90262957295A3
:100BD000707F7627607F76278AEC91E00E94FB0089
:100BE0006091F6027091F70262957295707F762798
:100BF000607F76278BEC91E00E94FB006091FC0205
:100C00007091FD0262957295707F7627607F7627DE
:100C100088EC91E00E94FB006091FA027091FB0267
:100C200062957295707F7627607F762789EC91E0D8
:100C30000E94FB008C2F6FE00E94C10B6EE473E0FA
:100C40000E949713BC0186EE91E00E94FB008C2F5E
:100C500060EF0E94C10B6CE273E00E949713BC012D
:100C600085EE91E00E94FB00A198A19ADF91CF91BF
:100C7000089584B1876284B9ECEDF0E080818C65E1
:100C8000808385B1897D85B9EDEDF0E08081837F3A
:100C9000808380E58CBD8081877F80838081877F92
:100CA000808380818860808380818F7E80830895A7
:100CB0008EBD0DB407FEFDCF8EB508952D9A80919F
:100CC00002030E9458069091C102982B9093C10292
:100CD0002091BF02982F9227892F82278093BF02ED
:100CE00089238093C00290917B03892780937B03A3
:100CF000809101030E9458069091C102982B909315
:100D0000C1022091BD02982F9227892F82278093BC
:100D1000BD0289238093BE0290917C038927809332
:100D20007C03809100030E9458068091FF020E947C
:100D3000580630917C0336953695369534708091FF
:100D40000703833011F480E801C080E090917D03B7
:100D5000292F221F2227221F2295220F220F207CBB
:100D6000232B9695969596959170922B892B0E94A0
:100D70005806EDEDF0E08081877F80838081886078
:100D800080832D980895A0E0B1E09D01245C3F4F41
:100D9000ED91FC91119780814181942F93709595ED
:100DA0008795959587958283ED91FD9183818068E4
:100DB0008383A217B30761F70895E0E0F1E0CF0164
:100DC000CC96A191B19113962C9113972F771396EE
:100DD0002C931397E817F907A1F708951F93CF9362
:100DE000DF93CDB7DEB7AB970FB6F894DEBF0FBE7B
:100DF000CDBF182FEEEDF2E02091DE02822F82951A
:100E0000807F22952F709091DF0293709295907F52
:100E1000DF015A973C91532F550F550F4A8143706C
:100E2000452B4A83632F629566956695637011968C
:100E30004C914370440F440FDF0158973C91532F5E
:100E40005295507F462B452B4B83632F62956F70D5
:100E500011964C9143704295407FDF0156973C912B
:100E6000532F5295550F550F507C462B452B4C83D5
:100E700011964C914295440F440F407C369536951F
:100E8000342B3D83DF0154973C913E8311964C9166
:100E9000DF0152973C91532F550F550F4370452B4F
:100EA0004F83632F629566956695637011964C919A
:100EB0004370440F440FDF0150973C91532F5295DC
:100EC000507F462B452B4887632F62956F70119694
:100ED0004C9143704295407FDF011E973C91532F08
:100EE0005295550F550F507C462B452B498711962F
:100EF0004C914295440F440F407C36953695342BE7
:100F00003A87DF011C973C913B8711964C91DF019A
:100F10001A973C91532F550F550F4370452B4C8713
:100F2000632F629566956695637011964C91437038
:100F3000440F440FDF0118973C91532F5295507F77
:100F4000462B452B4D87632F62956F7011964C9100
:100F500043704295407FDF0116973C91532F529585
:100F6000550F550F507C462B452B4E8711964C91B3
:100F70004295440F440F407C36953695342B3F877D
:100F8000DF0114973C91388B11964C91DF01129739
:100F90003C91532F550F550F4370452B498B32957C
:100FA00036953695337011964C914370440F440F2B
:100FB000832B842B8A8B8091E002382F3295330F5C
:100FC000330F307C922B932B9B8B93819295990FAF
:100FD000990F907C86958695892B8C8B8091E20267
:100FE0008D8B95818091E402282F220F220F937020
:100FF000922B9E8B382F329536953695337097818C
:101000009370990F990F8091E602282F2295207FE7
:10101000932B922B9F8B382F32953F709185937035
:101020009295907F8091E802282F2295220F220F1F
:10103000207C932B922B988F93859295990F990FE3
:10104000907C86958695892B898F8091EA028A8F7C
:1010500095858091EC02282F220F220F9370922BFE
:101060009B8F382F329536953695337097859370D0
:10107000990F990F8091EE02282F2295207F932BB4
:10108000922B9C8F382F32953F7091899370929557
:10109000907F8091F002282F2295220F220F207C32
:1010A000932B922B9D8F93899295990F990F907CFA
:1010B00086958695892B8E8F8091F2028F8F9589E8
:1010C0008091F402282F220F220F9370922B98A365
:1010D000382F329536953695337097899370990FDE
:1010E000990F8091F602282F2295207F932B922B27
:1010F00099A3382F32953F70918D93709295907F80
:101100008091F802282F2295220F220F207C932B0A
:10111000922B9AA3938D9295990F990F907C869517
:101120008695892B8BA38091FA028CA3958D809153
:10113000FC02282F220F220F9370922B9DA38295E1
:101140008695869583702EA1207F978D9370990F39
:10115000990F822B892B8EA38091FE028FA3809101
:10116000FF0288A78091000389A7809101038AA7C5
:10117000809102038BA70E94C30680917D038F7725
:1011800080937D0310920703212F30E08BE290E0E3
:10119000289FB001299F700D389F700D1124605059
:1011A0007040CE0101964BE250E00E949F1BAB962F
:1011B0000FB6F894DEBF0FBECDBFDF91CF911F9168
:1011C00008951F93CF93DF93CDB7DEB7C354D040BC
:1011D0000FB6F894DEBF0FBECDBF90E02BE230E03B
:1011E000829FB001839F700D929F700D11246050FB
:1011F0007040CE0101964BE250E00E94891BEEED5B
:10120000F2E08A89282F22952F709B89392F3295F9
:10121000307F322B292F22952F7023703093DE02DE
:101220002093DF02DF015A974A81469546952B812C
:10123000322F3295330F330F307C432B322F3695BC
:10124000369533704C9311963C93DF015897322FAB
:1012500032953F702C81422F4295407F432B322F95
:1012600032953F7033704C9311963C93DF01569743
:1012700022952695269523703D81432F440F440FD8
:10128000242B32953695369533702C9311963C93DA
:10129000DF0154974E812F81322F33704C9311967A
:1012A0003C93DF015297322F369536952885422F91
:1012B0004295440F440F407C432B322F3695369590
:1012C00033704C9311963C93DF015097322F329537
:1012D0003F702985422F4295407F432B322F329514
:1012E0003F7033704C9311963C93DF011E9722950B
:1012F0002695269523703A85432F440F440F242BBF
:1013000032953695369533702C9311963C93DF01C8
:101310001C974B852C85322F33704C9311963C9340
:10132000DF011A97322F369536952D85422F42953B
:10133000440F440F407C432B322F36953695337043
:101340004C9311963C93DF011897322F32953F70E2
:101350002E85422F4295407F432B322F32953F708E
:1013600033704C9311963C93DF0116972295269586
:10137000269523703F85432F440F440F242B32952D
:101380003695369533702C9311963C93DF01149764
:1013900048892989322F33704C9311963C93DF0191
:1013A000129726952695382F3295330F330F307CC0
:1013B000232B8695869583702C9311968C9392950A
:1013C0009695969593708C89282F220F220F922B39
:1013D00082958695869583709093E00283832D890C
:1013E0008E89982F93702093E2029583982F96957B
:1013F00096958F89282F2295220F220F207C292B4A
:10140000982F9695969593702093E4029783982F42
:1014100092959F70888D282F2295207F292B982FB9
:1014200092959F7093702093E6029187829586959E
:1014300086958370998D292F220F220F822B9295EA
:101440009695969593708093E80293872A8D8B8D5D
:10145000982F93702093EA029587982F96959695EA
:101460008C8D282F2295220F220F207C292B982F3C
:101470009695969593702093EC029787982F929566
:101480009F708D8D282F2295207F292B982F929544
:101490009F7093702093EE02918B8295869586952E
:1014A00083709E8D292F220F220F822B9295969565
:1014B000969593708093F002938B2F8D88A1982F2F
:1014C00093702093F202958B982F9695969589A10B
:1014D000282F2295220F220F207C292B982F9695BA
:1014E000969593702093F402978B982F92959F7006
:1014F0008AA1282F2295207F292B982F92959F70C3
:1015000093702093F602918F8295869586958370CD
:101510009BA1292F220F220F822B929596959695AB
:1015200093708093F802938F2CA18DA1982F9370C4
:101530002093FA02958F982F969596958EA1282F35
:101540002295220F220F207C292B86958695982F95
:1015500093702093FC02978F7FA17093FE0268A581
:101560006093FF0289A5809300039AA590930103DD
:101570001BA510930203DE019C96EFEFF1E028E03B
:1015800001900D922150E1F7E92FEF71F0E09F01FA
:10159000220F331F220F331FA901440F551F440F81
:1015A000551F440F551F421B530B4E0F5F1F559580
:1015B0004795559547955595479555954795477046
:1015C000FE01E40FF11D24A520930803DE01D4964B
:1015D000E7E0F2E028E001900D922150E1F7292F99
:1015E00030E0207E307035952795359527953595D7
:1015F00027958370282B422F50E0CA01880F991F2E
:10160000880F991F9C01220F331F220F331F220FB7
:10161000331F281B390B420F531FCA01959587951D
:101620009595879595958795959587958770FE01F2
:10163000E80FF11D84A980930903DE01DC96EFE039
:10164000F2E088E001900D928150E1F7607F462F33
:1016500050E0CA01880F991F880F991F9C01220F23
:10166000331F220F331F220F331F281B390B420F4A
:10167000531FCA019595879595958795959587955B
:10168000959587958770FE01E80FF11D84AD8093D5
:101690000A03212F2695279522272795812F8170D0
:1016A000282B812F8695869590E081709070880F09
:1016B000991F880F991F282B812F869586958695CF
:1016C00090E081709070880F991F282B812F829550
:1016D0008F7090E08170907082959295907F98279E
:1016E000807F9827282B812F82958695877090E0A0
:1016F00081709070880F991F82959295907F98279E
:10170000807F9827282B812F8295869586958370D8
:1017100090E0817090700024969587950794969537
:1017200087950794982F802D822B80937B03872F9A
:1017300090E081709070880F991F880F991F880F13
:10174000991F90917D03937F892B111F1127111FE2
:10175000110F110F812B80937D030E94C30680918E
:101760007D038F7780937D0310920703CD5BDF4F5E
:101770000FB6F894DEBF0FBECDBFDF91CF911F91A2
:10178000089590910803603F11F490910903292F67
:10179000220F920F990F990F890F893808F088E866
:1017A000089580917B03982F96959695969590FF36
:1017B0000EC0909108039F5F90930803953019F431
:1017C00094E09093080398E0892780937B038091AD
:1017D0007C03982F96959695969590FF0BC09091C7
:1017E0000803992319F091509093080398E08927F2
:1017F00080937C0380910803E1E2F2E0E80FF11DA1
:1018000081E090E0008002C0880F991F0A94E2F7FF
:10181000582F8093010390917C03292F26952695BC
:1018200020FF0EC0809109038F5F809309038530EC
:1018300019F484E08093090384E0982790937C0353
:1018400090917C03292F269520FF0BC080910903DE
:10185000882319F081508093090382E098279093A0
:101860007C03409100034C7F409300039091090357
:10187000933088F0ECE1F2E0E90FF11D21E030E077
:10188000C901008002C0880F991F0A94E2F7842BD7
:10189000809300030895ECE1F2E0E90FF11D21E0EF
:1018A00030E0C901008002C0880F991F0A94E2F756
:1018B000852B80930103089580917C03882364F431
:1018C000805880937C0380910A038F5F80930A0382
:1018D000853011F410920A03E0910A03F0E0EE0F54
:1018E000FF1FEA5DFD4F81E090E0018002C0880F9C
:1018F000991F0A94E2F79091FF029F70892B8093C1
:10190000FF02808182B9EDEDF0E08081806280830A
:1019100080818F7D8083089580917C0380FF0DC03E
:1019200091E0892780937C0380910B038F5F8093E4
:101930000B03853011F410920B036091FF02607F5E
:101940006093FF0220910B03222371F030E02150BD
:10195000304041E050E0CA0102C0880F991F2A952B
:10196000E2F7862B8093FF028091FF0290E08F7058
:1019700090708230910531F08430910539F01092E9
:101980007F03089588E180937F0308958CE080931E
:101990007F030895CF93DF9390917B0380917D0324
:1019A00086958695682F679566276795292F2170FC
:1019B000262B692F661F6627661F660F622BC92FAD
:1019C000C695C695D0E0C170D070DE01AA0FBB1FCE
:1019D000AA0FBB1F6A2BA92FA695B0E0A170B0700B
:1019E000FD01EE0FFF1FEE0FFF1FEE0FFF1FA62FD3
:1019F000AE2BE92FE295EF70F0E0E170F070BF01DF
:101A000062957295707F7627607F7627EA2FE62BA6
:101A1000692F62956695677070E061707070AB01B8
:101A2000440F551F42955295507F5427407F5427AD
:101A30006E2F642B492F429546954695437050E092
:101A4000417050709A010024369527950794369579
:101A500027950794322F202D262B20930203817087
:101A600081958927887089270E940514EDEDF0E0A3
:101A7000208190917D03969596959695917091957C
:101A800080818927807182278083EEEFF2E0808158
:101A900098279170892780830E94D10B0E945C0C4B
:101AA0000E948C0C80917C03982F9295969597704C
:101AB00090FF3FC090E2892780937C0387E082B942
:101AC000CDEDD0E088818062888388818F7D888396
:101AD00012B88FE06FE07EE50E94810E9093730351
:101AE0008093720380EF6FE07EE50E94810E9093F9
:101AF0007103809370038FE00E94E50F80EF0E94D6
:101B0000E50F0E9487110E9455138FE493EC019713
:101B1000F1F700C0000012B8888180628883888154
:101B20008F7D888312B88091FF028F7080688093C8
:101B3000FF02DF91CF91089580917D03982F9295B8
:101B400096959695937090FF17C090E4892780939F
:101B50007D03809103038F5F80930303853221F41B
:101B600084E28093030308C090910703933021F02F
:101B70000E94E1080E94CA0C80917D03982F9295E3
:101B80009695977090FF15C090E2892780937D030A
:101B900080910303813019F0815080930303809179
:101BA0000703833031F0809103030E94E1080E9413
:101BB000CA0C80917D03982F92959F7090FF15C05D
:101BC00090E1892780937D0390910703933049F03A
:101BD0008F7780937D0383E0809307030E94C30681
:101BE00004C0809103030E94EE0680917D03882348
:101BF00044F4806880937D0381E0809307030E9412
:101C0000DD06089588ED91E060E070E00E94FB0041
:101C100081EE91E060E070E00E94FB0082EE91E0D6
:101C200060E070E00E94FB0082EB92E060E070E018
:101C30000E94FB008AED91E060E070E00E94FB00F2
:101C40008FED91E060E070E00E94FB0080EE91E09B
:101C500060E070E00E94FB0081ED91E060E070E0E8
:101C60000E94FB0086ED91E060E070E00E94FB00C6
:101C700082ED91E060E070E00E94FB0083ED91E076
:101C800060E070E00E94FB0084ED91E06FEF7FE385
:101C90000E94FB0085ED91E060E070E00E94FB0097
:101CA00089ED91E060E070E00E94FB008EEC91E035
:101CB00060E070E00E94FB008CEC91E060E070E07E
:101CC0000E94FB008AEC91E06FEF7FE30E94FB0033
:101CD00088EC91E060E070E00E94FB0080ED91E014
:101CE00060E070E00E94FB0083EE91E060E070E055
:101CF0000E94FB0084EE91E060E070E00E94FB0037
:101D000008952F923F924F925F926F927F928F929F
:101D10009F92AF92BF92CF92DF92EF92FF920F937A
:101D20001F93CF93DF93CDB7DEB72C970FB6F89400
:101D3000DEBF0FBECDBF082F78876F8380917803F9
:101D40008360809378030E94020E109277030F3015
:101D5000E1F40F2EF6EE4F2EF1E05F2EF02D0F2E58
:101D6000FEED2F2EF1E03F2EF02D23EE31E03A83F1
:101D700029830F2EFCED8F2EF1E09F2EF02D82E7B0
:101D800096E09A87898781E01BC00F2EF5EE4F2ED3
:101D9000F1E05F2EF02D0F2EF7ED2F2EF1E03F2E0C
:101DA000F02DE4EEF1E0FA83E9830F2EFDED8F2EA6
:101DB000F1E09F2EF02D20E736E03A87298780E476
:101DC00082B9EDEDF0E080818064808380818F7B3B
:101DD000808312B8899A84B58F6084BD81E087BD05
:101DE000EEE6F0E0908192609083809379038DE03D
:101DF00090E09C838B83802F90E08C010F5F1F4FBE
:101E00000F2EF8EDEF2EF1E0FF2EF02D0F2EF4ED5A
:101E1000CF2EF1E0DF2EF02D0F2EFAECAF2EF1E0F9
:101E2000BF2EF02D0F2EFBEC6F2EF1E07F2EF02D4C
:101E3000E0E0F0E0FC87EB8721E030E00B8002C0BF
:101E4000220F331F0A94E2F73E832D838B859C85F6
:101E5000822B932B9C878B87C4016B857C850E948A
:101E6000FB001092770310927A038FE0E8E1F0E034
:101E70000FB6F894A895E09360000FBE80936000C1
:101E800080917703882389F5C80160E00E942F02C2
:101E9000C4016B857C850E94FB00C1016FEF7FE36D
:101EA0000E94FB00C70160E070E00E94FB00C601D9
:101EB0006FEF7FE30E94FB00C5016FEF7FE30E949D
:101EC000FB00C3016FEF7FE30E94FB0089819A81D1
:101ED0006FEF7FE30E94FB00C20160E070E00E94B0
:101EE000FB0080917703882379F288E10FB6F8949C
:101EF00080936000109260000FBE809175039091F6
:101F00007603EF81F885E817F90720F08091AF029A
:101F1000882351F48D819E81809590952B853C85F9
:101F2000282339233C872B8781E08093AF028B8164
:101F30009C8101979C838B83EFEF8F3F9E0709F075
:101F40007BCF2B853C853E832D8388EC91E060E040
:101F500070E00E94FB0089EC91E060E070E00E947C
:101F6000FB0084ED91E060E070E00E94FB0088EDF2
:101F700091E060E070E00E94FB008998EEE6F0E0FE
:101F800080818D7F808314BC89859A856D817E8157
:101F90000E94C01B8D819E812C960FB6F894DEBFE7
:101FA0000FBECDBFDF91CF911F910F91FF90EF90AA
:101FB000DF90CF90BF90AF909F908F907F906F9069
:101FC0005F904F903F902F9008952F923F924F92A5
:101FD0005F926F927F928F929F92AF92BF92CF92B9
:101FE000DF92EF92FF920F931F93CF93DF93CDB7C2
:101FF000DEB7C054D0400FB6F894DEBF0FBECDBFE1
:10200000082FDE011196E0E3F2E080E301900D92EB
:102010008150E1F70E94020E0F3011F540907203DB
:10202000509073030F2EF6EE8F2EF1E09F2EF02DC1
:102030000F2EFEED2F2EF1E03F2EF02D23EE31E09E
:102040003AAB29AB0F2EFCED6F2EF1E07F2EF02D79
:102050000EE413E0CC24C394EE246894E1F822C08B
:1020600040907003509071030F2EF5EE8F2EF1E02B
:102070009F2EF02D0F2EF7ED2F2EF1E03F2EF02D9D
:1020800044EE51E05AAB49AB0F2EFDED6F2EF1E05F
:102090007F2EF02D0CE213E0CC246894C1F8EE24DE
:1020A0006894E5F8C301B2010E94FB00E2B8EDEDCF
:1020B000F0E080818064808380818F7B808312B890
:1020C000899A81E080937903109274038C2D90E0BB
:1020D00024E630E0829FD001839FB00D929FB00D27
:1020E0001124BCABABABFE013196FCAFEBAF98015A
:1020F0002E5F3F4F21963FAF2EAF21971EAE1DAEF4
:102100000F2EF8EDEF2EF1E0FF2EF02D0F2EF4ED57
:10211000CF2EF1E0DF2EF02D0F2EFAECAF2EF1E0F6
:10212000BF2EF02DEBADFCAD80818093790384B59B
:102130008F6084BD81E087BD16BC4DAD5EAD433080
:10214000510524F483E08093780303C082E08093F8
:102150007803818192819AAF89AFADE0B0E0BEABE8
:10216000ADAB00E010E0E1E0F0E00DA802C0EE0F42
:10217000FF1F0A94E2F7F8AFEFAB0E2B1F2BAEE672
:10218000B0E08C918D7F8C93C401B8010E94FB005C
:10219000E3EFF1E03197F1F700C00000AEE6B0E008
:1021A0008C9182608C931092770310927A03E8E10D
:1021B000F0E02FE00FB6F894A895E09360000FBE12
:1021C0002093600080917703882381F580917903C3
:1021D0004BA95CA9480F511DCA0160E00E942F0263
:1021E000C301B2010E94FB00C401B8010E94FB00C0
:1021F000C70160E070E00E94FB00C6016FEF7FE363
:102200000E94FB00C5016FEF7FE30E94FB00C1014C
:1022100060E070E20E94FB0089A99AA96FEF7FE35A
:102220000E94FB0080917703882381F258E10FB66A
:10223000F89450936000109260000FBE8091750377
:1022400090917603A9ADBAADA817B90750F0809167
:10225000AF02813031F48FA998AD80959095082315
:1022600019238091750390917603E9ADFAAD8E172D
:102270009F0721F48091AF02813071F0F1E0F0937B
:10228000AF022DA93EA9215030403EAB2DAB4FEF00
:102290002F3F340709F067CF2196AEADBFAD219730
:1022A0000D931D932196BFAFAEAF2197EEE6F0E000
:1022B00080818D7F808314BC2DAD3EAD2F5F3F4F5D
:1022C0003EAF2DAF4BAD5CAD4D5F5F4F5CAF4BAFE5
:1022D0002031310509F026CF8998C05CDF4F0FB659
:1022E000F894DEBF0FBECDBFDF91CF911F910F914C
:1022F000FF90EF90DF90CF90BF90AF909F908F9026
:102300007F906F905F904F903F902F9008952F9205
:102310003F924F925F926F927F928F929F92AF9275
:10232000BF92CF92DF92EF92FF920F931F93CF93C2
:10233000DF93CDB7DEB7E9970FB6F894DEBF0FBED7
:10234000CDBFDE011196E0E6F2E08DE201900D9244
:102350008150E1F788ED91E060E070E00E94FB00C1
:1023600081EE91E060E070E00E94FB0082EE91E07F
:1023700060E070E00E94FB0082EB92E060E070E0C1
:102380000E94FB008AED91E060E070E00E94FB009B
:102390008FED91E060E070E00E94FB0080EE91E044
:1023A00060E070E00E94FB0081ED91E060E070E091
:1023B0000E94FB0086ED91E060E070E00E94FB006F
:1023C00082ED91E060E070E00E94FB0083ED91E01F
:1023D00060E070E00E94FB0084ED91E06FEF7FE32E
:1023E0000E94FB0085ED91E06FEF7FE30E94FB0010
:1023F00089ED91E060E070E00E94FB008EEC91E0DE
:1024000060E070E00E94FB008CEC91E060E070E026
:102410000E94FB008AEC91E06FEF7FE30E94FB00DB
:1024200088EC91E060E070E00E94FB0080ED91E0BC
:1024300060E070E00E94FB0083EE91E060E070E0FD
:102440000E94FB0084EE91E060E070E00E94FB00DF
:1024500012B8EDEDF0E080818064808380818F7B15
:10246000808381E080937903899A9E012F5F3F4F9B
:102470003DAB2CAB8EE093E099AF88AF1FAA1EAAAC
:102480000F2EF4EDAF2EF1E0BF2EF02D0F2EF8ED54
:102490006F2EF1E07F2EF02D0F2EF5ED4F2EF1E097
:1024A0005F2EF02D0F2EFAEC2F2EF1E03F2EF02DA7
:1024B000ACA9BDA98C918093790384B58F6084BD4C
:1024C00081E087BDEEE6F0E080818260808316BC0B
:1024D000EEA9FFA9E230F10524F483E080937803AC
:1024E00003C082E08093780311962D913C9112975E
:1024F0003BAB2AAB8DE090E09FA78EA7EE24FF2494
:102500000F2EF1EDCF2EF1E0DF2EF02D0F2EF6ED98
:102510008F2EF1E09F2EF02D81E090E0FC010EA4C3
:1025200002C0EE0FFF1F0A94E2F7F9ABE8ABEE2A08
:10253000FF2AC501B7010E94FB0010927703109299
:102540007A038FE028E130E00FB6F894A895209345
:1025500060000FBE80936000809177038823B1F5FF
:1025600002ED11E08091790390E0845D9E4F60E080
:102570000E942F02C501B7010E94FB00C30160E069
:1025800070E00E94FB00C2016FEF7FE30E94FB003E
:10259000C1016FEF7FE30E94FB008EEC91E060E0F1
:1025A00070E00E94FB00C60160E070E00E94FB004A
:1025B000C40160E070E00E94FB00C80160E070E0D0
:1025C0000E94FB0080917703882361F288E10FB6B7
:1025D000F89480936000109260000FBE80917503A4
:1025E000909176032AA93BA92817390750F08091CA
:1025F000AF02813031F488A999A980959095E8229D
:10260000F9228091750390917603EAA9FBA98E17B0
:102610009F0721F48091AF02813071F081E08093B7
:10262000AF022EA53FA5215030403FA72EA78FEF28
:102630002F3F380709F070CFEEA9FFA93196FFAB05
:10264000EEABC7018096E8ADF9AD81939193F9AFF8
:10265000E8AFEEE6F0E080818D7F808314BC2CA98A
:102660003DA92D5F3F4F3DAB2CAB8EA99FA98F306D
:10267000910509F01DCF8998E9960FB6F894DEBF51
:102680000FBECDBFDF91CF911F910F91FF90EF90C3
:10269000DF90CF90BF90AF909F908F907F906F9082
:1026A0005F904F903F902F9008958CE093E06CE006
:1026B00076E040E250E00E949F1B8EE493E06EE4DF
:1026C00076E042E250E00E949F1B8CE293E06CE2D5
:1026D00076E042E250E00E949F1B089582E796E078
:1026E0000E94991B909373038093720380E796E096
:1026F0000E94991B90937103809370038EE493E082
:102700006EE476E042E250E00E94891B8CE293E0A6
:102710006CE276E042E250E00E94891B8CE093E09C
:102720006CE076E040E250E00E94891B0895982F0B
:10273000969596959695292F30E0F9013197EE0FF1
:10274000FF1FE60FF71F0190F081E02D220F331FCE
:10275000260F371FD9014D915C9111974E1B5F0BCE
:10276000990F990F990F891B90E0489F9001499FFD
:10277000300D589F300D11243695279536952795A5
:1027800036952795E20FF31F8E2F9F2F0895CF9335
:10279000DF93CDB7DEB7A2970FB6F894DEBF0FBEBA
:1027A000CDBFDE011196EDE8F2E082E201900D92DC
:1027B0008150E1F7AEE4B3E0FE01319682E2019090
:1027C0000D928150E1F7ACE2B3E0FE01319682E276
:1027D00001900D928150E1F7A2960FB6F894DEBFFA
:1027E0000FBECDBFDF91CF9108959FB1892F8C701F
:1027F0002091C102822B8093C10280917E03982791
:10280000892780937E0389230895EDEDF0E0908180
:102810009F7B9083282F30E021703070220F331F70
:10282000682F629566956770679566276795262B72
:10283000982F969596959170292B682F661F66277D
:10284000661F660F660F660F262BA82FA695B0E0B1
:10285000A170B070BD01660F771F660F771F262B22
:10286000682F62956F7070E061707070AB0100242A
:10287000569547950794569547950794542F402DA4
:10288000622F642B482F429546954695437050E041
:10289000417050709A01220F331F22953295307F7C
:1028A0003227207F3227462F422B869586958695A4
:1028B000282F30E021703070C90182959295907F69
:1028C0009827807F9827842B82B9808180648083B9
:1028D00080818F7B808312B80895FC0142837483CA
:1028E00063831182108208951F93CF93DF93EC01CD
:1028F000162F0E94E314282F3981832F90E0019630
:102900006A8170E00E945B1B488150E08417950744
:1029100029F4822F0E94E61480E011C0EB81FC8133
:10292000E30FF11D1083898190E001966A8170E0C8
:102930000E945B1B8983822F0E94E61481E0DF9155
:10294000CF911F910895CF93DF93EC010E94E31480
:1029500029819881291718F0C22FC91B03C0CA8189
:10296000C20FC91B0E94E6148C2FDF91CF910895EE
:10297000FC012081862F90E0820F911D628170E022
:102980000E945B1B0380F481E02DE80FF91F80811A
:1029900008951F93CF93DF93EC01162F0E94E31449
:1029A000482F8881212F30E0280F311D6A81C9010D
:1029B00070E00E945B1B8883842F0E94E614DF91E5
:1029C000CF911F9108958FB7F89408958FBF089500
:1029D000881F8827881F089591E0883F08F490E0B9
:1029E000892F0895282F30E0207F3070203C31055A
:1029F000E9F1213C31058CF420393105E1F0213930
:102A0000310524F42038310579F515C0203A310517
:102A100091F0203B310541F50EC0203E310559F0C3
:102A2000213E310524F4203D3105F1F41FC0203F43
:102A30003105D1F402C083E00895863F79F0873FE5
:102A400038F4823FA9F0833F59F0813F59F408C020
:102A5000883F40F08D3F10F08E3F20F081E00895D8
:102A600082E0089580E0089580E0089582E008956E
:102A700083E008950F93342F022F462F4F70406B41
:102A8000232F2F770F77DC01ED91FC9163E070E04D
:102A900009950F9108950F93342F022F462F4F70F1
:102AA0004069232F2F770F77DC01ED91FC9163E0D4
:102AB00070E009950F9108950F93342F022F462F40
:102AC0004F704068232F2F770F77DC01ED91FC9139
:102AD00063E070E009950F9108950F93342F022F52
:102AE000462F4F70406A232F2F770F77DC01ED912F
:102AF000FC9163E070E009950F9108950F931F9387
:102B000020E24030520744F4A0EE40305A073CF037
:102B10008A010050104E05C00FEF1FE302C000E015
:102B200010E0462F4F70406E202F2F77000F012F9F
:102B3000001F110B11950F77DC01ED91FC9163E003
:102B400070E009951F910F9108950F93242F462F40
:102B50004F70406C2F77DC01ED91FC9162E070E0EA
:102B600000E009950F9108950F93242F462F4F7081
:102B7000406D2F77DC01ED91FC9162E070E000E0A8
:102B800009950F9108950F93DC01ED91FC9161E09F
:102B900070E048EF20E000E009950F9108950F9351
:102BA000DC01ED91FC9161E070E049EF20E000E094
:102BB00009950F9108950F93DC01ED91FC9161E06F
:102BC00070E04AEF20E000E009950F9108950F931F
:102BD000DC01ED91FC9161E070E04BEF20E000E062
:102BE00009950F9108950F93DC01ED91FC9161E03F
:102BF00070E04CEF20E000E009950F9108950F93ED
:102C0000DC01ED91FC9161E070E04EEF20E000E02E
:102C100009950F9108950F93DC01ED91FC9161E00E
:102C200070E04FEF20E000E009950F9108950F93B9
:102C3000262F2F77DC01ED91FC9162E070E041EFEF
:102C400000E009950F9108950F931F93262F2F777A
:102C50008B01000F012F001F110B11950F77DC0165
:102C6000ED91FC9163E070E042EF09951F910F91A7
:102C700008950F93262F2F77DC01ED91FC9162E0F0
:102C800070E043EF00E009950F9108950F93DC0188
:102C9000ED91FC9161E070E046EF20E000E00995E5
:102CA0000F9108950F93462FDC01ED91FC9161E0A7
:102CB00070E020E000E009950F9108950F93DC018A
:102CC000ED91FC9109950F9108956F927F928F92EB
:102CD0009F92AF92BF92CF92DF92EF92FF920F93AB
:102CE0001F93CF93DF9300D00F92CDB7DEB74C0187
:102CF0006B015A016115710541F1EE24FF240F2E7D
:102D0000F3E06F2E7724F02D19821A821B82860140
:102D10000E191F090430110508F08301B5016E0D6D
:102D20007F1DCE010196402F512F0E946E1BC401C2
:102D3000B80149812A810B810E945E1683E090E0F0
:102D4000E80EF91EEC14FD04F8F20F900F900F90AE
:102D5000DF91CF911F910F91FF90EF90DF90CF9077
:102D6000BF90AF909F908F907F906F900895FC01DF
:102D7000738362830895FC01758364830895FC0165
:102D8000778366830895FC01718760870895FC014D
:102D9000738762870895FC01758764870895FC0135
:102DA000778766870895FC01718B608B0895FC011D
:102DB000738B628B0895FC01758B648B0895FC0105
:102DC000778B668B0895FC01718F608F0895FC01ED
:102DD000738F628F0895FC01758F648F0895FC01D5
:102DE000778F668F0895CF93DF93EC011DA21FA20A
:102DF0001EA2BC01685D7F4F88519F4F40EC0E942E
:102E00006D141B821A821D821C821F821E821986EB
:102E100018861B861A861D861C861F861E86198AA2
:102E2000188A1B8A1A8A1D8A1C8A1F8A1E8A198E72
:102E3000188E1B8E1A8E1D8E1C8E1F8E1E8E19A232
:102E400018A2DF91CF910895EF92FF920F931F93F5
:102E5000CF93DF93D62F662399F0042F152FC0E070
:102E60000F2EF8EEEF2EFF24F02DE80EF91EF801DC
:102E700061918F01C7010E947414CF5FCD17B9F71C
:102E8000DF91CF911F910F91FF90EF900895FC017A
:102E9000718360830895FC0171A360A30895AF92CC
:102EA000BF92CF92DF92EF92FF920F931F93CF9337
:102EB000DF9300D00F92CDB7DEB76C015B01F42E2B
:102EC000E22E102FDC0195968C9195978430E9F4D1
:102ED0005A96ED91FC915B97309709F4EEC0CB01C7
:102EE000019763E070E00E94471BCB01880F991F98
:102EF000680F791F49832A830B834A2D461BC6011D
:102F00009E012F5F3F4F0995C8C06230710509F4DB
:102F10005FC06330710529F06130710509F0B3C0FD
:102F200099C0842F90E0807F9070803A910529F1BC
:102F3000813A91053CF480389105C9F080399105BA
:102F400091F50FC0803E9105F1F0803F910509F1A8
:102F5000803B910541F5D6011296ED91FC911397B6
:102F600024C0D6011496ED91FC9115971EC0D60190
:102F70001696ED91FC91179718C0D6011896ED9111
:102F8000FC91199712C0D6011A96ED91FC911B97EE
:102F90000CC0B2EF4B1709F090C0D6011C96ED9112
:102FA000FC911D9702C0E0E0F0E0309709F485C085
:102FB000B2EFFB1631F4C60162EF4E2D212F0995B9
:102FC0006CC06F2D6F70C6014E2D212F099565C005
:102FD000842F90E0807F9070803D910561F0803F6C
:102FE000910579F0803C9105F9F4D6011E96ED919A
:102FF000FC911F971BC0D6015096ED91FC91519703
:1030000015C0B3EF4B1731F4D6015296ED91FC91F8
:1030100053970CC0B1EF4B1709F04FC0D60154962F
:10302000ED91FC91559702C0E0E0F0E0309709F493
:1030300044C0B3EFFB1619F081EFF81629F4C6016E
:103040006F2D4E2D099529C06F2D6F70C6014E2D25
:10305000099523C0842F0E94EC14882331F0D601F7
:103060005696ED91FC91579708C0B6EFFB1629F5DF
:10307000D6015896ED91FC9159973097F1F0C60121
:103080006F2D09950AC064307105A8F416C0C601F9
:10309000B5014F2D2E2D012F0995D6015E96ED918C
:1030A000FC915F97309789F0C601B5014F2D2E2D09
:1030B000012F09950AC0AA24BB24D6015C96ED9184
:1030C000FC915D97309719F7E8CF0F900F900F9014
:1030D000DF91CF911F910F91FF90EF90DF90CF90F4
:1030E000BF90AF900895EF92FF920F93CF93DF932D
:1030F0007C01C62F862F0E94EC14882391F0D70103
:103100009596DC91959781E095968C93C70161E047
:1031100070E04C2F20E000E00E944F17F701D5A38C
:10312000B7C08C2F0E94E814882309F473C0D7011C
:1031300095968C919597843049F09296CC9392977E
:1031400081E090E097969C938E9396978C2F0E94A7
:10315000F214813041F0813000F18230A1F08330EF
:1031600009F04FC014C081E0F70185A3C70161E0F9
:1031700070E04C2F20E000E00E944F17D701959699
:103180001C92959785C082E0F70185A381C083E0FA
:10319000D70195968C9395977BC0C03F19F0C73F98
:1031A00059F50AC084E0F70185A380EF82A381E08E
:1031B00090E097A386A36CC0D70196962D913C9181
:1031C0009797C90163E070E00E94471BF701E80F81
:1031D000F91F87EF82A3B9016F5F7F4FF70177A3D4
:1031E00066A3C70142A123A104A10E944F17D701E2
:1031F00095961C9295974CC0F70115A217A216A29E
:1032000047C0D70195961C92959797961C921E924F
:1032100096973EC0F70125A12223D1F106A0F7A180
:10322000E02DCF0163E070E00E94471BAC018E0DE2
:103230009F1DDC019296CC939297BF016F5F7F4FE9
:10324000F70177A366A34130510591F04230510553
:10325000F9F4C70142A123A104A10E944F17F7016D
:1032600085A18430A9F081E090E097A386A310C0E7
:10327000223071F4C70142A123A100E00E944F1740
:10328000F70185A1843021F081E090E097A386A327
:10329000DF91CF910F91FF90EF900895CF92DF9241
:1032A000EF92FF920F931F93CF93DF936C01DC019A
:1032B0009096ED91FC919197309709F009950F2E1A
:1032C000F8EEEF2EFF24F02DEC0CFD1CC7010E9440
:1032D000A314C82FD0E0209799F000E010E0C701B8
:1032E00060E00E94B814682FC6010E947318C701DD
:1032F00061E00E94C9140F5F1F4F0C171D0778F380
:10330000DF91CF911F910F91FF90EF90DF90CF90C1
:1033100008959C0167E070E00E94471B482F8823B6
:1033200081F0C90167E070E00E94471BCB01880F64
:10333000991F880F991F880F991F0196840F911D5F
:103340000895C90167E070E00E94471BCB01880F18
:10335000991F880F991F880F991F0895482F47704C
:10336000A1F09C013695279536952795369527959A
:10337000C901880F991F880F991F880F991F821BF9
:10338000930B0197840F911D08959C013695279505
:103390003695279536952795C901880F991F880F6F
:1033A000991F880F991F821B930B08952F923F92AC
:1033B0004F925F926F927F928F929F92AF92BF9245
:1033C000CF92DF92EF92FF920F931F93CF93DF93F1
:1033D00000D000D000D0CDB7DEB71C017A8369835E
:1033E0003A01CA0167E070E00E94471B2B015B01B4
:1033F00061157105B1F18101E980FA80CC24DD24E9
:10340000882499241E830D83F8011192FC82EB829B
:10341000A401AB81BC812D91BC83AB834F5F5F4F17
:10342000822F90E080789070BC01042E02C07595C8
:1034300067950A94E2F7AD81BE818C91862B8C93BF
:103440002F7721934730510521F70894C11CD11CD7
:10345000085F1F4FE7E0F0E0EE0EFF1ECA14DB042A
:1034600089F6C30167E070E00E94471B8823D9F109
:103470008201000F111F000F111F000F111F780193
:10348000E418F508D101A00FB11F1C92682F70E05D
:103490006115710519F1E981FA81EE0EFF1EC8016F
:1034A0000196280E391E20E030E0F70141917F019E
:1034B0002F5F3F4F842F90E080789070022E02C0E3
:1034C000959587950A94E2F79C91892B8C934F7779
:1034D000F10141931F012617370738F3C801019600
:1034E000860F971F07C0C201880F991F880F991F69
:1034F000880F991F26960FB6F894DEBF0FBECDBF7A
:10350000DF91CF911F910F91FF90EF90DF90CF90BF
:10351000BF90AF909F908F907F906F905F904F90F3
:103520003F902F9008956F927F928F929F92AF92CB
:10353000BF92CF92DF92EF92FF920F931F93CF93A0
:10354000DF933C014B015A014230510508F46FC032
:103550007A01F694E794F694E794F694E794E114EC
:10356000F10429F1EB01B30100E010E0CC24DD24EB
:10357000DE011196FB01A6012D912F7720834F5F6D
:103580005F4F888190E0042E02C0880F991F0A9433
:10359000E2F78078282B21934730510569F70F5FB8
:1035A0001F4F2896695F7F4F0E151F0509F75A2D8B
:1035B000577099F1E701CC0FDD1FCC0FDD1FCC0F49
:1035C000DD1F8E010E191F09652F70E061507040DC
:1035D000F9F0CE010196D401A80FB91FF301E00F55
:1035E000F11F20E030E0C80DD91D4D914F77408389
:1035F0002F5F3F4F888190E0022E02C0880F991FF5
:103600000A94E2F78078482B41932617370768F32E
:10361000C8010197850F911D0CC0C701880F991F24
:10362000880F991F880F991F8E199F0902C080E08B
:1036300090E0DF91CF911F910F91FF90EF90DF907D
:10364000CF90BF90AF909F908F907F906F90089594
:10365000629FD001739FF001829FE00DF11D649F76
:10366000E00DF11D929FF00D839FF00D749FF00D02
:10367000659FF00D9927729FB00DE11DF91F639FA3
:10368000B00DE11DF91FBD01CF0111240895AA1B42
:10369000BB1B51E107C0AA1FBB1FA617B70710F03D
:1036A000A61BB70B881F991F5A95A9F7809590956F
:1036B000BC01CD01089597FB092E07260AD077FD9E
:1036C00004D0E5DF06D000201AF4709561957F4F95
:1036D0000895F6F7909581959F4F0895FB01DC01C1
:1036E00002C001900D9241505040D8F708956817DC
:1036F000790768F4FB01DC01E40FF51FA40FB51F87
:1037000002C002900E9241505040D8F708950C9498
:103710006E1BDC01CB01FC01F999FECF06C0F2BDA6
:10372000E1BDF89A319600B40D9241505040B8F77F
:103730000895A8E1B0E042E050E00C948B1BDC015E
:10374000A40FB51F4150504048F0CB01840F951F86
:103750002E910E94B01B41505040D0F70895262F63
:10376000F999FECF92BD81BDF89A019700B4021677
:1037700031F020BD0FB6F894FA9AF99A0FBE089569
:103780000196272F0E94B01B0C94AF1BF894FFCF1B
:10379000B401B001AC01A801A401A0019C019801F1
:1037A000940190018C0188018401800178017401E9
:1037B00070016C016801640160015C0158015401F1
:1037C00050014C014801440140013C010000007FD0
:1037D0000000007E0000007D0000007C0000007BF7
:1037E0000000007A000000790000007800000077F7
:1037F00000000076000000750000007400000073F7
:1038000000000072000000710000006F0000006EF8
:103810000000006D0000006C0000006B0000006AFA
:1038200000000069000000680000006700000066FA
:1038300000000065000000640000006300000062FA
:103840000000006100000060FF00FF00FF00FF00BB
:10385000FF00FF00FF00FF001D1B1C1A1E181F1990
:10386000051110131617120C14150B01040D060286
:103870000703080F0E090AD711CD5D1B5EDE15DFA9
:103880005F0001020304050607080900014F000755
:1038900002050006040301070405030602010000F7
:1038A00000020201030301000402060105060701EC
:1038B00000010200030400070406020506040104D7
:1038C00001413B02A74A02072F01817601A74A0264
:1038D0000F5E02413B04A74A04072F08413B0854EE
:1038E0002510072F10A01D20542520841740A01D4F
:1038F00002A74A02072F01817601A74A020F5E0242
:10390000413B04A74A04072F08413B0854251007F0
:103910002F10A01D20542520841740A01D00004416
:10392000048908CD0C111155159A19DE1D22226645
:1039300026AB2AEF2E33337737BC3B0040004001E3
:00000001FF
